:020000040000FA
:10000000028FE0027F1F7E037F13220286FFA21968
:1000100022C32202650CEE30E707C3E49FFFE49E93
:10002000FE2222028E6900013B02BC0F6002032007
:1000300001C10280015E0280015E002200380C0CCA
:1000400003010000017B03530F4003034001BD0285
:1000500080015E0280015E005100390C0C03040037
:1000600000013B02BC0F6002032001C1028001902D
:1000700002800190002200200C0C03020000017B92
:1000800003530F4003034001BD0280019002800131
:1000900090005200260C0C03050000013B02580F93
:1000A00060020320020D028001E0028001E00022D4
:1000B000001E0C0C03070000015E029B0F400303AF
:1000C00060020D028001E0028001E0005100240C7A
:1000D0000C03090000017B02D80F2803034002082B
:1000E000028001E0028001E0007200190C0C030A9A
:1000F0000000017702EE0F4003034801F402800183
:10010000E0028001E0006A000D0C0C030B0000010E
:10011000B103520F3803034001FD028001E0028069
:1001200001E0004200160C0C030C000001350240F7
:100130000F200A03300219028001F4028001F4004A
:100140004200030C0C030D0000013B02BD0F6C02CA
:10015000038401C102D0019002D001900028002048
:100160000C0C03030000017B03520F480203A8019B
:10017000BE02D0019002D00190005C00270C0C035D
:1001800006000001F102E90F40030480029B0340D6
:1001900002700340027000D0001A0C0C030E000025
:1001A000016002330F480204000271032002580369
:1001B000200258007100130C0C030F0000017B0299
:1001C0005B0F8004042002740320025803200258AD
:1001D000004900140C0C0310000001E102D20F785A
:1001E000060410029A03200258032002580031002E
:1001F000140C0C0311000001D502EE0F5003042073
:1002000002710320025803200258009100120C0CC6
:1002100003120000021903530F400304180277036E
:1002200020025803200258008900180C0C03130008
:1002300000013602580F700804400205035001E027
:10024000035001E0006100140C0C03140000012AAB
:1002500002550F5005042001F4035001E003500142
:10026000E0005A00090C0C03150000015E02BC0FEF
:100270005803043001F4035001E0035001E0006131
:10028000000D0C0C03160000016902D00F58030486
:100290004001F5035001E0035001E00069000E0C3D
:1002A0000C03170000017902EC0F5005044001F81F
:1002B000035001E0035001E0006A000D0C0C03182C
:1002C0000000016702570F48070390025702D0024F
:1002D0004002D002400051000A0C0C03190000013A
:1002E0006303660FB00204F00198040003000400E9
:1002F0000300002900110C0C031A010001E402584C
:100300000F880605400326040003000400030000D4
:1003100091001A0C0C031B0000023502BD0F880669
:100320000530032604000300040003000081001AC6
:100330000C0C031C0000024102D00F700305500397
:100340002104000300040003000097001A0C0C03B2
:100350001D0000025802EE0F600305200320040078
:1003600003000400030000A000190C0C031E000091
:10037000026302F80F600305500323040003000426
:10038000000300009D001C0C0C0368000002AF037A
:10039000520F6003056003280400030004000300FB
:1003A00000BF00210C0C031F000001C102580F7098
:1003B0000605D002EC048002D0048002D00099002F
:1003C000100C0C03210000021C02580F600305C82A
:1003D0000384048003600480036000A000190C0CF7
:1003E00003690000027F02BC0F600305C80390048C
:1003F0008003600480036000B700290C0C03230015
:100400000002A302EE0F8003064003840480036011
:100410000480036000EF001D0C0C032400000303A4
:10042000034F0F78040610038E04800360048003DA
:100430006000B600240C0C0325000002AF02EF0F91
:10044000800305B003930480036604800366008084
:1004500000240C0C03260000026A02940F8004059D
:10046000E003A9048003840480038400B0001C0C12
:100470000C0327000002CD02F90F600805C003AF8E
:10048000048003840480038400BF001E0C0C032836
:10049000000001C202580F2805067202EE05000294
:1004A000D0050002D000CC00110C0C032200000289
:1004B0003502EC0F800506A002F3050002D005000E
:1004C00002D000C000180C0C032A000001DA025808
:1004D0000F200705A0031605000300050003000018
:1004E0004000090C0C032B000001DE02570F8007AF
:1004F0000680031E050003000500030000B1001183
:100500000C0C032C0000023502BD0F800706A0036F
:1005100026050003000500030000C500190C0C03AC
:100520006A0000024102D10F800706A003200500E7
:1005300003000500030000C5001A0C0C036B00004B
:10054000025B02ED0F800706A003250500030005EE
:1005500000030000C000180C0C032F000002AE03C3
:10056000500F880706B003290500030005000300AB
:1005700000C8001C0C0C0320000001ED02570F20E6
:100580000605A003370500032005000320004100F5
:100590000B0C0C0330000001F102560F8006069090
:1005A000033F050003200500032000B900150C0CD3
:1005B00003310000020802710F480306A003410541
:1005C0000003200500032000C1001A0C0C033200B8
:1005D00000025902D00F880306B003420500032031
:1005E0000500032000C8001B0C0C0333000002753B
:1005F00002EE0F800606A003460500032005000357
:100600002000C0001A0C0C0334000002CC03510F70
:10061000880606B0034B050003200500032000C830
:10062000001F0C0C03350000025802580F7003071E
:100630000803E8050003C0050003C0012700210CE2
:100640000C0336000002EE02EE0F9003069003E862
:10065000050003C0050003C000E000240C0C036E7D
:100660000000035B03520FA00306C003F305000361
:10067000C0050003C000CD002C0C0C0337000002A5
:100680008002580F70030698042A05000400050034
:10069000040000E700230C0C0338000002CD02A088
:1006A0000F70030660042B05000400050004000021
:1006B000CF001E0C0C036C000002ED02BB0FA00467
:1006C00006A00430050004000500040000CE002749
:1006D0000C0C0339000002E802BC0F7005068E0402
:1006E00028050004000500040000C6001F0C0C03D0
:1006F0003A0000030B02D00F880506C0043A05003B
:1007000004000500040000CE00310C0C033B000087
:10071000032002EE0F64140698042A050004000565
:1007200000040000E600230C0C033C0000032C0234
:10073000FA0F40080680042A0500040005000400A2
:100740000110001D0C0C033D0000039003520FA08C
:100750000306C00430050004000500040000CD00BD
:10076000290C0C033E000001DD02580F7006070043
:10077000031B055003000550030000F0000F0C0C94
:10078000032D000001DD02560F8F030700031E0535
:100790005603000556030000C600150C0C032E007E
:1007A00000028702580F2004061804380578041A3E
:1007B0000578041A003F00140C0C033F0000028D62
:1007C00002580F9004074804410578041A0578047C
:1007D0001A00D8001D0C0C03410000033702ED0F76
:1007E00090040768044B0578041A0578041A00E79A
:1007F00000270C0C0343000003AB03520F980407BF
:100800007804510578041A0578041A00EF002D0CBD
:100810000C03450000022B02570F20060640039EE2
:1008200005A0038405A003840040000E0C0C0346C1
:100830000000022F02570F9806077003A605A003B9
:100840008405A0038400D800160C0C0348000002A5
:10085000C202EE0F9806079003AE05A0038405A020
:10086000038400E8001E0C0C03290000022B025830
:100870000F200506E0039E06400384064003840023
:100880003F000F0C0C03470000026902570F2006BF
:1008900006E00405064003E8064003E8003F0011B7
:1008A0000C0C03490000026E02570FA80608500402
:1008B0000E064003E8064003E800F7001A0C0C039C
:1008C0004A0000031002EC0FA80608700417064047
:1008D00003E8064003E8010500230C0C034B00006D
:1008E00002E402570F200406E004D3064004B006D9
:1008F0004004B0003E001A0C0C034C000002EE0253
:10090000580FC004087004E2064004B0064004B06A
:10091000011D002B0C0C034E0000032D028A0FC09A
:1009200003087004E2064004B0064004B0011C0055
:100930002B0C0C034F0000036B02BC0FC0030870AC
:1009400004E2064004B0064004B0011C002B0C0C6D
:100950000350000003AA02EE0FC003087004E20671
:100960004004B0064004B0011C002B0C0C035100E5
:1009700000028702570F2006073004380690041A39
:100980000690041A003F00120C0C03400000028D78
:1009900002580FB00608C004410690041A069004DD
:1009A0001A0107001B0C0C03420000033702ED0F75
:1009B000B00608E0044B0690041A0690041A0117CA
:1009C00000250C0C03440000031B02570FA8070866
:1009D00070052F0640050006400500010500220CA9
:1009E0000C03520000029A02570F200508200457FA
:1009F0000780043807800438004000130C0C0353B0
:100A0000000002A002580FC8050A10046007800405
:100A100038078004380137001D0C0C035400000215
:100A2000A302580F2C050898046507800438078036
:100A30000438008200210C0C03570000026601F408
:100A40000F2006082004CD078004B0078004B00002
:100A50003E00110C0C0355000002E402580F200662
:100A6000082004D3078004B0078004B0003D0017BD
:100A70000C0C034D000002EA02570FC8060A2004BE
:100A8000DD078004B0078004B0013E00210C0C0398
:100A9000560000013B02580F3E09035A020D02D0D6
:100AA00001E002D001E0002E001B0C0C0308000046
:100AB000013901F40F40050360027102D0024002C7
:100AC000D00240003600240C0C03580000016802DC
:100AD000580F40050390025802D0024002D0024055
:100AE0000063000F0C0C036D0000017701F40F2868
:100AF0000507BC02EE050002D0050002D000CD00C3
:100B0000110C0C03590000023301F40F2C050A509C
:100B100004650780043807800438008500230C0C26
:100B2000035A0000009D02580F3E02035A010602BC
:100B3000D001E002D001E0002C000C0C0C035B01A2
:100B400000009D02580F7C0206B4010605A001E0DA
:100B500005A001E00058000C0C0C035C0100009D96
:100B600002580FF8020D6801060B4001E00B40012E
:100B7000E000B0000C0C0C035D0100015202580FA4
:100B80002C02089802320780043807800438008558
:100B9000000C0C0C035E0100009D01F40F3F0103EB
:100BA00060013802D0024002D00240003800100C30
:100BB0000C035F0100009D01F40F7E0106C00138A7
:100BC00005A0024005A00240007000100C0C03605C
:100BD0000100009D01F40FFC010D8001380B400263
:100BE000400B40024000E000100C0C0361010001CA
:100BF0004202030FA816090002710780043807801B
:100C000004380084000C0C0C03620100011901F48B
:100C10000F2C020A50023207800438078004380083
:100C200084000C0C0C0363010002BD02570F20036B
:100C300008A004A10800048008000480003E0016FB
:100C40000C0C0364000002CC02580FD8030AC00445
:100C5000AB0800048008000480015200200C0C0343
:100C6000650000017902580F80050698027405009E
:100C7000025805000258005100140C0C03660000D5
:100C8000017502570F8806052002700400025804FF
:100C90000002580090000B0C0C03670000013901A2
:100CA000F40FA80509000271078004380780043892
:100CB00000B800390C0C036F010002AF025801307C
:100CC0000508980479073A040C073A040C00C000A0
:100CD000330C0C036F0200FFFFFFFFFFFFFFFFFF5E
:100CE000FFFFFFFFFFFFFFFFFFFFFFFFFFFFFFFF14
:100CF000FFFFFF01800001800801800A01800F01D1
:100D00008020018021018023018024018025018031
:100D1000260180380181960180120180720181E6EE
:100D20001000F000818100800000102000010110FF
:100D300000F0008181008000801021000001180077
:100D4000F8008101408000801021C010511000F097
:100D50000083010882000000900000011000F000F4
:100D600081810081000010200001011000F000814D
:100D7000810081008010210000011800F80081012D
:100D8000408100801021C010511000F00083010844
:100D900086000000900000011803F8008101C08067
:100DA00000801021C010511803F8008101C081009B
:100DB000801021C010511000F0008301088700004E
:100DC000009000000124C8EB3E9CF10443872C22D4
:100DD0000DDA6DF94C25CA0403A9636D9FA37162F6
:100DE0000EB4FB29BAB4FBD9DB0C9ED35A0ADD7CC6
:100DF0005A9E9F88150B341320BBFC2C3624C160EF
:100E0000CFC2565580115D2A61D08CEFF120E7AC3E
:100E10005DD4C3D411758D333CA9952C4D13145159
:100E2000A548EB5A6899C6BEF04AA74D64307722B0
:100E300052A423BD96AAAA3E44B88FEA236FE7B412
:100E4000EFE7661B3CB03E836D5CBEA495880D0B3E
:100E5000A4FA9602B5C4E5D89AAB7FF76EAA90952E
:100E600073C58202873FD0C4FABF5DFC5D5518246C
:100E7000DE63A7127225666EB46E9F185DC136C719
:100E8000BAD05634CE62906C7264317118731E8D74
:100E9000DF13FB66ACB2A31AE7B359BD97B14CC9D7
:100EA00052934FAA633FF0863581C1114989602A68
:100EB000AB96B7D25868BA862FC97EE81D770F3631
:100EC00020FCCC3EDB3398EF82CC5174D53A08E459
:100ED000BBA3276AFF596BBC098AD45C0031873EEB
:100EE00020386800010203040500908154E090A0BE
:100EF000E8F0908150E090A0E7F0908188E090A029
:100F0000EA12203EE4908154F07B017A81797112DB
:100F10009CE590A0EBEEF0A3EFF090A0EB121F1C6D
:100F2000129D5D90A0E7E04420908150F07B017A13
:100F300081798412978790A0F3EEF0EF121F4D1283
:100F40001FFBC004C005C006C00790A0F3121EA579
:100F5000D007D006D005D004125C1F90A0EB602310
:100F60004021121F52121FFBC004C005C006C0075B
:100F700090A0F3121F52D003D002D001D00012591A
:100F8000848027121F527BCD7ACC79CC783D125ABF
:100F900079C004C005C006C00790A0F3121F52D04C
:100FA00003D002D001D0001259881220E612211A73
:100FB000129787EE540F90A101F0A3EF122051FF7A
:100FC00090A101E0FCA3E0FDC39FEC9E5003021042
:100FD00062122110ED9FEC9E400302106290A32943
:100FE000121E97FFE4125C98C004C005C006C0073B
:100FF00090A0FD121FB9125C9DD003D002D001D089
:1010000000125A79C004C005C006C00790A0EB12B8
:101010001EA5D007D006D005D004125B82C004C044
:1010200005C006C007121FB6121EABD007D006D0EF
:1010300005D004122079121E97FFC004C005C00617
:10104000C00790A105121E97FBAA06A905A804D007
:1010500007D006D005D004C3EF1220DA121F871282
:10106000C03B9081867401F09081887406F07F50B7
:101070007E0012D32812000E500302136EE490A1DA
:1010800001F0A3F090A0F51263D70000000090A03B
:10109000F91263D700000000E490A0E9F090A0E905
:1010A000E0C39404748094804003021140908188CE
:1010B0007406F07F0112B97812211A12978790A155
:1010C00002E02FF090A101E03EF012E06990A0F55F
:1010D000121EF25018C000C001C002C00312AA655F
:1010E000D003D002D001D0001220058019C000C06A
:1010F00001C002C0031220BB12944AD003D002D018
:1011000001D0001220C290A0F51263CB90818874A8
:1011100002F090A0F9121EF2C000C001C002C0038C
:101120001220BB12944AD003D002D001D00012206A
:10113000C290A0F91263CB90A0E9E004F002109DE8
:1011400090A102E02402FF90A101E03400FE7C00A7
:101150007D04126102EEF0A3EFF0121E94121F8DB7
:1011600090A0F51263CB90A0F9121E97121F8D90DC
:10117000A0F91263CB90A0EBE0FEA3E01220229036
:10118000A0F9121E97FF12629E90A0EF121E7DFF23
:1011900012629E90A0F1121E7DFF12629E90A0ED41
:1011A000EEF0EF121F4D121FFBC004C005C006C0B9
:1011B0000790A0EF121EA5D007D006D005D00412CC
:1011C00059841220E690A0FD121FB9125C9DC00444
:1011D000C005C006C00790A0ED121F52D003D00278
:1011E000D001D000125A79C004C005C006C00790D3
:1011F000A0EB121EA5D007D006D005D004125B824A
:10120000125CD690A0F2E02FFF90A0F1E03EAB0779
:10121000FA7D09121EFE4003021284121F677D0729
:1012200012609B1D121F0D4003021284121F677D66
:101230000512609B0D121F0D40030212847D0312E4
:101240001EFE4002803E121F67121F0B40028034B8
:10125000C3E49FFFE49EFE121F10400590A103808F
:1012600024121F677D0312609B7D06126102C3E496
:101270009FFFE49EFE121F1040028008121F677D30
:1012800006126102A3EEF0A3EFF090A0F11220721B
:1012900090A104E09FFF90A103E09E90A0FFF0A327
:1012A000EFF090A329121E97FFE4125C98C004C0CF
:1012B00005C006C00790A0FF121FB9125C9DD003A5
:1012C000D002D001D000125A79C004C005C006C0B7
:1012D0000790A0ED121EA5D007D006D005D00412AD
:1012E0005B82C004C005C006C007121FB6121EAB49
:1012F000D007D006D005D004122079121EF290A19A
:1013000005121E97FF122005121F87121F677D020C
:10131000126102ED4C604890A329121E97FFE4125F
:101320005C98C004C005C006C007121FB6121EABF1
:10133000D007D006D005D004125B82C004C005C01F
:1013400006C007122089125C9DD003D002D001D0C4
:1013500000121F817B017A81795E122089800690BC
:10136000A101121EC3129D5D12DF3912C03B90A075
:10137000E8E0908154F0E4908186F090A0E7E0905E
:101380008150F07B017A817964122047129D5D9033
:10139000A0EA121FEE2212DCDB7F0F12E2CF12E373
:1013A00057EF6405700302161274FF90A0CEF0A3ED
:1013B000F090A0D41263D7FFFFFFFF12549790A0C4
:1013C000CBEFF0C20FE490A0C8F012577C12581770
:1013D0007003E493F470030215D612E069E433FF5E
:1013E00090A0C8E0FD75F01D1257ADF58374019310
:1013F00054016F7001E460030215CD75F01DED120C
:10140000581E12577290A00BE0FCA3E0FDD39FEC96
:101410009E402E125762C3ED9FFFEC9EFE120016F7
:10142000D390A0CFE09F90A0CEE09E4014125762D0
:1014300012178E90A0CEEEF0A3EFF090A0C8E0A31C
:10144000F012577C12577212176C90A0C8E0FD750D
:10145000F01DA4243EF582E5F03400F583E493FB0F
:10146000D3EF9B7480F86E9840030215CDED1257B0
:10147000E712577212177D1257D2A4243FF582E566
:10148000F03400F583E493FDD3EF9D7480F86E98FB
:1014900040030215CD12E357EF6402701B1257D2BE
:1014A000A4242BF582E5F03400F583E493FF90A0AB
:1014B00006E05F70030215CD90A00BE0FFA3E09063
:1014C000A0CCCFF0A3EFF012E069500D90A0CDE0DA
:1014D00025E0F090A0CCE033F090A0C8E0FF75F0DC
:1014E0001D12581EF583E493FC740193FDD390A064
:1014F000CDE09D90A0CCE09C50030215CDD20FEF23
:101500001257E712577212177DC006C00712577C98
:1015100012577212176CD0E02FFFD0E03EFE3395C9
:10152000E0FD1258041257C3C000C001C002C0033E
:1015300012576212178EEF7802C333CE33CED8F92A
:10154000FFEE3395E0FDFCD003D002D001D000EBDC
:101550002FFFEA3EFEE93DFDE83C1258041257D247
:10156000A4242DF582E5F03400F583E493FF90A0E8
:10157000CBE0C39FFFE49400FE120016EE3395E02B
:10158000FDFCC004C005C006C007E47F64FEFDFC8E
:101590001257C3126213D003D002D001D000EF2B38
:1015A000FFEE3AFEED39FDEC3812580490A0D4124B
:1015B000580B1257C3C3126354501290A0D0125844
:1015C0000BA31263CB90A0C8E090A0CAF090A0C873
:1015D000E004F00213CA300F1590A0CAE0FF1249D0
:1015E0005B1257FD12A019500302176B801E90A0CA
:1015F000C9E0FF12495B90A02DE0FF74FFF0A3EF5C
:10160000F01257FD12A019500302176B1257FD027A
:101610004A6B12C69D90A0C9EEF0A3EFF012E069EC
:10162000500D90A0CAE025E0F090A0C9E033F01280
:10163000C64990A00DEEF0A3EFF090A0C9E0FFA383
:10164000E090A00FCFF0A3EFF090A00DE0FFA3E09B
:1016500090A011CFF0A3EFF090A00FE0FFA3E090D7
:10166000A013CFF0A3EFF0E4A3F0A3F0A304F0A342
:1016700074E0F090A015E0FFA3E090A01CCFF0A3D1
:10168000EFF090A017E0FFA3E090A01ECFF0A3EF33
:10169000F090A02D74FFF0A3E4F090A0C8F090A00B
:1016A000C8E0FF1257801258177003E493F47003D8
:1016B00002176B75F01DEFA42436F582E5F03400B7
:1016C000125772C390A00EE090A00D12179FD3EF97
:1016D0009405EE6480948040030217621257D2A4EE
:1016E0002438F582E5F03400125772C390A010E060
:1016F00090A00F12179FD3EF9406EE648094805051
:101700006112577C125772C390A003E090A002129E
:1017100017A8504E1257D21257EA125772C390A010
:1017200005E090A0041217A8503890A0C8E0FF75FB
:10173000F01D1258281257F490A00DCDF0A3EDF033
:1017400075F01DEFA412579890A00FCFF0A3EFF003
:101750001257D21257AD1257A090A02DCFF0A3EF81
:10176000F02290A0C8E004F002169E22C390A003CD
:10177000E09FFF90A002E09EFE12001622C390A000
:1017800005E09FFF90A004E09EFE12001622C39089
:10179000A00CE09FFF90A00BE09EFE120016229F7F
:1017A000FFE09EFE120016229FFFE09EFE12001632
:1017B000C3EF940AEE64809480229081EDE090A0C3
:1017C000E2F09081EDE04401F0E4FCFD908150E016
:1017D00044201220297B017A807936129CE590A062
:1017E000D2121FA57A807932129CE590A0D4EEF037
:1017F000A3EFF0D3E0940090A0D4E09404401090C4
:10180000A0D2E094055008124FA712D9FDC32212AE
:10181000ACCC90A0D0EEF0A3EFF012E0695004D26F
:10182000108002C21090A04BE0FFA3E090A0E0CF98
:10183000F0EF1220507803CEC313CE13D8F97803FB
:10184000C333CE33CED8F92408FFE43E90A0DAF0BB
:10185000A3EFF0121FE5C394F0EC940F40030218BD
:10186000F1E4125C9D1220CFC004C005C006C00781
:1018700090A0E0121F52D003D002D001D00012205D
:1018800031C004C005C006C00790A3A6121E97FF72
:10189000E4125C98121EAED007D006D005D0041218
:1018A0005B82C004C005C006C007121EA2D007D0CC
:1018B00006D005D004121EDE121F8130100F90A337
:1018C00029121E97FF780112638C121F8790A04D7A
:1018D000121E97FF90A329121EF2D31263545011C7
:1018E00090A0DBE02408F090A0DAE03400F00218C9
:1018F0005312211090A0DBE09F90A0DAE09E400CF4
:10190000A3E024F8F090A0DAE034FFF090A05112A8
:101910001E97FF90A329121EF2D3126354404290E7
:10192000A051121E97FF90A0D61263CB7F407EC1BC
:101930007DFC7C1090A329121EF2D3126354400A3E
:1019400090A0D61263D710FCC14090A0EA7401F0B9
:10195000A374A0F0A374D6F07B017AA079CA123BDD
:101960008090A0E0121EB7129D5D121ECF129D5DE9
:10197000121ECF129D5D90A0DA121F521220CFC00E
:1019800004C005C006C00790A0E0121F52D003D0CB
:1019900002D001D000122031C004C005C006C0072B
:1019A00090A3A6121E97FFE4125C98121EAED007F9
:1019B000D006D005D004125B82C004C005C006C0AA
:1019C00007121EA2D007D006D005D004121EDE12C8
:1019D0001F8130100F90A329121E97FF7801126308
:1019E0008C121F8712C03B12D56C50057F0212B9B2
:1019F000787F507E0012D32812000E5003021B3550
:101A000030101A12D56C5054908020E054FBF07FB7
:101A10000112B978908020E04404F0803F12211A2E
:101A2000129787EE540F90A0C8F0A3EFF090A0DAC1
:101A300012207290A0C9E09FFF90A0C8E09EFE1205
:101A40000016C3EF9405EE64809480500F90A0C8F8
:101A5000E0FFA3E090A0DACFF0A3EFF090A329126B
:101A60001E97FFE4125C9879207841122038C00458
:101A7000C005C006C00790A0DA121EA5D007D00688
:101A8000D005D004125B82C004C005C006C0079018
:101A9000A380121EA5D007D006D005D00412205A6C
:101AA00090A0DCEEF0FCA3EFF0FD7B017A81795B86
:101AB000129D5D7A817962121FCE129D5D90A0E029
:101AC00012207290A04CE090A04B12209890A0673A
:101AD000E0FCA3E0FD90A066E02DFD90A065E03C59
:101AE000CD2FFFED3EFE90A0C8F0FCA3EFF0FD7BF4
:101AF000017A81796F129D5D7B017A81795E121F77
:101B0000E5129D5D12D56C402C90A04BE0FEA3E049
:101B1000FF90A0E0E06E7003A3E06F60189081502A
:101B2000E0FF90A0C8E4F0A3EFF090A0C8A3E054B9
:101B3000DF908150F090A04B121F1C129D5D12B4DB
:101B40009512238B12000E4005120EEA8006124FEA
:101B5000A712D9FD1268F390A0E2E09081EDF0D3D6
:101B6000227BFF7A9B79F012BA0990F024E054FEB0
:101B7000F0908306E090A0D0F0908310E090A0D188
:101B8000F0908311E090A0D2F0908336E090A0D343
:101B9000F0908336E054DFF0908630E0548060317E
:101BA0007F017E0012D3289083397416F012BA4652
:101BB00090833A600574A0F080037460F0909BE617
:101BC000E49390833EF0909BE7E49390833F021E62
:101BD00050908330740DF0908339F090833A7460A4
:101BE000121E7412BA467003021E2990819AE054A4
:101BF000F864186003021E299083117422F0908308
:101C0000107413F0E490A0CCF090A0CCE0FFC3944B
:101C100003748094804003021E29EF909BDB939015
:101C2000A0D9F0908330F0E490A0CDF090A0CDE06A
:101C3000C39404748094804003021E20E0FF25E0DA
:101C400024DEF582E4349BF583E49390A0DAF0EF90
:101C500025E024DFF582E4349BF583E49390A0DB58
:101C6000F090A0DAE0908339F090A0DBE090833A26
:101C7000F0E490A0CEF090A0CE12BA234003021E52
:101C800017E0FF25E024E6F582E4349BF583E49336
:101C900090A0DCF0EF25E024E7F582E4349BF583A7
:101CA000E49390A0DDF090A0DCE0FF90833EF09004
:101CB000A0DD12BA2CF0E490A0DEF074FFA3F0A334
:101CC000F0E490A0CFF090A0CFE0C3940374809490
:101CD000804003021DA0E0FF12B9F9E4F0908306F2
:101CE000EFF0908309E04401F09083107413F01238
:101CF0009BFB90A0D7EEF0A3EFF07F017E0012D304
:101D000028908310E020E312129BFB90A0D712BA18
:101D100016C3EF941EEE940040E012BA4670111202
:101D2000B9ED12BA4D90A0CEF090A0CDF0021D9763
:101D3000908308E0540770597B017A83791790A04B
:101D4000D404F0A37483F0A37417F0E4FFEF12BA85
:101D500024504490A0D4E0FBA3E0FAA3E0F9125F82
:101D6000FFFD90A0E0E02DF090A0DFE03400F090C7
:101D7000A0D4A3E475F00112614EA9F0FA125FFF3E
:101D8000700C12B9F5E004F090A0DEE004F00F80D2
:101D9000BC12B9ED12BA4D90A0CFE004F0021CC6FF
:101DA00090A0E9E0FF90A0DEE0D39F401290A0E178
:101DB00012BA3D400A12BA3C400512BA3C50239078
:101DC000A0EAE0FEA3E0FFC390A0E0E09F90A0DFC8
:101DD000E09E501190A0ECE06008A3E06004A3E056
:101DE000700312BA0390A0E1C374809480401FA3D3
:101DF000748094804018A374809480401112BA03B8
:101E000090A0CE74EEF090A0CDF090A0CCF090A079
:101E1000CEE004F0021C7690A0CDE004F0021C2C71
:101E200090A0CCE004F0021C0990A0E5E09083397A
:101E3000F090A0E6E090833AF090A0E4E090833048
:101E4000F090A0E7E0FF90833EF090A0E812BA2C5B
:101E5000121E7490A0D0E0908306F090A0D1E09084
:101E60008310F090A0D2E0908311F090A0D3E09086
:101E70008336F022F07F017E0012D32822AF03EADE
:101E8000F0A3EFF090A101E0FEA3E0FBAA06EA3385
:101E900095E0F9F890A0F5E0FCA3E0FDA3E0FEA337
:101EA000E02290A0D4E0FCA3E0FDE4125C9DA80435
:101EB000A905AA06AB07227B017A817964E0FCA31D
:101EC000E0FD227B017A81795EE0FCA3E0FD2290B7
:101ED000A0E07B017A817971E0FCA3E0FD22125B36
:101EE0008290A0E31263CB7F007E1B7D377C4D90F8
:101EF000A0E3E0F8A3E0F9A3E0FAA3E0FB2290A1BD
:101F000001E0FEA3E0FF7C0012609B7D06126102EF
:101F1000D3EB9FEE6480F8EA648098227B017A819B
:101F20007964E0FCA3E0FD2290A0EAE0FBA3E0FAE4
:101F3000A3E0F922EE54F090A0E7F0A3E4F07A8158
:101F4000795290A0E77B01E0FCA3E0FD22A3F09092
:101F5000A0EBE0FCA3E0FDE4025C9D7B017A8179CB
:101F600075E0FCA3E0FD2290A101E0FEA3E0FF7C70
:101F700000227A80792E90A0EB7B01E0FCA3E0FDAB
:101F800022125A79125CD690A3290263CB24027BD9
:101F900004FFE43EFEE43DFDE43CFCE4FAF9F80213
:101FA000629E90A0EBEEF0A3EFF07B012290A0499F
:101FB000E0FCA3E0FD2290A101E0FCA3E0FDEC2207
:101FC000908024E05403C3940274809480227B01A7
:101FD00090A067E0FEA3E0FF90A066E02FFD90A038
:101FE00065E03EFC2290A0DAE0FCA3E0FD22E09058
:101FF0008188F0908371E0547FF0227466783FFB13
:10200000FAF9025A79EB2FFFEA3EFEE93DFDE83C82
:10201000FC22AC06AD077B017A8079302212618FF9
:10202000AEF0FBAA06E4F9F822F090816E7407F096
:1020300022125A7979807845E4FBFA025A79F090B5
:102040008371E04480F02290A04BE0FCA3E0FD22ED
:10205000A3F090A055E0FEA3E022125B82E4FBFA1D
:10206000F9783F125988025CD690000AEE8FF00290
:1020700061E6E0FEA3E0FFC322125B82125CD69011
:10208000A1051263CB90A3292290A102E024FFFDB9
:1020900090A101E034FFFC229FFFE09EC313FEEFFE
:1020A00013FF2290000A12618FFDACF0229081870D
:1020B000E05480227B017A8179DC227B017A81796C
:1020C0008922EB2FFFEA3EFEE93DFDE83CFC227B46
:1020D000CD7ACC79CC78BD0259889BFFEE9AFEED83
:1020E00099FDEC98FC22125CD690A0FDEEF0A3EFD7
:1020F000F0229081517401F0FB7A817952227B01A8
:102100007A817973E022908101E0FE908065E0227F
:1021100090A059E0FEA3E0FFD3227B017A8179826F
:102120002290A0DC1263CB90A0DCE0FCA3E0FDA336
:10213000E0FEA3E0FF22E4FEFDFC90A0EAE0F8A3AD
:10214000E0F9A3E0FAA3E0FB12621390A0E2E0F84A
:10215000A3E0F9A3E0FAA3E0FB22E49080F8F0907A
:10216000A0D7E075F003A40490A0D4F090A0DA7496
:1021700001F0A37480F0A37400F090A0D4E0FF906D
:10218000A0DBE48FF002613890A0E0E0FCA3E0FD6A
:10219000C3EF9DFFEE9CFEC3EF9464EE940022EE2D
:1021A0005407F0A3EFF07B0122FBE0FFC374FF9F15
:1021B000FFE49400FE7C007D9012609B7DFF126026
:1021C000ADEF24602290A0D9E0FFE4FCFDFEEB2FF0
:1021D000FFEE3AFEED39FDEC38FC90A0E20263CB55
:1021E00074F09BFEC3EF9EF090A0D474FFF022EB3E
:1021F000D394F87480948022A3E0FFC39408748081
:10220000948022FF90A0DAE0FBA3E0FAA3E0F92299
:1022100090A39DE0C394647480948022E0FCA3E0CA
:10222000FDC39FEC9E2290F00A7455F022EB2FFF25
:10223000EA3EFEED39FDEC38FC0263CB90A0D812EB
:1022400063CB90A39AE090A0D0F090A3A1E090A0DF
:10225000D1F022E0FEA3E0FFC322E0FEA3E0FF7C7A
:10226000007D0A0260AD9BFFEE9AFEED99FDEC98B1
:10227000FC0263CBEE540FF0A3EFF022E0FCA3E0EE
:10228000FDC3EF9DFFEE9C222DFDE03CCDC39FFFE3
:10229000ED9EFE90A0EDF0A3EFF02290A0D6E0FE20
:1022A000A3E0FF22FFE0FCA3E0FD2290A0CDE090A0
:1022B000806AF090A0CEE090811BF022E4F0908044
:1022C00008E0540764032290A0E50263CB90A0E2EB
:1022D000740AF022C390A0EEE09DFF90A0EDE09C78
:1022E000FE2290A0D4E0FEA3E0FF227B017A807959
:1022F000D7229081067442F022FDE43EFCEBC39DA0
:10230000E49C22EE540FF0A3EFF022A3E0FCA3E044
:10231000FDA3E0FEA3E0221263CB90A0F2E024FC38
:10232000543F22EB94F07480948022A3F090A0D0CC
:10233000E0FCA3E0FD229080F9F07B017A8079FC3B
:102340002290A0E5E09F90A0E4E09E227B017A80AD
:10235000793222E0FEA3E0FFED9FEC9E227B017A22
:1023600080793622908106E0540222FFE4F0A3EF48
:10237000F022543F90A0CFF090A39E22E4FCFD02F7
:1023800063CBE0FCA3E0FDE4025C9D12E069400346
:10239000022582908154E090A0E9F0908150E09075
:1023A000A0E8F0908188E090A0EA12203EE49081BD
:1023B00054F09080F5E090A0E7F012E2EF121FC019
:1023C000400302246612202A12E22B90A0EBEEF0CA
:1023D000A3EFF0E4122597129787C006C0071220DA
:1023E000B4129787AC06AD07D007D00612258340FC
:1023F0003274FF122597129787C006C0071220B4C7
:10240000129787AC06AD07D007D00612258340137C
:102410007F017E0012E2467F057E001259167F087A
:1024200012B97890A0EBE0FEA3E0FF1259167F08E6
:1024300012B9787B017A8179DE129787C006C007CE
:102440001220B4129787AC06AD07D007D00612252C
:10245000AF9401EE64809480500302256490816EF5
:102460007447F0022564908024E0540364037006EE
:1024700012202A02256412202A122016129787C0E1
:1024800006C0077B017A80792E129787AC06AD07CC
:10249000D007D0061225AF9400EE64809480402AC5
:1024A000908199E054017029E04401F01220161245
:1024B0009CE5121FA27A80792E129CE5122012123E
:1024C0009D5D121F72129D5D8007908199E054FE00
:1024D000F01225BC12978790A0ED121FA57A817982
:1024E000DE12978790A0EF121FA57A8179DE1297EE
:1024F00087C006C0071220B4129787AC06AD07D07C
:1025000007D006C3ED9FFFEC9EFE120016D3EF949A
:1025100001EE64809480404C90816EE04440F01263
:1025200025BC129787C390A0EEE090A0ED1225C8BD
:1025300050167B017A8179DE129787C390A0F0E074
:1025400090A0EF1225C8401C122016129CE5121F05
:10255000A27A80792E129CE5122012129D5D121F24
:1025600072129D5D90A0E7E09080F5F090A0E9E008
:10257000908154F090A0E8E0908150F090A0EA1291
:102580001FEE22C3ED9FFFEC9EFE120016D3EF94C8
:1025900001EE6480948022FFFE12E2467F057E00F9
:1025A0001259167F0812B9787B017A8179DE22C32D
:1025B000ED9FFFEC9EFE120016D3EF227F0812B9AA
:1025C000787B017A8179DC229FFFE09EFE12001663
:1025D000D3EF9405EE648094802290A0CCEFF0902D
:1025E000A37BF012E3FF500302278B12E14E12E2AD
:1025F0006A9081A7E090A0CEF0E49081A7F07F0AD6
:10260000FE12D32890A0CEE09081A7F07F0112DFC8
:102610009F12E039908B57E054F3F090A0CCE01279
:10262000646D264711264E12265613265F2126700A
:1026300031267932268233268B41269C5126A5618C
:1026400026AD71000026DA12B793F00226DA12B72F
:102650009304F00226DA12278C7402F00226DA12B2
:10266000B7EA7442F0740212B7B77403F00226DAC4
:1026700012B7937404F00226DA12B7937405F002CD
:1026800026DA12278C7406F00226DA12B7EA7442B0
:10269000F0740112B7B77407F00226DA1227CC746F
:1026A00008F00226DA1227CC7409F0802D12B7EF59
:1026B000744AF090F0567401F0E49080D7F0908066
:1026C000D87402F09080D1E054BFF0E49080D9F04B
:1026D0009081E70412B7D1740AF07F0FE4FEEEC3D5
:1026E0009F503CEE75F003A424F3F582E4340CF51E
:1026F00083E493FB740193FA740293F990A0CDE004
:1027000075F00FA42420F582E4340DF583E5822EC4
:10271000F582E43583F583E4931260670E80BF7F12
:10272000507E0012D32890A0CCE06421700512E402
:102730000B400D90A0CCE06441701412E40E500FD9
:102740001268E9500A7F147E0012D3281268EE90B6
:10275000A0CCE064719081A870197428F0908B1956
:10276000E04404F09090D1E04404F09083FBE04416
:1027700080F0227424F0908B19E054FBF09090D1FB
:10278000E054FBF09083FBE0547FF0229081EAE07C
:102790004420F09081997442F0908B57E04408F007
:1027A000908021E04440F07F027E0012D328908088
:1027B00021E054BFF09086B5E054BFF09086B2E0BF
:1027C000547FF0E4908AEFF090A0CD229081EAE06F
:1027D0004420F09081997442F0908B57E04408F0C7
:1027E000908021E04440F07F027E0012D328908048
:1027F00021E054BFF09086B5E054BFF09086B2E07F
:10280000547FF0E4908AEFF090A0CD2212E3AB90D9
:10281000A0DDEFF012E3B190A0DEEFF012E3B7908D
:10282000A0DFEFF09080FA74F8F012234C129CE5D0
:1028300090A0EA12237CE490A0D7F090A0D7E0FF0C
:10284000C39403748094804003022A01EF12216331
:10285000122204125FFF90A0D6F090A0D6E0FDD324
:10286000940774809480500302290F12215A122277
:1028700004ED122A0312222612000E5004D21E80EA
:10288000149080F8E054807004D20F8008129BFBF3
:1028900012218840E0200F02D21E301E0302296858
:1028A000E490A0D5F090A0E61263D700000000E409
:1028B00090A0D4F090A0D41221F95045EF12233605
:1028C000129CE5E4FCFD1221DA90A0E212212A78A4
:1028D0000812638C1221DA9080FBE090A0D9F012EC
:1028E000214B1221C57F03122136D31263544008B5
:1028F00090A0D574FFF0800990A0D4E004F00228E5
:10290000B490A0D5E07008A3E024F8F002285A9013
:10291000A0D6E07005D21E022968E490A0D8F090FD
:10292000A0D8E0FDC394107480948040030229CFA6
:1029300012215A90A0D6E0C39D122203EF122A035F
:1029400012222612000E5004D21E80149080F8E04D
:1029500054807004D20F8008129BFB12218840E043
:10296000200F02D21E301E1A90A0DDE0FF12E38776
:1029700090A0DEE0FF12E38D90A0DFE0FF12E39372
:10298000C322E490A0D5F090A0E61263D700000027
:10299000007407122336129CE5E4FCFD1221DA9044
:1029A000A0E212212A780812638C1221DA9080FBAF
:1029B000E090A0D9F012214B1221C57F0A122136D6
:1029C000D3126354500990A0D8E004F002291F905C
:1029D000A0D7E075F003A40490A0D4F090A0D8E0B4
:1029E000FF90A0D6E0C39F90A0D512216B90A0D5F8
:1029F000E0122203EF12606790A0D7E004F00228F3
:102A00003BD32212606790A0D7E0F40475F008A4CD
:102A1000249090A0D4F09080F8F0C20F129BFB900D
:102A2000A0E0EEF0A3EFF02290A0CCEFF0A3EDF049
:102A3000E490A0D9F012B59B7F007E1B7D377C4BC4
:102A400012B5D67E0412B5B6C3126354400B90A0E3
:102A5000D6740AF0A3740480147E0112B5B6C312B2
:102A6000635490A0D6400C7408F0A37401F0A3E462
:102A7000F0800A7404F0A3E4F0A37410F090A0D7DF
:102A8000E0FCA3E0FDE4125C9D12B5AD7F007E1B6F
:102A90007D377C4B125B82C004C005C006C00712A4
:102AA000B59BD007D006D005D00412B5D690A0D6DD
:102AB000E0C3940F74809480501DE47FFF7E031266
:102AC000B5B81263544010780112B5F512B5E5900F
:102AD000A0D6E004F080D690A0CCE024FE600F14D5
:102AE00060111460132403701B908449800D90843E
:102AF0004F8008908455800390845BE054C090A080
:102B0000D9F08006E490A0D9F022780412B5F5EF50
:102B10005430FFAB0790A0D2A3A3A3E0FCA3E0FE38
:102B200090A0D9E04E4BF090A0CCE024FE601914A8
:102B300060251460312403703A90A0D9E090844954
:102B4000F090844AECF0802B90A0D9E090844FF074
:102B5000908450ECF0801C90A0D9E0908455F090C7
:102B60008456ECF0800D90A0D9E090845BF09084C6
:102B70005CECF090A0CDE024FEB412004003022CE7
:102B800039902B8F75F003A4C58325F0C58373029C
:102B90002BC5022BC7022BCC022BCE022BD3022B30
:102BA000D5022BE2022BE7022BEC022BF1022BF6D3
:102BB000022BFB022C08022C0D022C1F022C1A02E5
:102BC0002C24022C1A8020908C84805B801E908C98
:102BD00083802B801C908C84E0543FF0E04480F094
:102BE0008057908C808017908C828024908C83807A
:102BF0001F908C82803B908C818015908C82E05459
:102C0000FCF0E04401F08031908C81801A908C803F
:102C1000E0543FF0E04440F0801F908C80801290A0
:102C20008C808003908C80E054CFF0E04410F080E2
:102C300008E054F3F0E04404F0E490A0CDF02290DA
:102C4000A0CFEFF090A0D91263D70000000090A0B1
:102C5000DD1263D70000000090A0E11263D70000EE
:102C6000000090A0E91263D7FFFFFFFF9080D9E03A
:102C7000543F90A0D0F01222F290A0D17401F090B5
:102C8000A0CFE0FF90A0D1E0C39F4003022E281206
:102C900022105007E0FF04F01268A3E490A0D4F0E3
:102CA000129BFB90A0EDEEF0A3EFF0122226120093
:102CB0000E5002801D122364700790A0D404F0808F
:102CC0000B129BFB90A0ED12218B40DF90A0D4E073
:102CD0007004D21EC32290A0D1E0FF90A0D0E02FBC
:102CE000122E321222F27B017A817915129CE5E4D0
:102CF000FCFD1222C790A0E512212A781012638CE5
:102D00001222C790A0E512214EC000C001C002C02F
:102D1000037B017A817913129CE5E4FCFDD003D09A
:102D200002D001D00090A0E512222D90A0D4E01492
:102D3000543F90A0D3F090A0D912212AA31263CBC4
:102D400090A0D512212AA31263CB90A0E512212ACC
:102D500090A0D51263CB90A0D912212A78011263DA
:102D600065C004C005C006C00790A0D512212A780E
:102D700002126365D003D002D001D000EF2BFFEE2A
:102D80003AFEED39FDEC38FCC004C005C006C007B2
:102D900090A0DD12212A7802126365D003D002D000
:102DA00001D000EB2FFFEA3EFEE93DFDE83CFC12BE
:102DB00022C790A0D1E0C394047480948050030291
:102DC0002E1390A0E112212AA312214ED312635494
:102DD00090A0E1E0400812214F12230B800912213C
:102DE0002BA312214EC3EF90A0E112226690A0E91E
:102DF00012212A90A0E112214EC312635450149064
:102E0000A0D3E090A0D2F090A0E112212A90A0E9F6
:102E10001263CB90A0E512212A90A0E11263CB901F
:102E2000A0D1E004F0022C7F90A0D2E014122E3248
:102E3000D322543FFF90A0D4F012DAC62212E3BD91
:102E400090A0DFEFF012E3C390A0E0EFF012E3C92F
:102E500090A0E1EFF0E490A0DCF0A3F0A3F0FF126B
:102E6000E399E4FF12E39FE4FF12E3A59081BE1211
:102E700022BC70079081BD74808004E49081BDF015
:102E80009081BFF09081BB7480F09081BC7403F09E
:102E90001222CDE490A0D6F0A3F0A3F0A3F0A3F00B
:102EA000A3F0129BFB90A0D4EEF0A3EFF012222629
:102EB0007F027E0012D32812000E50061222CD028D
:102EC0002FC712E3BD90A0E3EFF090A0DC12300C0E
:102ED00040031222CD90A0E3E090A0DCF012E3C307
:102EE00090A0E3EFF090A0DD12300C40031222CD51
:102EF00090A0E3E090A0DDF012E3C990A0E3EFF032
:102F000090A0DEE0C39FFFE49400FE120016D3EF12
:102F10009403EE6480948040031222CD90A0E3E0FD
:102F200090A0DEF090A0E2E0640A90A0DC7020E0C7
:102F300090A0D612236B90A0DDE090A0D812236B56
:102F400090A0DEE0FF90A0DAE4F0A3EFF08033E0A1
:102F5000FF90A0D7E02FF090A0D6E03400F090A032
:102F6000DDE0FF90A0D9E02FF090A0D8E03400F091
:102F700090A0DEE0FF90A0DBE02FF090A0DAE0343C
:102F800000F090A0E2E014F0702190A0D612225A36
:102F900090A0DCEFF090A0D812225A90A0DDEFF0C4
:102FA00090A0DA12225A90A0DEEFF090A0E2E0604A
:102FB00016129BFB90A0D412227CFEC3EF942CEE41
:102FC00094015003022EADE49081BBF09081BCF0DF
:102FD00090A0E2E0601A90A0DFE0FF12E39990A0D9
:102FE000E0E0FF12E39F90A0E1E0FF12E3A5C3221F
:102FF0001222BE90A0DC7006E01230218008E0248E
:10300000041230212404FF12E3A5D322E0C39FFF62
:10301000E49400FE120016D3EF9403EE64809480D3
:1030200022FF12E39990A0DDE02404FF12E39F90B9
:10303000A0DEE02212AF2890A0D8EFF06421600853
:10304000EF64416003023129908744E0546090A30B
:10305000CDF012B782700B12B727E412B71FF0023F
:1030600030D1ED640F4C702012DBBA5005129DC1B7
:10307000804B12B727908734E054026005129DC13F
:10308000800312DA84E4804990811BE04420F090B0
:10309000A3CCE0FD12B7167419F0ED12646D30BDCB
:1030A0000030BD0230BD0330BD0530BD0630BD0867
:1030B00030BD0A30BD0B30BD0D000030D090864BC6
:1030C0007480F0E490864CF090864D7480F0800D12
:1030D000E490864BF090864CF090864DF0908734CB
:1030E000E05402603C90A3CDE0B42007908055E00E
:1030F0004420F0908748E0540FFF908608E0540F7A
:10310000FEEFFD7C0064017006EE4450FE800AED87
:1031100064034C7004EE44F0FEAF06908608EEF0B7
:1031200022908608E0540FF02290A0D8E0FF64516E
:103130006008EF6461600302320F7B017A807936A8
:10314000129CE590A0D9EEF0A3EFF07B017A807994
:1031500032129CE590A0DBEEF0A3EFF090A0D9E056
:10316000FEA3E0FFBE070FBF800CA3E06404700461
:10317000A3E064386014E4B50718EEB4051490A019
:10318000DBE0B4020DA3E0B4D0089080217424F0F9
:1031900080069080217401F07F147E0012D32812E3
:1031A000B782700912B727E412B71FF022ED640F3F
:1031B0004C704E12B7279080537419F0E4908055EC
:1031C000F0908054F090A0D9E0FEA3E0FFBE070F7E
:1031D000BF800CA3E064047004A3E064386014E4CE
:1031E000B50717EEB4051390A0DBE0B4020CA3E022
:1031F000B4D0079086017431F0229086017401F0FA
:103200002212B72790A3CCE012B7167419F02290BF
:10321000A0D8E06471700302AFBB12B72712DA8442
:103220002212AF2890A3B474FFF0EFFD6421600870
:10323000ED644160030233A1908196E04480F0E0A8
:1032400054F3F09086B5E04440F012D56C4006127D
:10325000CADF40182212CC8040129086B5E054BFDD
:10326000F0E49086B0F07F32FE02339E908196E0CB
:103270004404F012CF6490A3B4F0E024F070030291
:10328000338224D06007244060030233A1908196EA
:10329000E0547FF01233A230E00312CF5812CF2F48
:1032A000129D5D90A0D2E0FAA3E0FBFF9086D4F0DF
:1032B0009086DCEFF090A0CEE0FEA3E0FFC390A0EC
:1032C000CDE09FFF90A0CCE09EFE7C007D031260CD
:1032D0009B90A0CEE0FCA3E0FDC39FFFEC9EFEEF21
:1032E0007802CEC313CE13D8F9FF90A0D0EEF0A38E
:1032F000EFF090A0D0E0FEA3E07802C333CE33CE4F
:10330000D8F9FFC3ED9FFFEC9ECFC39BCF9AC313A9
:10331000FEEF13FF90A0D2EEF0A3EFF09086DBF06B
:103320007B017A8679D590A0D0E0FCA3E0FD129DC8
:103330005D7B017A8679D790A0D1E025E0FF90A04F
:10334000D0E033FE9086DBE07C002FFDEC3EFC12EB
:103350009D5D90A0D0E0FEA3E0FF7C007D031260A5
:103360009B9086DBE02FFFEC3EFE9086DCE02FFD9D
:10337000EC3EFC7B017A8679D9129D5D7F327E001E
:10338000801C1233A230E00312CF5812CF2F129DAF
:103390005D90A0D2A3E09086D4F07F327E0012D35D
:1033A000282212DD0B90A0CCEEF0A3EFF012E27C0D
:1033B00090A0CEEEF0A3EFF090A0CEE0FEA3E0FF51
:1033C000C390A0CDE09FFD90A0CCE09E90A0D2F055
:1033D000A3EDF0C3EF9DFFEF2212E3AB90A0D9EF76
:1033E000F012E3B190A0DAEFF012E3B790A0DBEFB8
:1033F000F012E3AB90A0D6EFF012E3B190A0D7EFBC
:10340000F012E3B790A0D8EFF0E490A0D5F090A030
:10341000D5E0C3948074809480400302356CE490BE
:10342000A0D4F0129BFB90A0DCEEF0A3EFF0908113
:1034300006746EF012222612000E5004D21E80175F
:10344000122364700790A0D404F0800B129BFB90B1
:10345000A0DC12218B40DD90A0D4E07002D21E309F
:103460001E05123573C322E490A0D4F0908113E0BE
:1034700090A0D61221A9FFE43EAD071222FC500312
:1034800002356C122323500AE0FF1221FC40031284
:1034900021E01221EF401290A0D6E01221F1500954
:1034A000EB2408FFE02F1221E7908114E090A0D7D1
:1034B0001221A91222F9500302356C122323500A5B
:1034C000E0FF1221FC40031221E01221EF40129094
:1034D000A0D7E01221F15009EB2408FFE02F1221C0
:1034E000E7908115E0FB90A0D81221AA1222F940A2
:1034F0007B122323500AE0FF1221FC40031221E03B
:103500001221EF401490A0D8E01221F1500BAF032C
:10351000EB2408FFE02F1221E790A0D4E0702C905C
:10352000A0D6E0FF7E001221FB4041D3EF1221F133
:10353000503A1221F84035D3EF1221F1502E1221CA
:10354000F84029D3EF1221F150222290A0D6E0FFBB
:1035500012E38790A0D7E0FF12E38D90A0D8E0FFA0
:1035600012E39390A0D5E004F002340E123573D22A
:103570001EC32290A0D9E0FF12E38790A0DAE0FFFB
:1035800012E38D90A0DBE0FF12E3932212234C1292
:103590009CE590A0D712219F7A807936129CE59005
:1035A000A0D9122274124C87E4908106F090A0DB1F
:1035B0007430F090A0DBE0FFC394A074809480404E
:1035C00003023641908107EFF0E490A0DCF090A078
:1035D000DCE0C3940574809480505412D05A504259
:1035E0007B017A81790C129CE590A0D112219F7AFF
:1035F000817910129CE590A0CF122274D390A0D2B2
:10360000E0940090A0D1E094014013D390A0D0E0CA
:10361000940090A0CFE094014004D20F8006C20F26
:103620008002C322300F0890A0DCE004F0809F905D
:10363000A0DCE06405600A90A0DBE02410F0023515
:10364000B390A0DBE0D394A0748094804001221258
:10365000D05A50457B017A81790C129CE5EE5407D3
:1036600090A0D51221A27A817910129CE590A0D366
:1036700012230390A0CF12225390A0D4E090A0D3A5
:10368000123704504B90A0D112225390A0D6E09054
:10369000A0D512370440048037C3227B017A817998
:1036A0000E129CE5EE540F90A0CF1221A27A8179E0
:1036B00008129CE5EE540790A0D1F0A3EFF090A083
:1036C000CFE0FEA3E090A0D31222A412BD75500754
:1036D000D21F123716C32290A0CFE0FEA3E0FF1244
:1036E000DFFC90A0D1E0FEA3E0FF90A0D5E0FCA31A
:1036F000E0FD12C9BC400B90A0D1E0FEA3E0FF1298
:103700005916D3229FFFE09EFE120016D3EF9405B8
:10371000EE648094802212234C129CE5EE540790B4
:10372000A0E51221A27A807936129CE5EE540F9022
:10373000A0E71221A27A80792E129CE5EE54079020
:10374000A0E91221A27A807934129CE5EE540F9000
:10375000A0EB1221A27A81790C129CE5EE5407901D
:10376000A0E31221A27A817910129CE5EE540F9009
:10377000A0E11221A27A817908129CE5EE5407900B
:10378000A0DF1221A27A81790E129CE590A0DD12B1
:10379000230390A0E512225390A0E4E09F90A0E3C1
:1037A000E09E504512ACCC90A0DF12221C503A9003
:1037B000A0E9122353402390A0E4E090A0E312225A
:1037C0008890A0E512221C50201222D490A0EAE09A
:1037D0002FF090A0E9E03EF0800F90A0DFE0FFA383
:1037E000E090A0E9CFF0A3EFF090A0E71222539071
:1037F000A0E2E09F90A0E1E09E504512E37B90A004
:10380000DD12221C503A90A0EB122353402390A0CB
:10381000E2E090A0E112228890A0E712221C502042
:103820001222D490A0ECE02FF090A0EBE03EF080CC
:103830000F90A0DDE0FFA3E090A0EBCFF0A3EFF0AE
:1038400090A024E0FEA3E0FF90A0EB12221C500207
:10385000800F90A026E0FEA3E0FFD3ED9FEC9E40FA
:103860000890A0EBEEF0A3EFF090A0EBE0FEA3E059
:10387000FF12DFFC90A0E9E0FEA3E0FF1259161250
:10388000E22290A015EEF0A3EFF012E22B90A01729
:10389000EEF0A3EFF02290A0CAE4F0A304F0E490CD
:1038A000A0C8F0A3F090A0CAE0FEA3E0FF90A0C8DB
:1038B000E0FCA3E0FDC39FEC9E4003023A0CED1236
:1038C000D194FFECC454F048FE743E2FF582749DF1
:1038D0003EF583E493FE740193FF90A02DE0FCA3DA
:1038E000E0FDEF6D7002EE6C600BEFF47002EEF431
:1038F00060030239F812D178FE74402FF582749D6E
:1039000012D19B129E8E12D178FE74412FF58274D3
:103910009D12D19B12DECB90A0C9E012D194FD1272
:10392000D183FC74422DF582749D12D1A274432D73
:10393000F582749D12D1A912D38D12D178FE7444F0
:103940002FF582749D12D19B12DDAB12D178FE74DB
:10395000452FF582749D12D19B12E34212D178FE5D
:1039600074462FF582749D12D19B12E34912D178CF
:10397000FE74472FF582749D12D19B12E26112D121
:103980008CFDEAC454F048FC74482DF582749D12F5
:10399000D1A2C00774492DF582749D12D1A9EB12F2
:1039A000D194FFEAC454F048FE744A2FF582749D06
:1039B0003EF583E493FBD00712C97112D18CFDEA66
:1039C000C454F048FC744B2DF582749D12D1A2C0F2
:1039D00007744C2DF582749D12D1A9EB12D194FF7E
:1039E000EAC454F048FE744D2FF582749D3EF58371
:1039F000E493FBD00702BEA990A0C9E004F06003E5
:103A00000238A590A0C8E004F00238A5221222EBEB
:103A1000129CE590A0D6EEF0A3EFF012229B90A0AE
:103A2000D2EEF0A3EFF0A3EEF0A3EFF090A0D81247
:103A300063D70000000090A0E01263D7FFFFFFFFF4
:103A400090A0D7E024FEF090A0D6E034FFF0E49000
:103A5000A0CFF090A0CFE0C3940474809480507203
:103A600012229B129F541245F090A0DC1263CB30BF
:103A70001E02C32212212790A0D812214EC3126326
:103A800054501590A0D6E0FFA3E090A0D2CFF0A3B1
:103A9000EFF012212712223C122127A312214ED32C
:103AA0001263544016122127A31263CB90A0D6E0D4
:103AB000FFA3E090A0D4CFF0A3EFF090A0D7E00454
:103AC000F0700690A0D6E004F090A0CFE004F002E1
:103AD0003A5390A0D2E0FEA3E0FF90A0D6EEF0A370
:103AE000EFF090A0D412227CFE120016EF64014E7B
:103AF000600A90A0D6E0F0A3E054FEF012229B12E0
:103B00009F5412229B90A0D2E06E7003A3E06F60DE
:103B1000091245F012212112223C12235D129CE56C
:103B200090A0D2EE1221A27A807932129CE590A068
:103B3000D4EEF0A3EFF090A0D2E0FEA3E0A3122217
:103B4000A4126499E47B40FAF9F81262131221215D
:103B500090A0D812214EC3126354500E90A0D0E012
:103B600024181223727420F0800C90A0D1E024F865
:103B70001223727410F090A0CFE0FF12DAC6D322A5
:103B800090A0E7EBF0A3EAF0E91220507803CEC34F
:103B900013CE13D8F97803C333CE33CED8F9240823
:103BA000FFE43EFE121F2890000412206C12639F57
:103BB000E4125C98E4FBFA79C87842125B82C00494
:103BC000C005C006C007121F289000041220A612CC
:103BD0001EAAD007D006D005D004125B82C004C054
:103BE00005C006C00790A0E7121F2B1220A3E41205
:103BF0005C9DD003D002D001D000125A79C004C01D
:103C000005C006C00790A37E121EA5D007D006D01F
:103C100005D00412205A121F2812206990A0E71222
:103C20001F2B90000612618FFFAEF0121F2812208A
:103C3000A3126499780412638CC006C00790A0E7B1
:103C4000121F2B90000A12201DD007D00612629E70
:103C5000EF2408FFE43EFEE43DFDE43CFC78041262
:103C60006365121F2890000612206C9000061261F6
:103C70008FFFD390A060E09F90A05FE095F040316F
:103C800090A0E7121F2B90000A12618FFFAEF090F8
:103C9000A05FE0FCA3E0FD126499C006C00790009D
:103CA0000612201DD007D00612629E121F28122075
:103CB0006912E069501F90A0EAE0FBA3E0FAA3E0DC
:103CC000240AF9E43AFA126164FFE5F012209CEE4E
:103CD0008FF01261C7121F2812639F90A3290263FD
:103CE000CB90A376E06407600312B88A90A376E0D5
:103CF00024FE604C147003023D83147003023E2EB8
:103D0000147003023DCF147003023E382405600393
:103D1000023E3B90A2F5E0FF24FB601E14600A14F3
:103D2000601824066003023E3B12D71DEFF0129B81
:103D3000FB12D70912DB9E023E3B1251B0023E3B02
:103D400012D7126003023DE990A2F5E024FA700355
:103D5000023E3B240424FA5003023E3B129BFB909C
:103D6000A373E0FCA3E0FDC3EF9DFFEE9CFED3EF49
:103D70009464EE94005003023E3B90A3767403F0EB
:103D8000023E3B90A372E054016003023E3B12CA24
:103D90004F90A2F5E014602824FB500860221460C4
:103DA00026023E3B12139612C15F5002800A12B3E4
:103DB00089500512C839800F90A2F57407F080076A
:103DC000740212D6FD803A90A3767405F0806C9050
:103DD000A2F5E0FF24FE24FD5012601214600714C7
:103DE00060412406705512D71DEF8015802512DE24
:103DF0007612E19B1251B012E3F3500E90A3767449
:103E000002F0129BFB12D709803112E045E433FF28
:103E100012DF9F90A3767401F0E4FF12BA6212E3FE
:103E20003480181251B090A3767401F0800D12D72F
:103E300012600812C8D6800312DF1B02D7F5202BB0
:103E400003023F88C22B90A3D8E012A7B0400374AE
:103E500005F090A3D8E0FF7E00700B741812A755F0
:103E6000F0A3F0023ED3EF64014E7009740812A76C
:103E7000557418805AEF64024E7009742012A779A5
:103E80007408804BEF64034E7009741012A77974A4
:103E900020803CEF64044E7009742812A7897410C6
:103EA000802DEF64054E7009743012A78974288044
:103EB0001EEF64064E700E90A0C97438F0A3E4F0B3
:103EC000A37430800AE490A0C9F0A3F0A37438F082
:103ED000A3E4F0EF64054E700690A0C9F0A3F012C1
:103EE000A78290A0C9E0FEA3E0FF12D01F90A0C956
:103EF000E0540FFEA3E04E7008123F89E4FD1290DB
:103F00007AE490A0CDF0A3F0C390A0CDE094085047
:103F10003312A782123F8990A0CDE0FCA3E0FD2FD1
:103F2000FFEC3EFEE42DFDEC34A8FCE490A0D4F0C0
:103F3000FB1283DA90A0CEE02400F090A0CDE03414
:103F400001F080C4129C3890A0CAE090A0C912A7CA
:103F5000CE7D55128DAA90A0CBE0FEA3E0FF12D03B
:103F60001F129C3890A0CCE090A0CB12A7CEFD12DF
:103F70008DAA90A3D8E0FF04F0C3EF12A7B14002CE
:103F8000E4F012D86B12A78222129C3890A0C9E0EC
:103F9000FEA3E0FF2212566412E3FF501E12D0CEA1
:103FA000501612AF28EF6471700B90F0D2E05410ED
:103FB00070037F01227F08227F012212AF2890A088
:103FC000CAEFF012646D3FEB11402C1240451340D4
:103FD0008521400531402C324045334085414045E4
:103FE00051404561406271000040C61255F76418A7
:103FF000700280181255F7643860030240C91255E8
:104000008C7F1280221255F76418700C12558C9018
:10401000A0CB7402F00240C91255F7643860030265
:1040200040C912558C7F321225DA801090819AE0B7
:1040300054E8642860030240C912558C90A0CB74E8
:1040400003F00240C990819AE054E06420707A1233
:104050004B7B500C12558C90A0CB7404F00240C9DD
:1040600080641268D050629090F2E05440605A121E
:104070006920D3EF940CEE9400404E90819AE05466
:10408000C07046803690A0CAE0FF12CE7A121B6143
:1040900012566B6034E4FF12B40F7F0112DF9F7F72
:1040A0000112DEEB12BC2A50207F0112B40F12BAAB
:1040B000D61232211255F76418700E12558C90A04A
:1040C000CB7405F0800312566412C3E7EFF470025C
:1040D000EEF4600912BF74BEFF06BFFF0312566400
:1040E000E4FF12BDDC90A0CBE0FF22C2101255FE0F
:1040F0006026E04480F0908B62E04404F0E04401EC
:10410000F0E4908B61F0908B62E05407F0E054FD96
:10411000F0908101E0547FF0908B57E090A0CDF0BB
:10412000908B46E090A0CCF0908333E090A0D0F04C
:10413000908335E090A0D1F0908336E090A0D2F04B
:10414000908101E090A0CFF0908102E090A0CEF0AD
:10415000908302E090A0D3F0908B5774E3F09083AB
:1041600033749FF09083367458F09083357430F038
:104170007420F0908101E054D7F0908102E0442255
:10418000F0E4908641F0908B46E054E7F090F050D8
:10419000E04480F090A37BE0FF7E006421700490F7
:1041A0008302F0EF64414E7004908302F07F327E10
:1041B0000012D3281255F764187004D2108002C27E
:1041C0001090A0D0E0908333F090A0D1E0908335A0
:1041D000F090A0D2E0908336F090A0CEE0908102E3
:1041E000F090A0CFE0908101F090A0D3E090830206
:1041F000F01255FE600790F050E0547FF090A0CC94
:10420000E0908B46F090A0CDE0908B57F0C2111259
:1042100068D51255FE6006908B61743FF01255FE12
:104220006013908B62E044F8F0E04402F0E054FB4D
:10423000F0E054FEF0A21022125672908024748096
:10424000F090801274C0F09081EAE04440F09080D9
:104250000A7408F090F0A8747FF0740FF07F147E59
:104260000012D328E490F0A8F09081EAE054BFF067
:1042700090800A7401F090801274811255E190A32D
:104280007BE0FF64116005EF6412706A90F0A91280
:104290005624500890F0AA12564C405A90F0A87438
:1042A0008FF07F147E0012D32890A37BE0641170FE
:1042B0001790F0ADE0D312564D400DE01256265047
:1042C0000712D6D27F11802390A37BE06412702660
:1042D00012567212E0FA741012436354E8642870A4
:1042E0000F124379400A12D6D27F121225DAD32256
:1042F00012E1051255E290A37BE0FF64136005EF25
:104300006451705D90F0AB125624500890F0AC12DE
:10431000564C404D12567290801274C0F090800A34
:10432000E04408F0741812436354E06420702312D0
:104330004B7B501E124379401990A37BE06451706F
:104340000712D6D27F51800512D6D27F131225DAFA
:10435000D3229080127481F090800AE054F71255B5
:10436000E1C322908000F09081967461F07F327EEC
:104370000012D32890819AE02212ACCCD3EF94643F
:10438000EE94002290A034E0FEA3E0FF7C007D3C90
:1043900012649990A03312A75E12A7C012629E12F7
:1043A000A792E490A0D0F0A3F090A0D012A7C79459
:1043B000FFEE940F5026E42FFFEE3430FE7B017A9F
:1043C000A079D212993990A0D2E0701090A0D1E0DB
:1043D00004F070D590A0D0E004F080CD90A0CC1275
:1043E000A7A4C000C001C002C003A3E0FEA3E07800
:1043F00003C333CE33CED8F9FFE4FCFDD003D002A3
:10440000D001D000EB2FFFEA3E12A77112A79290C5
:10441000A0D2E0F9FB7A0064FE700B90A0CC12A74A
:10442000392401024487EB64FC4A700A90A0CC1244
:10443000A73924028051E9FB7A0064F8700A90A041
:10444000CC12A7392403803FEB64F04A700A90A095
:10445000CC12A7392404802FE9FB7A0064E0700AAB
:1044600090A0CC12A7392405801DEB64C04A700AC5
:1044700090A0CC12A7392406800DE96480701590B5
:10448000A0CC12A7392407FFE43EFEE43DFDE43C46
:10449000FC12A79290A0CC12A73912A7BF126213E8
:1044A00012A79212A730FF12629E90A031EEF0A3E5
:1044B000EFF012A730FF12629E90A030EBF02212B4
:1044C000235D129CE590A0D0EEF0EF12232B25E0A7
:1044D000FEEC33A3F0A3CEF07B017A817917129D15
:1044E0005D1222EB129CE590A0D4EEF0A3EFF01247
:1044F00022E290A0D8EEF0EF12232BD3EF9DEE9C9A
:104500005011ED2410FFE43CFE90A0D4F0A3EFF096
:10451000129F54E490A0CFF090A0CFE0C3942074F9
:1045200080948040030245D4124C8712D05A400335
:104530000245C67B017A817910129CE5EE540F90FA
:10454000A0D6F0A3EFF0908119E0FF54C0C413137C
:104550005403FEEF543FFFEE607A64017026EFFDD6
:1045600090A0D5E02DF090A0D4E03400F090A0D23F
:10457000E0FCA3E0FDD390A0D5E09D90A0D4E09C0A
:1045800040028032EED3940174809480402090A049
:10459000D5E09FFF90A0D4E09400FEF0A3EFF0D30D
:1045A00090A0D1E09F90A0D0E09E4002800812220F
:1045B000E212D81D500890A0CF74FFF0801612228E
:1045C000E2129F5480051245E4C32290A0CFE0047C
:1045D000F002451890A0CFE0F470071245E4D21F16
:1045E000C322D32290A0D8E0FEA3E0FF129F542262
:1045F00090A0EC1263D70000000090A0E81263D7EF
:10460000FFFFFFFFE490A0F2F0FF12DAC61222F2E1
:1046100090A0F27404F090A0F2E0C39442748094ED
:104620008040030247071222105007E0FF04F012F7
:1046300068A3C20F129BFB90A0F0EEF0A3EFF01264
:10464000222612000E500280171223647004D20F2B
:10465000800B129BFB90A0F012218B40E2200F08F0
:10466000D21EE4FFFEFDFC2290A0F2E0FF12DAC6AB
:104670001222F27B017A817915129CE590A0E41256
:10468000237C90A0E412212A781012638C90A0E47D
:104690001263CB90A0E412214EC000C001C002C042
:1046A000037B017A817913129CE5E4FCFDD003D0F1
:1046B00002D001D00090A0E412222D90A0E8122197
:1046C0002A90A0E412214EC3126354500E90A0E42D
:1046D00012212AA312231790A39AF090A0EC122182
:1046E0002A90A0E412214ED3126354401090A0E40B
:1046F00012212A90A0EC12231790A3A1F090A0F20F
:10470000E02404F002461690A0E812214E12230B7A
:10471000C390A0E412226690A0E412212A2290A065
:10472000CDEEF0A3EFF0D394FFEE9403400C7F0A9C
:1047300012E1627F007E4002481590871AE0542003
:1047400070030248187B017A8879A0129CE590A03A
:10475000CFEEF0A3EFF090A0CD7CFF7DFE12C797C7
:10476000EF2401FFE43E90A0D1F0A3EFF07F0A1206
:10477000E16290A0D1E0FAA3E0FBD39400EA946058
:1047800090871DE0400554EFF080034410F090A0A6
:10479000CFE0FEA3E0FFD39BEE9A403490A0D3EE8F
:1047A000F0A3EFF012C7A9D39DEE9C406012483CE5
:1047B00090A0D112C7DB90A0D4E090A0D312C7BFC5
:1047C000404BA3E024F8F090A0D3E034FFF080D475
:1047D00090A0CFE0FFA3E090A0D3CFF0A3EFF01222
:1047E000C7A9C39DEE9C502512483C90A0D312C788
:1047F000DB90A0D2E090A0D112C7BF401090A0D40F
:10480000E02408F090A0D3E03400F080D290A0D152
:10481000E0FEA3E0FF02D94E90A0CD12C7DB74FFEB
:104820009FF074039E90A0CDF07C007DC612C797C8
:1048300090A0CDEEF0A3EFF012E1622290F00A74A6
:1048400055F012D94E2290A0D4EEF0A3EFF012E072
:1048500021500302495A90A0D4E0FFA3E090A32383
:10486000CFF0A3EFF07B017A817966129CE590A0EE
:10487000D6EEF0A3EFF090A0D412207294E8EE945C
:1048800003502090A049E0FDA3E090A0D8CDF0A374
:10489000EDF090A0D6E0FDA3E090A0DACDF0A3ED7E
:1048A000F08064122047126499EF24F4FFEE340183
:1048B000FEE43DFDE43CFCE47BE87A03F9F8126297
:1048C0009E90A0D8EEF0A3EFF054FEFF90A0D8EE9B
:1048D000F0A3EFF0121FADC39FEC9E500890A0D83C
:1048E000ECF0A3EDF090A0D812207290A04AE090D6
:1048F000A04912209890A0D7E02FFF90A0D6E03ECC
:1049000090A0DAF0A3EFF07B017A817973129CE535
:1049100090A0DAE0B5061AA3E0B507157B017A810D
:104920007975129CE590A0D8E06E7003A3E06F60EB
:104930002912A48312E3E590A0DA1220FEFCA3E082
:10494000FD129D5D90A0D8121F5B129D5D7F507E71
:104950000012D32812A48312E3E922AB0775F01DDD
:10496000EB1258281257A090A00D12578D1257988D
:1049700090A00F12578D2436F582E5F034001257BF
:10498000A090A01112578D2438F582E5F034001262
:1049900057A090A01312578D242EF582E5F0340015
:1049A00012577290A009EE12578E243AF582E5F064
:1049B00034001257F490A015CDF0ED125790243C1E
:1049C000F582E5F034001257F490A017CDF0A3ED76
:1049D000F090A01AEE12578E243AF582E5F03400DA
:1049E0001257A090A01C12578D243CF582E5F0349C
:1049F000001257A090A01ECFF0A3EFF090A0197462
:104A000020F090A02C74011257911257AE1257A0AB
:104A100090A02D12578D1257DAF9604E75F01DEBEC
:104A2000A41257DA90A0111257B790A01112583261
:104A300090A0091257BB90A009EE12578E1257DAB8
:104A400090A0151257B790A01512583290A01A12C4
:104A500057BB90A01AEEF0A3EFF0E9FF7E00A3127F
:104A600057BB90A01CEEF0A3EFF02290A0D8EBF083
:104A7000A3EAF0A3E9F0C21090A0DC7410F0E49077
:104A8000A0DBF090A0DC12A42590A0DB12A4335090
:104A90003112A467A3EEF0A3EFF0EC12A47912E3B5
:104AA000F090A0D812A3FC12A45F90A0EDE0B5F0A6
:104AB00009A3E0B50704D210800890A0DBE004F061
:104AC00080C190A0D812A3FC90000712618F90A023
:104AD000DF12A3E890001312618F90A0E112A3E807
:104AE00090001512618FFF90A0E312A3E9900018C7
:104AF00012618FFF90A0E512A3E990001A12618F56
:104B0000FF90A0E712A3E990001C12618FFF90A014
:104B1000E912A3E990001712601890A0EBF0900042
:104B20002A12601890A0ECF012A45F90A0ED12A3DE
:104B3000E920103590A0DCE0FD90A036E0FB8DF080
:104B4000A4FF90A0DD12A3E912A427EB2401FDE449
:104B500033FCCFCDCFCECCCE1260AD90A036EDF0F1
:104B60007B017AA0792F12E0A290A0DDE0FEA3E005
:104B7000FF90A0DCE012A47902E3ED9081B212551F
:104B8000EC90A0CCE0FEA3E0FFD3940FEE94005095
:104B900004EF4E7002C3221255E912562D129CE505
:104BA00090A0CEEE1256407803CEC313CE13D8F9A0
:104BB000FF7C007D061260ADD390A0CDE09F90A059
:104BC000CCE09E40012212562D129CE51255A07B8E
:104BD000807A02F9F8D3126354500C90A0CCE0B460
:104BE0001F07A3E0B4FF02C32212565D129CE51218
:104BF00055A0FB7A02F9F8D3126354500C90A0CC64
:104C0000E0B41F07A3E0B4FF02C3221255E97B0101
:104C10007A8179B5129CE5EF2401FFE43E90A0CEA5
:104C2000125640FFC394C8EE94005002C322C3EF53
:104C3000947CEE9401501590A0CC1255B77B3D7A30
:104C40000A79717842125C1F503BC322C390A0CFF7
:104C5000E094DA90A0CEE09402501590A0CC1255CA
:104C6000B77B337A3379497842125C1F5017C322DD
:104C700090A0CC1255B77B3D7A0A79F37841125C4B
:104C80001F5002C322D322908024E0540390A0DD61
:104C9000F0E0D3940174809480400E90802A7401D7
:104CA000F0E490802BF0024D8912235D129CE59078
:104CB000A0DEEE1221A27A8079D7129CE590A0E0C6
:104CC000EE1221A27A807934129CE590A0E2EEF0F7
:104CD000A3EFF09081B1E00490A0DDF07B017A8138
:104CE000799B129CE5EE541F90A0E4F0A3EFF090A6
:104CF000A0E0122382C004C005C006C00790A0DD5A
:104D0000E0FCE4125CA2D003D002D001D000125A21
:104D100079E4FBFAF97841125A79C004C005C0065B
:104D2000C00790A0E4122382A804A905AA06AB0735
:104D3000D007D006D005D004125B82125CD6EF24D7
:104D400010FFE43EAB07FAD3EB94FFEA9400400473
:104D50007A007BFF90A0DE12225390A0E1E09FFF3B
:104D600090A0E0E09EFE90A0E212227CA3F0A3EFD0
:104D7000F090A0E41222539BEE9A5002AB07E4900D
:104D8000802AF090802BEBF0E490802CF090802D26
:104D9000F02290A0CDEFF090A322F0121FC050207F
:104DA00090A00FE0FFA3E090A0CECFF0A3EFF09093
:104DB000A00DE0FFA3E090A0D0CFF0A3EFF0801E05
:104DC0007B017A807932129CE590A0CE121FA57AE1
:104DD000807936129CE590A0D0EEF0A3EFF090A081
:104DE000CDE06403703390A0D0121F6A7D0A126078
:104DF0009B90A0CEE0FCA3E0FD1260AD90A0D2EEAF
:104E0000F0A3EFF0C39410EE9400500890A0CD747E
:104E100002F08005E490A0CDF090A0CDE0FF7E00F0
:104E20006402700C90A0D27405F0A37435F0806217
:104E3000EF64014E704B90A0D0E0FEA3E0FF7C0336
:104E40007DE8126499121EAE90A0CEE0C313FEA3BB
:104E5000E013FFE4FCFDEB2FFFEA3EFEED39FDEC35
:104E600038FCC006C00790A0CEE0FEA3E0122022CE
:104E7000D007D00612629E90A0D2EEF0A3EFF08091
:104E80001190A0CDE0640470028001E490A0D2F003
:104E9000A3F090A0D2E0FEA3E0FF024846123F95A7
:104EA00090A0C8EFF064016003024F6312D6A740E0
:104EB0000690A0C87406F090A302E0D3940074801A
:104EC00094804006E014F0024F6312DB6212C8883F
:104ED00012CB2E129BFB90A2F312CB57D390A2EDD4
:104EE000E09F90A2ECE09E500330261B12D6269045
:104EF000A0C9EFF090A2FFE06F604590A0C9E090DC
:104F0000A2FF124F9C803990A2FAE0C312CB265028
:104F10000C90A0C9EFF0E4FF12DD95800812D1409B
:104F200090A0C9EFF090A0C9E0FF90A2FFE06F60F1
:104F300009EF124F9CE4FF12B0D7129BFB12CB3744
:104F400012CB406421700512E40B400C12CB40647C
:104F500041701012E40E500B1268B7EF6404700336
:104F600012DE3D90A0C8E064087002802612D1B025
:104F700040247F1112DDEBD3EF9400EE9400401338
:104F800090A0C87401F012D6A7400B90A0C8740678
:104F9000F0800312E18090A0C8E0FF22F0E0909D35
:104FA000AF93FF1225DA227F6190A047E0C313542C
:104FB0000164017006EF4480FF8004EF547FFF908E
:104FC000A048E064087006EF54F7FF8004EF44083F
:104FD000FF90A046E0FEC413540164017006EF5434
:104FE000FBFF8004EF4404FFEEC413131354016469
:104FF000017006EF4402FF8004EF54FDFF908150E2
:10500000EFF07A81795B90A061121F45129D5D904F
:10501000A065E0FEA3E0FF90815DF07A8179629067
:10502000A067121F79EF2DFDEE3CFC129D5D90A054
:105030004B121EB7129D5D7A81796F121FCE129DA1
:105040005D90A04B121ED2129D5D90A057121EC300
:10505000129D5D90A05BE0FEA3E0FF908160F07B7D
:10506000017A81796690A05DE0FCA3E0FDEF2DFD63
:10507000EE3CFC129D5D7B017A817968121FAD12B6
:105080009D5D90A05D1220FEFEA3E0FF90A05CE07D
:105090002FFD90A05BE03EFC129D5D90A049121F89
:1050A0005B129D5D7B017A8179797D407C05029D53
:1050B0005D90A030E0FF75F01E84E5F060030251C2
:1050C000AFEF641E700BA3E07002A3E0700312D177
:1050D000077B017AA079CB7FFF7E3F12993990A0A0
:1050E000CBE0F4600312D1077F007E3012D01F9016
:1050F000A03412A7C790A032E09FFF90A031E09E9D
:10510000FE7C007D3C12649990A03012A75EC0071F
:1051100090A033E0FBD007C3EF9BFFEE9400FEEDC1
:105120009400FDEC940012A7B8E4FFFEFDFC90A0F3
:10513000CC12A7A4C3126354601790A0CC12A73955
:1051400024FFFFEE34FFFEED34FFFDEC34FF12A729
:10515000B890A0CC12A73912A7BF12629E12A7B9AD
:105160007B0890A0CC12A735FF12629E90A0C9EEDA
:10517000F0A3EFF0EE540F90A0C9F0A3EFF090A0D1
:10518000CC12A7395407FFE4EF909D369390A0CB43
:10519000F0129C3890A0CAE02400FF90A0C9E0342F
:1051A00030FE90A0CBE0FDE4FB128DAA12D86B225A
:1051B00012AF2890A0C8EFF064216008EF6441604E
:1051C00003025296C22A90867212C7B860115480A8
:1051D0006002D22A90A0C8E054BFF0908672F0908E
:1051E000867312C7B8603254406002D22A90A0C8B9
:1051F000E05401601C12E35DEF6401701112E3756D
:10520000908744E054606F6008129DBE80031230A6
:105210003490A0C8E0908673F090867412C7B8FFEF
:105220006025908880E06017A3E06013EF54016070
:105230000312529790A0C8E0540260031252979054
:10524000A0C8E0908674F090867C12C7B86047547E
:1052500080603B12E045500D12CEF3500812E0EF93
:105260004003129DBE12E045501212CEF3400D12C3
:10527000E0EF500812DEBB4003129DBE12E0455025
:105280000D12CEF3500812DE885003129DBE90A07E
:10529000C8E090867CF022908605E04402F0E0545D
:1052A000FDF07F057E0012D3282290A2EEE0640577
:1052B000600302535D12E3FC5029129DBB12E350C0
:1052C0009081AB743FF09081AC741FF090F024E0BB
:1052D0004401F012D84490A2EF12538F12CB6440D5
:1052E0007CD32212AF28EF6471701E1268AD125386
:1052F0006512CB644002D3221268B212537A940131
:10530000EE648094804056D32212E27312536512E9
:10531000CB644002D32212E27C12537A9401EE64F1
:105320008094804002D32212C92450012212DCF35F
:1053300090A2F112538F9410EE648094804002800A
:105340001712DD0B90A2F812CB57120016D3EF9470
:1053500004EE64809480400512E039D32212000EDE
:10536000500122C32290A2FDE0FCA3E0FDC3EF9D0B
:10537000FFEE9CFE120016D3EF2290A300E0FCA3E8
:10538000E0FDC3EF9DFFEE9CFE120016D3EF22E07E
:10539000FCA3E0FDC3EF9DFFEE9CFE120016D3EFD1
:1053A0002290A0C8EFF0700302546F12548D90A0A9
:1053B000C8E0FB90A01112D2CE90A0C9EEF0A3EFEE
:1053C000F090A01312D2CE90A0CBEEF0A3EFF0900D
:1053D000A0C9E0FFA3E090A015CFF0A3EFF012E288
:1053E0002B90A017EEF0A3EFF090A0CBE0FEA3E08F
:1053F000FF90A018E02FF090A017E03EF090A0CA18
:10540000E025E0FF90A0C9E033FEC390A012E09F2A
:10541000F090A011E09EF0A3E054FEF012E069507D
:105420001390A0CBE0FEA3E07802C333CE33CED8F6
:10543000F9FF800D90A0CCE025E0FF90A0CBE033F9
:10544000FEC390A014E09FF090A013E09EF090A007
:1054500015E0FEA3E0FF12DFFC90A017E0FEA3E042
:10546000FF12591612547B7F0212B97802E2D7124A
:10547000E02D500312548D12547B2290A011E0FEB7
:10548000A3E0FFA3E0FCA3E0FD12D8DF2212E14E6F
:1054900012A87D12B16322E490A0D8F0A3F012E329
:1054A000D590A0DBEFF090A0DD7401F0A374FFF0C5
:1054B000A3F0E490A0DCF090A0DCE0C3941474802E
:1054C0009480400302556712E3D590A0DAEFF0A371
:1054D000E06F6005E490A0DDF090A0DDE064017075
:1054E0001390A0DCE0D3940374809480400690A0D5
:1054F000DB02558690A0DEE0FFF4700A90A0DAE0AF
:1055000090A0DEF0804190A0DAE0FE6F603990A0BC
:10551000DFE0FFF47004EEF0802D90A0DAE0FE6F83
:10552000602590A0DFE0FD90A0DEE02DFDE433FCDF
:10553000EE7E002DFFEE3CFE7C007D031260ADEFA1
:1055400004FF90A0DBF02290A0DAE0FF90A0D9E069
:105550002FF090A0D8E03400F07F0112B97890A02D
:10556000DCE004F00254B790A0DCE0FDC313FF9030
:10557000A0D9E02FFF90A0D8E03400FE7C0012609C
:10558000AD90A0DBEFF0E004F0E0FF229081AB747F
:105590003FF09081AC741FF090F024E04401F022C1
:1055A00090A0CCEEF0A3EFF090A0CCE0FEA3E0FF43
:1055B000E4FCFD2290A37EE0FCA3E0FDE4025C9D00
:1055C00090F056F09083337407F090833474F1F0C8
:1055D0009083367448F0908330740DF07F027E0023
:1055E00022F0908B577483F0229081B1E0FF90A05D
:1055F000CCE4F0A3EFF02290819AE054F82290815D
:1056000001E0540F640D22E0FEA3E0FBAA06E4F9DA
:10561000F8227B407A1FF9F8C3026354EE541FF05E
:10562000A3EFF022E0D3940A74809480227B017A65
:1056300081799B22FFE43EFEE43DFDE43CFCE42254
:10564000F0A3EFF090A0CEE0FEA3E022E09400747F
:10565000809480227BE07A01F8D30263547B017A44
:1056600081799D2290A0CB7401F0229081ADE0540D
:105670000122908B57748BF02290F01CE054016053
:105680001412DB8E74F0F0741C12DB9674F0F0A32D
:10569000743AF0805890F01EE05401601412DB8ED2
:1056A00074F0F0741E12DB9674F0F0A37442F08074
:1056B0003C90F085E05401601512DB8E74F0F0A38D
:1056C000748512DB9774F0F0A3748AF0801F90F059
:1056D00087E05401601512DB8E74F0F0A37487121A
:1056E000DB9774F0F0A37492F08002C32212DB8087
:1056F000543C90A0CAF0448112606790A0CE12DBA7
:1057000083540390A0C9F08046129BFB90A0D1E087
:10571000FCA3E0FDC3EF9DFFEE9CFEC3EF94F4EE0F
:105720009401503090F00A7455F090A0CE12DB83B3
:105730005403FF90A0C9E06F6005EFF012575612B6
:10574000DB80540160C390A0CAE0448112606712FC
:10575000575680B5D322129BFB90A0D1EEF0A3EF59
:10576000F02290A0C8E075F01DA42430F582E5F089
:105770003400F583E493FE740193FF2290A0C8E007
:1057800075F01DA42427F582E5F0340022CFF0EF58
:10579000A3F075F01DEBA4222434F582E5F034006B
:1057A000F583E493FF7401932275F01DEDA4244169
:1057B000F582E5F0340022FAFF7E00E0FCA3E0FD74
:1057C00002609B90A0D0E0F8A3E0F9A3E0FAA3E088
:1057D000FB2290A0C8E075F01D222426F582E5F09A
:1057E0003400F583E4932275F01DA42429F582E5A5
:1057F000F0340022F583E493FD740193227B017A57
:10580000A0790222FC90A0D00263CBE0FCA3E0FDD3
:10581000A3E0FEA3E0FF22F583740193F422A42405
:1058200034F582E5F0340022A42432F582E5F03428
:105830000022EEF0A3EFF0EAFF7E002290A567EFD2
:10584000F0302106E070030259061268B7EF6405D4
:10585000700312690790A567E0701012690C50037D
:105860000259061269115003025906E49082E0F0D1
:10587000FF1269169082B674FFF0908B577483F014
:105880009081EAE054BFF09080127481F090800A19
:105890007401F012E10512D9051268FD12E16C9055
:1058A0008B467418F0908B5A7404F0E4908B55F08A
:1058B000908B567404F0908B547422F09081F5E034
:1058C00054BFF09081F6E054F8F0E49081F7F09046
:1058D0008B577403F0C2111268D5908B61743FF03E
:1058E000908B62E044F8F0E04402F0E054FBF0E01A
:1058F00054FEF090F050E0546FF0125907F58B12FF
:105900005907F58DD221227FC07EC67D2D7C0012E5
:10591000D92AEFF4042290A0F1EEF0A3EFF07B017E
:105920007A80793090A3D5E02FFD90A3D4E03EFC9F
:10593000129D5D7B017A80792E90A0F1E0FCA3E0BE
:10594000FD129D5D12E15890A0F2E09FFF90A0F142
:10595000E09EFE7C007D6412609BAA06AB0712E10C
:105960005890A02BE09FFD90A02AE09EFCC313FE60
:10597000ED132BFFEA3EFE1260AD90A0C2EFF022C5
:1059800022025D42E86480F8E933E8336011046084
:10599000F0ED33EC337009E8FCE9FDEAFEEBFF22A1
:1059A0000460DED3EB9FEA9EE99DE8C2E78CF0C27B
:1059B000F795F0400CE8CCF8E9CDF9EACEFAEBCF58
:1059C000FB125D0D85D0F05804700320D5B3E804B8
:1059D00070075002B2D5025D4C92D5EC0460F7E43A
:1059E000CCC0E0C398F8603B94186008400DD0E04C
:1059F000FB025D24E4FBFAC9FC8028E830E406E4FD
:105A0000C9FBE4CAFCE830E305E4C9CACBFCE854AE
:105A1000076010F8C3E913F9EA13FAEB13FBEC1370
:105A2000FCD8F130F52FC3E49CFCEF9BFFEE9AFE0F
:105A3000ED99FDD0E0FBEF4E4D4C701222DB0302DE
:105A40005D49EC2CFCEF33FFEE33FEED33FDED3022
:105A5000E7EB025D24EF2BFFEE3AFEED39FDD0E0DF
:105A6000FB50130BBB0003025D4CED13FDEE13FE68
:105A7000EF13FFEC13FC025D24EC4D6011E849705C
:105A800017ED33EC3304600DE4FCFFFEFD22E93337
:105A9000E8330470F8025D42125D0D58046009E4B9
:105AA000CC24815006285009025D4C284003025D39
:105AB00049C0E0EB4A7044B98006D0E0FB025D3893
:105AC000EF4E701CBD8008EBFFEAFEE9FD80EBE9BC
:105AD0008DF0A4FEE5F0025B62E9CDF9EAFEEBFF92
