:020000040000FA
:10000000028F620264D37E037F132202873AA21911
:1000100022C322027EF6000102030400010203044F
:10002000C21922028EC400013B02BC0F60020320F1
:1000300001C10280015E0280015E002200380C0CCA
:1000400003010000017B03530F4003034001BD0285
:1000500080015E0280015E005100390C0C03040037
:1000600000013B02BC0F6002032001C1028001902D
:1000700002800190002200200C0C03020000017B92
:1000800003530F4003034001BD0280019002800131
:1000900090005200260C0C03050000013B02580F93
:1000A00060020320020D028001E0028001E00022D4
:1000B000001E0C0C03070000015E029B0F400303AF
:1000C00060020D028001E0028001E0005100240C7A
:1000D0000C03090000017B02D80F2803034002082B
:1000E000028001E0028001E0007200190C0C030A9A
:1000F0000000017702EE0F4003034801F402800183
:10010000E0028001E0006A000D0C0C030B0000010E
:10011000B103520F3803034001FD028001E0028069
:1001200001E0004200160C0C030C000001350240F7
:100130000F200A03300219028001F4028001F4004A
:100140004200030C0C030D0000013B02BD0F6C02CA
:10015000038401C102D0019002D001900028002048
:100160000C0C03030000017B03520F480203A8019B
:10017000BE02D0019002D00190005C00270C0C035D
:1001800006000001F102E90F40030480029B0340D6
:1001900002700340027000D0001A0C0C030E000025
:1001A000016002330F480204000271032002580369
:1001B000200258007100130C0C030F0000017B0299
:1001C0005B0F8004042002740320025803200258AD
:1001D000004900140C0C0310000001E102D20F785A
:1001E000060410029A03200258032002580031002E
:1001F000140C0C0311000001D502EE0F5003042073
:1002000002710320025803200258009100120C0CC6
:1002100003120000021903530F400304180277036E
:1002200020025803200258008900180C0C03130008
:1002300000013602580F700804400205035001E027
:10024000035001E0006100140C0C03140000012AAB
:1002500002550F5005042001F4035001E003500142
:10026000E0005A00090C0C03150000015E02BC0FEF
:100270005803043001F4035001E0035001E0006131
:10028000000D0C0C03160000016902D00F58030486
:100290004001F5035001E0035001E00069000E0C3D
:1002A0000C03170000017902EC0F5005044001F81F
:1002B000035001E0035001E0006A000D0C0C03182C
:1002C0000000016702570F48070390025702D0024F
:1002D0004002D002400051000A0C0C03190000013A
:1002E0006303660FB00204F00198040003000400E9
:1002F0000300002900110C0C031A010001E402584C
:100300000F880605400326040003000400030000D4
:1003100091001A0C0C031B0000023502BD0F880669
:100320000530032604000300040003000081001AC6
:100330000C0C031C0000024102D00F700305500397
:100340002104000300040003000097001A0C0C03B2
:100350001D0000025802EE0F600305200320040078
:1003600003000400030000A000190C0C031E000091
:10037000026302F80F600305500323040003000426
:10038000000300009D001C0C0C0368000002AF037A
:10039000520F6003056003280400030004000300FB
:1003A00000BF00210C0C031F000001C102580F7098
:1003B0000605D002EC048002D0048002D00099002F
:1003C000100C0C03210000021C02580F600305C82A
:1003D0000384048003600480036000A000190C0CF7
:1003E00003690000027F02BC0F600305C80390048C
:1003F0008003600480036000B700290C0C03230015
:100400000002A302EE0F8003064003840480036011
:100410000480036000EF001D0C0C032400000303A4
:10042000034F0F78040610038E04800360048003DA
:100430006000B600240C0C0325000002AF02EF0F91
:10044000800305B003930480036604800366008084
:1004500000240C0C03260000026A02940F8004059D
:10046000E003A9048003840480038400B0001C0C12
:100470000C0327000002CD02F90F600805C003AF8E
:10048000048003840480038400BF001E0C0C032836
:10049000000001C202580F2805067202EE05000294
:1004A000D0050002D000CC00110C0C032200000289
:1004B0003502EC0F800506A002F3050002D005000E
:1004C00002D000C000180C0C032A000001DA025808
:1004D0000F200705A0031605000300050003000018
:1004E0004000090C0C032B000001DE02570F8007AF
:1004F0000680031E050003000500030000B1001183
:100500000C0C032C0000023502BD0F800706A0036F
:1005100026050003000500030000C500190C0C03AC
:100520006A0000024102D10F800706A003200500E7
:1005300003000500030000C5001A0C0C036B00004B
:10054000025B02ED0F800706A003250500030005EE
:1005500000030000C000180C0C032F000002AE03C3
:10056000500F880706B003290500030005000300AB
:1005700000C8001C0C0C0320000001ED02570F20E6
:100580000605A003370500032005000320004100F5
:100590000B0C0C0330000001F102560F8006069090
:1005A000033F050003200500032000B900150C0CD3
:1005B00003310000020802710F480306A003410541
:1005C0000003200500032000C1001A0C0C033200B8
:1005D00000025902D00F880306B003420500032031
:1005E0000500032000C8001B0C0C0333000002753B
:1005F00002EE0F800606A003460500032005000357
:100600002000C0001A0C0C0334000002CC03510F70
:10061000880606B0034B050003200500032000C830
:10062000001F0C0C03350000025802580F7003071E
:100630000803E8050003C0050003C0012700210CE2
:100640000C0336000002EE02EE0F9003069003E862
:10065000050003C0050003C000E000240C0C036E7D
:100660000000035B03520FA00306C003F305000361
:10067000C0050003C000CD002C0C0C0337000002A5
:100680008002580F70030698042A05000400050034
:10069000040000E700230C0C0338000002CD02A088
:1006A0000F70030660042B05000400050004000021
:1006B000CF001E0C0C036C000002ED02BB0FA00467
:1006C00006A00430050004000500040000CE002749
:1006D0000C0C0339000002E802BC0F7005068E0402
:1006E00028050004000500040000C6001F0C0C03D0
:1006F0003A0000030B02D00F880506C0043A05003B
:1007000004000500040000CE00310C0C033B000087
:10071000032002EE0F64140698042A050004000565
:1007200000040000E600230C0C033C0000032C0234
:10073000FA0F40080680042A0500040005000400A2
:100740000110001D0C0C033D0000039003520FA08C
:100750000306C00430050004000500040000CD00BD
:10076000290C0C033E000001DD02580F7006070043
:10077000031B055003000550030000F0000F0C0C94
:10078000032D000001DD02560F8F030700031E0535
:100790005603000556030000C600150C0C032E007E
:1007A00000028702580F2004061804380578041A3E
:1007B0000578041A003F00140C0C033F0000028D62
:1007C00002580F9004074804410578041A0578047C
:1007D0001A00D8001D0C0C03410000033702ED0F76
:1007E00090040768044B0578041A0578041A00E79A
:1007F00000270C0C0343000003AB03520F980407BF
:100800007804510578041A0578041A00EF002D0CBD
:100810000C03450000022B02570F20060640039EE2
:1008200005A0038405A003840040000E0C0C0346C1
:100830000000022F02570F9806077003A605A003B9
:100840008405A0038400D800160C0C0348000002A5
:10085000C202EE0F9806079003AE05A0038405A020
:10086000038400E8001E0C0C03290000022B025830
:100870000F200506E0039E06400384064003840023
:100880003F000F0C0C03470000026902570F2006BF
:1008900006E00405064003E8064003E8003F0011B7
:1008A0000C0C03490000026E02570FA80608500402
:1008B0000E064003E8064003E800F7001A0C0C039C
:1008C0004A0000031002EC0FA80608700417064047
:1008D00003E8064003E8010500230C0C034B00006D
:1008E00002E402570F200406E004D3064004B006D9
:1008F0004004B0003E001A0C0C034C000002EE0253
:10090000580FC004087004E2064004B0064004B06A
:10091000011D002B0C0C034E0000032D028A0FC09A
:1009200003087004E2064004B0064004B0011C0055
:100930002B0C0C034F0000036B02BC0FC0030870AC
:1009400004E2064004B0064004B0011C002B0C0C6D
:100950000350000003AA02EE0FC003087004E20671
:100960004004B0064004B0011C002B0C0C035100E5
:1009700000028702570F2006073004380690041A39
:100980000690041A003F00120C0C03400000028D78
:1009900002580FB00608C004410690041A069004DD
:1009A0001A0107001B0C0C03420000033702ED0F75
:1009B000B00608E0044B0690041A0690041A0117CA
:1009C00000250C0C03440000031B02570FA8070866
:1009D00070052F0640050006400500010500220CA9
:1009E0000C03520000029A02570F200508200457FA
:1009F0000780043807800438004000130C0C0353B0
:100A0000000002A002580FC8050A10046007800405
:100A100038078004380137001D0C0C035400000215
:100A2000A302580F2C050898046507800438078036
:100A30000438008200210C0C03570000026601F408
:100A40000F2006082004CD078004B0078004B00002
:100A50003E00110C0C0355000002E402580F200662
:100A6000082004D3078004B0078004B0003D0017BD
:100A70000C0C034D000002EA02570FC8060A2004BE
:100A8000DD078004B0078004B0013E00210C0C0398
:100A9000560000013B02580F3E09035A020D02D0D6
:100AA00001E002D001E0002E001B0C0C0308000046
:100AB000013901F40F40050360027102D0024002C7
:100AC000D00240003600240C0C03580000016802DC
:100AD000580F40050390025802D0024002D0024055
:100AE0000063000F0C0C036D0000017701F40F2868
:100AF0000507BC02EE050002D0050002D000CD00C3
:100B0000110C0C03590000023301F40F2C050A509C
:100B100004650780043807800438008500230C0C26
:100B2000035A0000009D02580F3E02035A010602BC
:100B3000D001E002D001E0002C000C0C0C035B01A2
:100B400000009D02580F7C0206B4010605A001E0DA
:100B500005A001E00058000C0C0C035C0100009D96
:100B600002580FF8020D6801060B4001E00B40012E
:100B7000E000B0000C0C0C035D0100015202580FA4
:100B80002C02089802320780043807800438008558
:100B9000000C0C0C035E0100009D01F40F3F0103EB
:100BA00060013802D0024002D00240003800100C30
:100BB0000C035F0100009D01F40F7E0106C00138A7
:100BC00005A0024005A00240007000100C0C03605C
:100BD0000100009D01F40FFC010D8001380B400263
:100BE000400B40024000E000100C0C0361010001CA
:100BF0004202030FA816090002710780043807801B
:100C000004380084000C0C0C03620100011901F48B
:100C10000F2C020A50023207800438078004380083
:100C200084000C0C0C0363010002BD02570F20036B
:100C300008A004A10800048008000480003E0016FB
:100C40000C0C0364000002CC02580FD8030AC00445
:100C5000AB0800048008000480015200200C0C0343
:100C6000650000017902580F80050698027405009E
:100C7000025805000258005100140C0C03660000D5
:100C8000017502570F8806052002700400025804FF
:100C90000002580090000B0C0C03670000013901A2
:100CA000F40FA80509000271078004380780043892
:100CB00000B800390C0C036F010002AF025801307C
:100CC0000508980479073A040C073A040C00C000A0
:100CD000330C0C036F0200FFFFFFFFFFFFFFFFFF5E
:100CE000FFFFFFFFFFFFFFFFFFFFFFFFFFFFFFFF14
:100CF000FFFFFF01800001800801800A01800F01D1
:100D00008020018021018023018024018025018031
:100D1000260180380181960180120180720181E6EE
:100D20001000F000818100800000102000010110FF
:100D300000F0008181008000801021000001180077
:100D4000F8008101408000801021C010511000F097
:100D50000083010882000000900000011000F000F4
:100D600081810081000010200001011000F000814D
:100D7000810081008010210000011800F80081012D
:100D8000408100801021C010511000F00083010844
:100D900086000000900000011803F8008101C08067
:100DA00000801021C010511803F8008101C081009B
:100DB000801021C010511000F0008301088700004E
:100DC000009000000124C8EB3E9CF10443872C22D4
:100DD0000DDA6DF94C25CA0403A9636D9FA37162F6
:100DE0000EB4FB29BAB4FBD9DB0C9ED35A0ADD7CC6
:100DF0005A9E9F88150B341320BBFC2C3624C160EF
:100E0000CFC2565580115D2A61D08CEFF120E7AC3E
:100E10005DD4C3D411758D333CA9952C4D13145159
:100E2000A548EB5A6899C6BEF04AA74D64307722B0
:100E300052A423BD96AAAA3E44B88FEA236FE7B412
:100E4000EFE7661B3CB03E836D5CBEA495880D0B3E
:100E5000A4FA9602B5C4E5D89AAB7FF76EAA90952E
:100E600073C58202873FD0C4FABF5DFC5D5518246C
:100E7000DE63A7127225666EB46E9F185DC136C719
:100E8000BAD05634CE62906C7264317118731E8D74
:100E9000DF13FB66ACB2A31AE7B359BD97B14CC9D7
:100EA00052934FAA633FF0863581C1114989602A68
:100EB000AB96B7D25868BA862FC97EE81D770F3631
:100EC00020FCCC3EDB3398EF82CC5174D53A08E459
:100ED000BBA3276AFF596BBC098AD45C0031873EEB
:100EE00020386800010203040500908154E090A0BE
:100EF000E8F0908150E090A0E7F0908188E090A029
:100F0000EA12201EE4908154F07B017A81797112FB
:100F10009C5590A0EBEEF0A3EFF090A0EB121EFE1C
:100F2000129CA990A0E7E04420908150F07B017AC8
:100F300081798412977E90A0F3EEF0EF121F2F12AA
:100F40001FDEC004C005C006C00790A0F3121E87B4
:100F5000D007D006D005D004125C1F90A0EB602310
:100F60004021121F34121FDEC004C005C006C00796
:100F700090A0F3121F34D003D002D001D000125938
:100F8000848027121F347BCD7ACC79CC783D125ADD
:100F900079C004C005C006C00790A0F3121F34D06A
:100FA00003D002D001D0001259881220C71220FAB3
:100FB00012977EEE540F90A101F0A3EF122028FFAC
:100FC00090A101E0FCA3E0FDC39FEC9E5003021042
:100FD000621220F0ED9FEC9E400302106290A32964
:100FE000121E79FFE4125C8CC004C005C006C00765
:100FF00090A0FD121FAA125C91D003D002D001D0A4
:1010000000125A79C004C005C006C00790A0EB12B8
:101010001E87D007D006D005D004125B82C004C062
:1010200005C006C007121FA7121E8DD007D006D01C
:1010300005D004122053121E79FFC004C005C0065B
:10104000C00790A105121E79FBAA06A905A804D025
:1010500007D006D005D004C3EF1220BB121F6912BF
:10106000BE049081867401F09081887406F07F50F0
:101070007E0012D07412000E5003021364E490A19B
:1010800001F0A3F090A0F51263CB0000000090A047
:10109000F91263CB00000000E490A0E9F090818891
:1010A0007406F07F0112B5E01220FA12977E90A12B
:1010B00002E02FF090A101E03EF012DE7E90A0F55C
:1010C000121ED45018C000C001C002C00312A9FEF5
:1010D000D003D002D001D000121FE88019C000C098
:1010E00001C002C00312208B129426D003D002D07C
:1010F00001D00012209290A0F51263BF90818874F5
:1011000002F090A0F9121ED4C000C001C002C003BA
:1011100012208B129426D003D002D001D0001220CE
:101120009290A0F91263BF90A0E9E004F0E0C394AC
:1011300004500302109D90A102E02402FF90A1013F
:10114000E03400FE7C007D041260F6EEF0A3EFF0C8
:10115000121E76121F6F90A0F51263BF90A0F912B5
:101160001E79121F6F90A0F91263BF90A0EBE0FEF2
:10117000A3E0121F8C90A0F9121E79FF12629290C8
:10118000A0EF121E5FFF12629290A0F1121E5FFF8D
:1011900012629290A0EDEEF0EF121F2F121FDEC030
:1011A00004C005C006C00790A0EF121E87D007D06C
:1011B00006D005D0041259841220C790A0FD121F3A
:1011C000AA125C91C004C005C006C00790A0ED1231
:1011D0001F34D003D002D001D000125A79C004C00D
:1011E00005C006C00790A0EB121E87D007D006D01E
:1011F00005D004125B82125CCA90A0F2E02FFF902F
:10120000A0F1E03EAB07FA7D09121EE04003021296
:101210007A121F497D0712608F1D121EEF400302D4
:10122000127A121F497D0512608F0D121EEF4003C6
:1012300002127A7D03121EE04002803E121F491204
:101240001EED40028034C3E49FFFE49EFE121EF2B6
:10125000400590A1038024121F497D0312608F7DF9
:10126000061260F6C3E49FFFE49EFE121EF24002E7
:101270008008121F497D061260F6A3EEF0A3EFF07E
:1012800090A0F112207D90A104E09FFF90A103E0C7
:101290009E90A0FFF0A3EFF090A329121E79FFE427
:1012A000125C8CC004C005C006C00790A0FF121FCE
:1012B000AA125C91D003D002D001D000125A79C09A
:1012C00004C005C006C00790A0ED121E87D007D04D
:1012D00006D005D004125B82C004C005C006C0075A
:1012E000121FA7121E8DD007D006D005D0041220E1
:1012F00053121ED490A105121E79FF121FE8121F6F
:1013000069121F497D021260F6ED4C604890A329D6
:10131000121E79FFE4125C8CC004C005C006C00731
:10132000121FA7121E8DD007D006D005D004125B65
:1013300082C004C005C006C007122063125C91D0B1
:1013400003D002D001D000121F637B017A81795E45
:10135000122063800690A101121EA5129CA912DC26
:10136000A812BE0490A0E8E0908154F0E490818639
:10137000F090A0E7E0908150F07A81796490A04BE2
:101380001220A8129CA990A0EA121FD12212DA34CE
:101390007F0F12E04212E0D1EF64057003021607DE
:1013A00074FF90A0CEF0A3F090A0D41263CBFFFF07
:1013B000FFFF1255B590A0CBEFF0C20FE490A0C88C
:1013C000F01254F51255907003E493F47003021573
:1013D000CB12DE7EE433FF90A0C8E0FD75F01D1255
:1013E0005526F58374019354016F7001E460030284
:1013F00015C275F01DED1255971254EB90A00BE03D
:10140000FCA3E0FDD39FEC9E402E1254DBC3ED9F66
:10141000FFEC9EFE129C67D390A0CFE09F90A0CEE1
:10142000E09E40141254DB12178390A0CEEEF0A37E
:10143000EFF090A0C8E0A3F01254F51254EB12178D
:101440006190A0C8E0FD75F01DA4243EF582E5F092
:101450003400F583E493FBD3EF9B7480F86E9840DF
:10146000030215C2ED1255601254EB121772125599
:101470004BA4243FF582E5F03400F583E493FDD3DB
:10148000EF9D7480F86E9840030215C212E0D1BF40
:10149000021B12554BA4242BF582E5F03400F58392
:1014A000E493FF90A006E05F70030215C290A00BCA
:1014B000E0FFA3E090A0CCCFF0A3EFF012DE7E50CF
:1014C0000D90A0CDE025E0F090A0CCE033F090A00E
:1014D000C8E0FF75F01D125597F583E493FC740185
:1014E00093FDD390A0CDE09D90A0CCE09C50030252
:1014F00015C2D20FEF1255601254EB121772C006CC
:10150000C0071254F51254EB121761D0E02FFFD030
:10151000E03EFE3395E0FD12557D12553CC000C003
:1015200001C002C0031254DB121783EF7802C333E9
:10153000CE33CED8F9FFEE3395E0FDFCD003D002D8
:10154000D001D000EB2FFFEA3EFEE93DFDE83C1262
:10155000557D12554BA4242DF582E5F03400F5831A
:10156000E493FF90A0CBE0C39FFFE49400FE129CA5
:1015700067EE3395E0FDFCC004C005C006C007E47B
:101580007F64FEFDFC12553C126207D003D002D0EE
:1015900001D000EF2BFFEE3AFEED39FDEC3812558D
:1015A0007D90A0D412558412553CC312634850124A
:1015B00090A0D0125584A31263BF90A0C8E090A061
:1015C000CAF090A0C8E004F00213C1300F1590A03B
:1015D000CAE0FF1249F012557612583B5003021729
:1015E00060801E90A0C9E0FF1249F090A02DE0FF9E
:1015F00074FFF0A3EFF012557612583B5003021718
:10160000601255760247CC12C78990A0C9EEF0A3AC
:10161000EFF012DE7E500D90A0CAE025E0F090A021
:10162000C9E033F012C73D90A00DEEF0A3EFF090AB
:10163000A0C9E0FFA3E090A00FCFF0A3EFF090A02F
:101640000DE0FFA3E090A011CFF0A3EFF090A00F6A
:10165000E0FFA3E090A013CFF0A3EFF0E4A3F0A38A
:10166000F0A304F0A374E0F090A015E0FFA3E090D5
:10167000A01CCFF0A3EFF090A017E0FFA3E090A094
:101680001ECFF0A3EFF090A02D74FFF0A3E4F09034
:10169000A0C8F090A0C8E0FF1254F9125590700352
:1016A000E493F4700302176075F01DEFA42436F57F
:1016B00082E5F034001254EBC390A00EE090A00D30
:1016C000121794D3EF9405EE6480948040030217C0
:1016D0005712554BA42438F582E5F034001254EB30
:1016E000C390A010E090A00F121794D3EF9406EED1
:1016F0006480948050611254F51254EBC390A0039F
:10170000E090A00212179D504E12554B12556312D5
:1017100054EBC390A005E090A00412179D503890A0
:10172000A0C8E0FF75F01D1255A112556D90A00DD7
:10173000CDF0A3EDF075F01DEFA412551190A00FA0
:10174000CFF0A3EFF012554B12552612551990A069
:101750002DCFF0A3EFF02290A0C8E004F002169382
:1017600022C390A003E09FFF90A002E09EFE129C87
:101770006722C390A005E09FFF90A004E09EFE12A8
:101780009C6722C390A00CE09FFF90A00BE09EFE00
:10179000129C67229FFFE09EFE129C67229FFFE043
:1017A0009EFE129C67C3EF940AEE648094802290A0
:1017B00081EDE090A0E2F09081EDE04401F0E4FEE4
:1017C000FF908150E044201220097B017A80793615
:1017D000129C5590A0D2121F967A807932129C5595
:1017E00090A0D4EEF0A3EFF0D3E0940090A0D4E06A
:1017F0009404401090A0D2E094055008124E1E129E
:10180000D8A3C32212AA9690A0D0EEF0A3EFF012B4
:10181000DE7E5004D2108002C21090A04BE0FFA3E5
:10182000E090A0E0CFF0EF1220277803CEC313CED4
:1018300013D8F97803C333CE33CED8F92408FFE4A4
:101840003E90A0DAF0A3EFF0121FC8C394F0EC941E
:101850000F40030218E6E4125C911220B0C004C0ED
:1018600005C006C00790A0E0121F34D003D002D0FC
:1018700001D000122011C004C005C006C00790A30B
:10188000A6121E79FFE4125C8C121E90D007D006BF
:10189000D005D004125B82C004C005C006C0071288
:1018A0001E84D007D006D005D004121EC0121F63BC
:1018B00030100F90A329121E79FF78011263801255
:1018C0001F6990A04D121E79FF90A329121ED4D338
:1018D000126348501190A0DBE02408F090A0DAE0F9
:1018E0003400F00218481220F090A0DBE09F90A096
:1018F000DAE09E400CA3E024F8F090A0DAE034FF98
:10190000F090A051121E79FF90A329121ED4D31279
:101910006348404290A051121E79FF90A0D61263F6
:10192000BF7F407EC17DFC7C1090A329121ED4D3C2
:10193000126348400A90A0D61263CB10FCC14090BD
:10194000A0EA7401F0A374A0F0A374D6F07B017A2E
:10195000A079CA1236B590A0E0121E99129CA91265
:101960001EB1129CA9121EB1129CA990A0DA121FDE
:10197000341220B0C004C005C006C00790A0E01219
:101980001F34D003D002D001D000122011C004C0F7
:1019900005C006C00790A3A6121E79FFE4125C8C56
:1019A000121E90D007D006D005D004125B82C0046E
:1019B000C005C006C007121E84D007D006D005D0CF
:1019C00004121EC0121F6330100F90A329121E793B
:1019D000FF7801126380121F6912BE0412D31A50DD
:1019E000057F0212B5E07F507E0012D07412000E07
:1019F0005003021B2A30101A12D31A505490802020
:101A0000E054FBF07F0112B5E0908020E04404F048
:101A1000803F1220FA12977EEE540F90A0C8F0A3D8
:101A2000EFF090A0DA12207D90A0C9E09FFF90A077
:101A3000C8E09EFE129C67C3EF9405EE648094801C
:101A4000500F90A0C8E0FFA3E090A0DACFF0A3EF82
:101A5000F090A329121E79FFE4125C8C7920784162
:101A6000122018C004C005C006C00790A0DA121EDC
:101A700087D007D006D005D004125B82C004C00511
:101A8000C006C00790A380121E87D007D006D005DD
:101A9000D00412203190A0DCEEF0FCA3EFF0FD7B2F
:101AA000017A81795B129CA97A817962121FB11245
:101AB0009CA990A0E012207D90A04CE090A04B1239
:101AC000207290A067E0FCA3E0FD90A066E02DFDF1
:101AD00090A065E03CCD2FFFED3EFE90A0C8F0FC4D
:101AE000A3EFF0FD7B017A81796F129CA97B017ACB
:101AF00081795E121FC8129CA912D31A402C90A0A3
:101B00004BE0FEA3E0FF90A0E0E06E7003A3E06F67
:101B10006018908150E0FF90A0C8E4F0A3EFF0902F
:101B2000A0C8A3E054DF908150F090A04B121EFE9D
:101B3000129CA912B1E212210112000E4005120EF0
:101B4000EA8006124E1E12D8A31268F390A0E2E0BB
:101B50009081EDF0D3227BFF7A9B792D12BE83908A
:101B6000F024E054FEF0908306E090A0D0F0908343
:101B700010E090A0D1F0908311E090A0D2F090837B
:101B800036E090A0D3F0908336E054DFF0908630BA
:101B9000E030E72F121E579083397416F09081AD14
:101BA000E090833A30E00574A0F080037460F09018
:101BB0009B23E49390833EF0909B24E49390833F97
:101BC000021E2E908330740DF0908339F090833A8A
:101BD0007460F0121E579081ADE020E003021E07F2
:101BE00090819AE054F864186003021E07908311F4
:101BF0007422F09083107413F0E490A0CCF090A0C5
:101C0000CCE0FFC394034003021E07EF909B1893A0
:101C100090A0D9F0908330F0E490A0CDF090A0CDCA
:101C2000E0FF25E0241BF582E4349BF583E49390E8
:101C3000A0DAF0EF25E0241CF582E4349BF583E480
:101C40009390A0DBF090A0DAE0908339F090A0DBD5
:101C5000E090833AF0E490A0CEF090A0CEE0FF2593
:101C6000E02423F582E4349BF583E49390A0DCF038
:101C7000EF25E02424F582E4349BF583E49390A0DF
:101C8000DDF090A0DCE0FF90833EF090A0DD12BE7E
:101C90009DF0E490A0DEF074FFA3F0A3F0E490A028
:101CA000CFF090A0CFE0FFC394034003021D7474F3
:101CB000E12F12BE75E4F0908306EFF0908309E007
:101CC0004401F09083107413F0129B3890A0D7EE6B
:101CD000F0A3EFF07F017E0012D074908310E0201B
:101CE000E312129B3890A0D712BE90C3EF941EEE61
:101CF000940040E09081ADE020E01112BE6712BE7A
:101D0000AD90A0CEF090A0CDF0021D6B908308E0C6
:101D10005407705190A0D404F0A37483F0A37417F7
:101D2000F0E4FF90A0D4E0FBA3E0FAA3E0F9125F97
:101D3000F3FD90A0E0E02DF090A0DFE03400F09003
:101D4000A0D4A3E475F001126142A9F0FA125FF386
:101D5000700C12BE6FE004F090A0DEE004F00FEF14
:101D6000B405C0800612BE6712BEAD90A0CFE004DD
:101D7000F0021CA290A0E9E0FF90A0DEE0D39F401B
:101D80001790A0E1E0D39400400EA3E0D39400406C
:101D900007A3E0D39400502390A0EAE0FEA3E0FF65
:101DA000C390A0E0E09F90A0DFE09E501190A0ECD7
:101DB000E06008A3E06004A3E0700312BE7D90A081
:101DC000E1E0C39400401DA3E094004017A3E09419
:101DD00000401112BE7D90A0CE74EEF090A0CDF028
:101DE00090A0CCF090A0CE12BEBA5003021C5A9024
:101DF000A0CDE004F0E0C394045003021C1D90A0A9
:101E0000CCE004F0021BFE90A0E5E0908339F09056
:101E1000A0E6E090833AF090A0E4E0908330F09068
:101E2000A0E7E0FF90833EF090A0E812BE9DF07F17
:101E3000017E0012D07490A0D0E0908306F090A0B4
:101E4000D1E0908310F090A0D2E0908311F090A0A8
:101E5000D3E0908336F0227F017E0012D07422AF4F
:101E600003EAF0A3EFF090A101E0FEA3E0FBAA06D5
:101E7000EA3395E0F9F890A0F5E0FCA3E0FDA3E0DB
:101E8000FEA3E02290A0D4E0FCA3E0FDE4125C916C
:101E9000A804A905AA06AB07227B017A817964E030
:101EA000FCA3E0FD227B017A81795EE0FCA3E0FDEA
:101EB0002290A0E07B017A817971E0FCA3E0FD2211
:101EC000125B8290A0E31263BF7F007E1B7D377C94
:101ED0004D90A0E3E0F8A3E0F9A3E0FAA3E0FB2231
:101EE00090A101E0FEA3E0FF7C0012608F7D06124E
:101EF00060F6D3EB9FEE6480F8EA648098227B0161
:101F00007A817964E0FCA3E0FD2290A0EAE0FBA3E3
:101F1000E0FAA3E0F922EE54F090A0E7F0A3E4F099
:101F20007A81795290A0E77B01E0FCA3E0FD22A337
:101F3000F090A0EBE0FCA3E0FDE4025C917B017A71
:101F4000817975E0FCA3E0FD2290A101E0FEA3E011
:101F5000FF7C00227A80792E90A0EB7B01E0FCA32D
:101F6000E0FD22125A79125CCA90A3290263BF24B1
:101F7000027B04FFE43EFEE43DFDE43CFCE4FAF9B0
:101F8000F802629290000A126183AEF0FBAA06E4A6
:101F9000F9F82290A0EBEEF0A3EFF07B012290A0E5
:101FA00049E0FCA3E0FD2290A101E0FCA3E0FDECF0
:101FB000227B0190A067E0FEA3E0FF90A066E02FE7
:101FC000FD90A065E03EFC2290A0DAE0FCA3E0FDDD
:101FD00022E0908188F0908371E0547FF022746653
:101FE000783FFBFAF9025A79EB2FFFEA3EFEE93D12
:101FF000FDE83CFC22AC06AD077B017A80793022FB
:10200000E0FEA3E0FFE4FCFD22F090816E7407F097
:1020100022125A7979807845E4FBFA025A79F090D5
:102020008371E04480F022A3F090A055E0FEA3E08D
:1020300022125B82E4FBFAF9783F125988025CCAEB
:1020400090000AEE8FF00261DA908024E05403C31E
:10205000940222125B82125CCA90A1051263BF90A7
:10206000A3292290A102E024FFFD90A101E034FF0A
:10207000FC229FFFE09EC313FEEF13FF22E0FEA3AE
:10208000E0FFC3227B017A8179DC227B017A8179AE
:102090008922EB2FFFEA3EFEE93DFDE83CFC22EE03
:1020A00090A0D8F0A3EFF0227B01E0FCA3E0FD229A
:1020B0007BCD7ACC79CC78BD0259889BFFEE9AFE15
:1020C000ED99FDEC98FC22125CCA90A0FDEEF0A305
:1020D000EFF0229081517401F0FB7A8179522290C5
:1020E0008101E0FE908065E0227B017A8179732294
:1020F00090A059E0FEA3E0FFD3227B017A81798290
:102100002212DE7E40030222F7908154E090A0E983
:10211000F0908150E090A0E8F0908188E090A0EAF3
:1021200012201EE4908154F09080F5E090A0E7F03A
:1021300012E06212204940030221DC12200A12DE62
:10214000C590A0EBEEF0A3EFF0E412230C12977E03
:10215000C006C00712208412977EAC06AD07D007D8
:10216000D0061222F8403274FF12230C12977EC060
:1021700006C00712208412977EAC06AD07D007D0A8
:10218000061222F840137F017E0012DFCB7F057E0E
:102190000012BB3C7F0812B5E090A0EBE0FEA3E08C
:1021A000FF12BB3C7F0812B5E07B017A8179DE1219
:1021B000977EC006C00712208412977EAC06AD073A
:1021C000D007D0061223249401EE6480948050033B
:1021D0000222D990816E7447F00222D9908024E0C7
:1021E0005403FFBF030612200A0222D912200A124A
:1021F0001FF912977EC006C0077B017A80792E12E4
:10220000977EAC06AD07D007D0061223249400EECB
:10221000648094804029908199E020E029E0440185
:10222000F0121FF9129C55121F937A80792E129C7E
:1022300055121FF5129CA9121F54129CA9800790D9
:102240008199E054FEF012233112977E90A0ED1296
:102250001F967A8179DE12977E90A0EF121F967AF0
:102260008179DE12977EC006C00712208412977E05
:10227000AC06AD07D007D006C3ED9FFFEC9EFE1263
:102280009C67D3EF9401EE64809480404C90816E03
:10229000E04440F012233112977EC390A0EEE0900C
:1022A000A0ED12233D50167B017A8179DE12977ED4
:1022B000C390A0F0E090A0EF12233D401C121FF944
:1022C000129C55121F937A80792E129C55121FF57D
:1022D000129CA9121F54129CA990A0E7E09080F5CF
:1022E000F090A0E9E0908154F090A0E8E090815057
:1022F000F090A0EA121FD122C3ED9FFFEC9EFE12C8
:102300009C67D3EF9401EE6480948022FFFE12DF7D
:10231000CB7F057E0012BB3C7F0812B5E07B017AC3
:102320008179DE22C3ED9FFFEC9EFE129C67D3EF06
:10233000227F0812B5E07B017A8179DC229FFFE0E1
:102340009EFE129C67D3EF9405EE648094802290E9
:10235000A0DC1263BF90A0DCE0FCA3E0FDA3E0FEE4
:10236000A3E0FF22E4FEFDFC90A0EAE0F8A3E0F980
:10237000A3E0FAA3E0FB12620790A0E2E0F8A3E07A
:10238000F9A3E0FAA3E0FB22E49080F8F090A0D754
:10239000E075F003A40490A0D4F090A0DA7401F0EA
:1023A000A37480F0A37400F090A0D4E0FF90A0DBB1
:1023B000E48FF002612C90A0E0E0FCA3E0FDC3EF0D
:1023C0009DFFEE9CFEC3EF9464EE940022EE540752
:1023D000F0A3EFF07B0122FBE0FFC374FF9FFFE45B
:1023E0009400FE7C007D9012608F7DFF1260A1EF53
:1023F00024602290A0D9E0FFE4FCFDFEEB2FFFEE6D
:102400003AFEED39FDEC38FC90A0E20263BF74F0B7
:102410009BFEC3EF9EF090A0D474FFF022FF90A02B
:10242000DAE0FBA3E0FAA3E0F922E0FCA3E0FDC3BD
:102430009FEC9E2290F00A7455F022EB2FFFEA3EAB
:10244000FEED39FDEC38FC0263BF90A0D81263BFEB
:1024500090A39AE090A0D0F090A3A1E090A0D1F03A
:1024600022E0FEA3E0FFC322E0FEA3E0FF7C007DAC
:102470000A0260A19BFFEE9AFEED99FDEC98FC022A
:1024800063BFEE540FF0A3EFF022E0FCA3E0FDC326
:10249000EF9DFFEE9C222DFDE03CCDC39FFFED9E06
:1024A000FE90A0EDF0A3EFF02290A0D6E0FEA3E016
:1024B000FF2290A0CDE090806AF090A0CEE09081C5
:1024C0001BF02290A39DE0C394642290A0E50263D8
:1024D000BF90A0E2740AF022E4F0908008E0540774
:1024E000FF22C390A0EEE09DFF90A0EDE09CFE22B5
:1024F00090A0D4E0FEA3E0FF227B017A8079D7226E
:102500009081067442F022FDE43EFCEBC39DE49C06
:1025100022EE540FF0A3EFF022A3E0FCA3E0FDA312
:10252000E0FEA3E0221263BF90A0F2E024FC543F3F
:1025300022A3F090A0D0E0FCA3E0FD229080F9F06F
:102540007B017A8079FC2290A0E5E09F90A0E4E0F6
:102550009E227B017A80793222FFE0FCA3E0FD22FB
:10256000E0FEA3E0FFED9FEC9E227B017A807936AE
:1025700022FFE4F0A3EFF022543F90A0CFF090A30D
:102580009E22E4FCFD0263BFE0FCA3E0FDE4025CEC
:102590009190A0CCEFF090A37BF012E17350030276
:1025A000273F12DEE312DFEF9081A7E090A0CEF08C
:1025B000E49081A7F07F0AFE12D07490A0CEE09044
:1025C00081A7F07F0112DD1D12DDAA908B57E05428
:1025D000F3F090A0CCE012646125FE1126051226CE
:1025E0000D1326162126273126303226393326426E
:1025F00041265351265C612664710000269112B871
:102600002DF002269112B82D04F0022691122740D7
:102610007402F002269112B8847442F0740212B867
:10262000517403F002269112B82D7404F002269121
:1026300012B82D7405F00226911227407406F0029C
:10264000269112B8847442F0740112B8517407F0E4
:102650000226911227807408F002269112278074B6
:1026600009F0802D12B889744AF090F0567401F088
:10267000E49080D7F09080D87402F09080D1E0543C
:10268000BFF0E49080D9F09081E70412B86B740A2F
:10269000F07F0FE4FEEEC39F503CEE75F003A424E0
:1026A000F3F582E4340CF583E493FB740193FA743C
:1026B0000293F990A0CDE075F00FA42420F582E4F8
:1026C000340DF583E5822EF582E43583F583E493BA
:1026D00012605B0E80BF7F507E0012D07490A0CC41
:1026E000E0B4210512E17F400C90A0CCE0B441148D
:1026F00012E182500F1268E9500A7F147E0012D056
:10270000741268EE90A0CCE09081A8B4711974287E
:10271000F0908B19E04404F09090D1E04404F090E4
:1027200083FBE04480F0227424F0908B19E054FB8A
:10273000F09090D1E054FBF09083FBE0547FF022C6
:102740009081EAE04420F09081997442F0908B5798
:10275000E04408F0908021E04440F07F027E0012C7
:10276000D074908021E054BFF09086B5E054BFF063
:102770009086B2E0547FF0E4908AEFF090A0CD22F2
:102780009081EAE04420F09081997442F0908B5758
:10279000E04408F0908021E04440F07F027E001287
:1027A000D074908021E054BFF09086B5E054BFF023
:1027B0009086B2E0547FF0E4908AEFF090A0CD22B2
:1027C00090A0CCEFF0A3EDF0E490A0D9F012B3EC20
:1027D0007F007E1B7D377C4B12B4277E0412B4072A
:1027E000C3126348400B90A0D6740AF0A37404800F
:1027F000147E0112B407C312634890A0D6400C7433
:1028000008F0A37401F0A3E4F0800A7404F0A3E4D8
:10281000F0A37410F090A0D7E0FCA3E0FDE4125CFC
:102820009112B3FE7F007E1B7D377C4B125B82C012
:1028300004C005C006C00712B3ECD007D006D0050F
:10284000D00412B42790A0D6E0C3940F501DE47FAB
:10285000FF7E0312B4091263484010780112B43CA1
:1028600012B43690A0D6E004F080DA90A0CCE02438
:10287000FE600F1460111460132403701B908449D0
:10288000800D90844F8008908455800390845BE095
:1028900054C090A0D9F08006E490A0D9F02278042A
:1028A00012B43CEF5430FFAB0790A0D2A3A3A3E037
:1028B000FCA3E0FE90A0D9E04E4BF090A0CCE02429
:1028C000FE60191460251460312403703A90A0D979
:1028D000E0908449F090844AECF0802B90A0D9E0FD
:1028E00090844FF0908450ECF0801C90A0D9E09040
:1028F0008455F0908456ECF0800D90A0D9E090843F
:102900005BF090845CECF090A0CDE024FEB412006B
:1029100040030229CD90292375F003A4C58325F037
:10292000C5837302295902295B02296002296202C8
:10293000296702296902297602297B022980022956
:102940008502298A02298F02299C0229A10229B322
:102950000229AE0229B80229AE8020908C84805BC7
:10296000801E908C83802B801C908C84E0543FF0E0
:10297000E04480F08057908C808017908C82802477
:10298000908C83801F908C82803B908C81801590EE
:102990008C82E054FCF0E04401F08031908C818026
:1029A0001A908C80E0543FF0E04440F0801F908CFF
:1029B000808012908C808003908C80E054CFF0E077
:1029C0004410F08008E054F3F0E04404F0E490A0F8
:1029D000CDF02212E11F90A0DDEFF012E12590A0D2
:1029E000DEEFF012E12B90A0DFEFF09080FA74F8A8
:1029F000F0122552129C5590A0EA122582E490A074
:102A0000D7F090A0D7E0FFC394034003022BBEEFA2
:102A100012239112241E125FF390A0D6F090A0D63C
:102A2000E0FDD394075003022AD112238812241EFA
:102A3000ED122BC012243412000E5004D21E80134B
:102A40009080F8E020E704D20F8008129B38122310
:102A5000B640E1200F02D21E301E03022B25E49067
:102A6000A0D5F090A0E61263CB00000000E490A097
:102A7000D4F090A0D4E0FFC394085045EF12253C59
:102A8000129C55E4FCFD12240890A0E21223587811
:102A9000081263801224089080FBE090A0D9F01205
:102AA00023791223F37F03122364D312634840086F
:102AB00090A0D574FFF0800990A0D4E004F0022A21
:102AC0007290A0D5E0700A90A0D6E024F8F0022A17
:102AD0001D90A0D6E07005D21E022B25E490A0D850
:102AE000F090A0D8E0FDC394104003022B8C122379
:102AF0008890A0D6E0C39D12241DEF122BC0122493
:102B00003412000E5004D21E80139080F8E020E7AB
:102B100004D20F8008129B381223B640E1200F0226
:102B2000D21E301E1A90A0DDE0FF12E0FB90A0DE66
:102B3000E0FF12E10190A0DFE0FF12E107C322E411
:102B400090A0D5F090A0E61263CB000000007407BF
:102B500012253C129C55E4FCFD12240890A0E212C0
:102B6000235878081263801224089080FBE090A01C
:102B7000D9F01223791223F37F0A122364D312634C
:102B800048500990A0D8E004F0022AE190A0D7E0D4
:102B900075F003A40490A0D4F090A0D8E0FF90A01A
:102BA000D6E0C39F90A0D512239990A0D5E012241F
:102BB0001DEF12605B90A0D7E004F0022A02D3223E
:102BC00012605B90A0D7E0F40475F008A424909004
:102BD000A0D4F09080F8F0C20F129B3890A0E0EEE5
:102BE000F0A3EFF02290A0CFEFF090A0D91263CB2A
:102BF0000000000090A0DD1263CB0000000090A058
:102C0000E11263CB0000000090A0E91263CBFFFF4C
:102C1000FFFF9080D9E0543F90A0D0F012250090A3
:102C2000A0D17401F090A0CFE0FF90A0D1E0C39FAD
:102C30004003022DCD1224C35007E0FF04F01268B8
:102C4000A3E490A0D4F0129B3890A0EDEEF0A3EF97
:102C5000F012243412000E50028020908106E020F1
:102C6000E10890A0D47401F0800B129B3890A0ED85
:102C70001223B940DC90A0D4E07004D21EC322908D
:102C8000A0D1E0FF90A0D0E02F122DD71225007B1D
:102C9000017A817915129C55E4FCFD1224CB90A099
:102CA000E512235878101263801224CB90A0E5120D
:102CB000237CC000C001C002C0037B017A8179136C
:102CC000129C55E4FCFDD003D002D001D00090A0AE
:102CD000E512243B90A0D4E014543F90A0D3F09090
:102CE000A0D9122358A31263BF90A0D5122358A3D2
:102CF0001263BF90A0E512235890A0D51263BF9035
:102D0000A0D91223587801126359C004C005C00627
:102D1000C00790A0D51223587802126359D003D06F
:102D200002D001D000EF2BFFEE3AFEED39FDEC387A
:102D3000FCC004C005C006C00790A0DD122358786F
:102D400002126359D003D002D001D000EB2FFFEA6A
:102D50003EFEE93DFDE83CFC1224CB90A0D1E0C34F
:102D600094045003022DB890A0E1122358A312231B
:102D70007CD312634890A0E1E0400812237D122525
:102D8000198009122359A312237CC3EF90A0E112EA
:102D9000247490A0E912235890A0E112237CC3125E
:102DA0006348501490A0D3E090A0D2F090A0E1121C
:102DB000235890A0E91263BF90A0E512235890A079
:102DC000E11263BF90A0D1E004F0022C2590A0D2C4
:102DD000E014122DD7D322543FFF90A0D4F012D785
:102DE000E72212E13190A0DFEFF012E13790A0E08E
:102DF000EFF012E13D90A0E1EFF0E490A0DCF0A351
:102E0000F0A3F0FF12E10DE4FF12E113E4FF12E181
:102E1000199081BE1224D8BF03079081BD748080B1
:102E200004E49081BDF09081BFF09081BB7480F08C
:102E30009081BC7403F01224D1E490A0D6F0A3F0EA
:102E4000A3F0A3F0A3F0A3F0129B3890A0D4EEF06F
:102E5000A3EFF01224347F027E0012D07412000E11
:102E600050061224D1022F6C12E13190A0E3EFF052
:102E700090A0DC122FB140031224D190A0E3E09087
:102E8000A0DCF012E13790A0E3EFF090A0DD122F6C
:102E9000B140031224D190A0E3E090A0DDF012E154
:102EA0003D90A0E3EFF090A0DEE0C39FFFE494002C
:102EB000FE129C67D3EF9403EE648094804003126B
:102EC00024D190A0E3E090A0DEF090A0E2E090A0FA
:102ED000DCB40A20E090A0D612257190A0DDE0902D
:102EE000A0D812257190A0DEE0FF90A0DAE4F0A354
:102EF000EFF08033E0FF90A0D7E02FF090A0D6E075
:102F00003400F090A0DDE0FF90A0D9E02FF090A079
:102F1000D8E03400F090A0DEE0FF90A0DBE02FF0DE
:102F200090A0DAE03400F090A0E2E014F07021907C
:102F3000A0D612246890A0DCEFF090A0D8122468EC
:102F400090A0DDEFF090A0DA12246890A0DEEFF000
:102F500090A0E2E06016129B3890A0D412248AFE62
:102F6000C3EF942CEE94015003022E53E49081BBE6
:102F7000F09081BCF090A0E2E0601A90A0DFE0FF4A
:102F800012E10D90A0E0E0FF12E11390A0E1E0FF5C
:102F900012E119C3221224DA90A0DCE0BF0305126B
:102FA0002FC680072404122FC62404FF12E119D370
:102FB00022E0C39FFFE49400FE129C67D3EF9403CA
:102FC000EE6480948022FF12E10D90A0DDE02404E5
:102FD000FF12E11390A0DEE02212A8C790A0D8EF64
:102FE000F064216008E0644160030230C7908744C8
:102FF000E0546090A3CDF090A3CCE0FDB4100A1291
:10300000B7CBE412B7C3F0806DED640F701F12D917
:103010009C5005129E8B804A12B7CB908734E030CB
:10302000E105129E8B800312D7C6E4804990811B74
:10303000E04420F090A3CCE0FD12B7BA7419F0ED93
:103040001264613062003062023062033062053027
:10305000620630620830620A30620B30620D000096
:10306000307590864B7480F0E490864CF090864DDD
:103070007480F0800DE490864BF090864CF0908642
:103080004DF0908734E030E13690A3CDE0B42007D6
:10309000908055E04420F0908748E0540FFF9086E0
:1030A00008E0540FFEEFB40106EE4450FE8008EF36
:1030B000B40304EE44F0FEAF06908608EEF02290D2
:1030C0008608E0540FF02290A0D8E0FF6451600819
:1030D000EF646160030231AF7B017A807936129C24
:1030E0005590A0D9EEF0A3EFF07B017A80793212EF
:1030F0009C5590A0DBEEF0A3EFF090A0D9E0FEA3EA
:10310000E0FFBE070FBF800CA3E064047004A3E0DF
:1031100064386014E4B50718EEB4051490A0DBE041
:10312000B4020DA3E0B4D0089080217424F080068E
:103130009080217401F07F147E0012D07490A3CC93
:10314000E0FDB4100912B7CBE412B7C3F022ED646E
:103150000F704E12B7CB9080537419F0E4908055E5
:10316000F0908054F090A0D9E0FEA3E0FFBE070FDE
:10317000BF800CA3E064047004A3E064386014E42E
:10318000B50717EEB4051390A0DBE0B4020CA3E082
:10319000B4D0079086017431F0229086017401F05A
:1031A0002212B7CB90A3CCE012B7BA7419F02290D8
:1031B000A0D8E0B4710302AE1C12B7CB12D7C6225E
:1031C00012E11F90A0D9EFF012E12590A0DAEFF004
:1031D00012E12B90A0DBEFF012E11F90A0D6EFF0F0
:1031E00012E12590A0D7EFF012E12B90A0D8EFF0DC
:1031F000E490A0D5F0E490A0D4F0129B3890A0DC2D
:10320000EEF0A3EFF0908106746EF01224341200F9
:103210000E5004D21E801A908106E020E10890A092
:10322000D47401F0800B129B3890A0DC1223B940BB
:10323000DA90A0D4E07002D21E301E05123365C3AE
:1032400022E490A0D4F0908113E090A0D61223D76E
:10325000FFE43EAD0712250A500302335EEBC39430
:10326000F0500C90A0D6E0FF9408400312240EEB1F
:10327000D394F8401190A0D6E094F85009EB2408BC
:10328000FFE02F122415908114E090A0D71223D7CD
:10329000122507500302335EEBC394F0500C90A04C
:1032A000D7E0FF9408400312240EEBD394F84011AA
:1032B00090A0D7E094F85009EB2408FFE02F1224E7
:1032C00015908115E0FB90A0D81223D81225075045
:1032D0000302335EEBC394F0500C90A0D8E0FF944F
:1032E00008400312240EEBD394F8401390A0D8E0CA
:1032F00094F8500BAF03EB2408FFE02F1224159035
:10330000A0D4E0703290A0D6E0FFC39408404FEF05
:10331000D394F8504990A0D7E0FFC39408403FEF02
:10332000D394F8503990A0D8E0FFC39408402FEF11
:10333000D394F85029D32290A0D6E0FF12E0FB905E
:10334000A0D7E0FF12E10190A0D8E0FF12E10790C2
:10335000A0D5E004F0E0C3948050030231F51233AD
:1033600065D21EC32290A0D9E0FF12E0FB90A0DA44
:10337000E0FF12E10190A0DBE0FF12E1072212A8BA
:10338000C790A3B474FFF0EF64216008EF6441605C
:10339000030234FD908196E04480F0E054F3F09015
:1033A00086B5E04440F012D31A400612C8AE401869
:1033B0002212CA0840129086B5E054BFF0E490860D
:1033C000B0F07F32FE0234FA908196E04404F012AD
:1033D000CC2F90A3B4F0E024F070030234DE24D0AC
:1033E0006007244060030234FD908196E0547FF032
:1033F0001234FE30E00312CC2312CBFA129CA990B7
:10340000A0D2E0FAA3E0FBFF9086D4F09086DCEF38
:10341000F090A0CEE0FEA3E0FFC390A0CDE09FFF20
:1034200090A0CCE09EFE7C007D0312608F90A0CE29
:10343000E0FCA3E0FDC39FFFEC9EFEEF7802CEC34D
:1034400013CE13D8F9FF90A0D0EEF0A3EFF090A028
:10345000D0E0FEA3E07802C333CE33CED8F9FFC369
:10346000ED9FFFEC9ECFC39BCF9AC313FEEF13FFDC
:1034700090A0D2EEF0A3EFF09086DBF07B017A868D
:1034800079D590A0D0E0FCA3E0FD129CA97B017A45
:103490008679D790A0D1E025E0FF90A0D0E033FE60
:1034A0009086DBE07C002FFDEC3EFC129CA990A0F6
:1034B000D0E0FEA3E0FF7C007D0312608F9086DBEE
:1034C000E02FFFEC3EFE9086DCE02FFDEC3EFC7B27
:1034D000017A8679D9129CA97F327E00801C123431
:1034E000FE30E00312CC2312CBFA129CA990A0D29A
:1034F000A3E09086D4F07F327E0012D0742212DADC
:10350000EA90A0CCEEF0A3EFF012DF1590A0CEEE83
:10351000F0A3EFF090A0CEE0FEA3E0FFC390A0CD1B
:10352000E09FFD90A0CCE09E90A0D2F0A3EDF0C370
:10353000EF9DFFEF22122552129C55EE540790A0EA
:10354000E51223D07A807936129C55EE540F90A064
:10355000E71223D07A80792E129C55EE540790A062
:10356000E91223D07A807934129C55EE540F90A042
:10357000EB1223D07A81790C129C55EE540790A05F
:10358000E31223D07A817910129C55EE540F90A04B
:10359000E11223D07A817908129C55EE540790A04D
:1035A000DF1223D07A81790E129C5590A0DD12256E
:1035B0001190A0E512246190A0E4E09F90A0E3E0C8
:1035C0009E504512AA9690A0DF12242A503A90A04D
:1035D000E9122560402390A0E4E090A0E312249635
:1035E00090A0E512242A50201224E290A0EAE02FB5
:1035F000F090A0E9E03EF0800F90A0DFE0FFA3E0B4
:1036000090A0E9CFF0A3EFF090A0E712246190A082
:10361000E2E09F90A0E1E09E504512E0A090A0DD86
:1036200012242A503A90A0EB122560402390A0E289
:10363000E090A0E112249690A0E712242A502012D4
:1036400024E290A0ECE02FF090A0EBE03EF0800FA1
:1036500090A0DDE0FFA3E090A0EBCFF0A3EFF0900F
:10366000A024E0FEA3E0FF90A0EB12242A500280E9
:103670000F90A026E0FEA3E0FFD3ED9FEC9E400854
:1036800090A0EBEEF0A3EFF090A0EBE0FEA3E0FF44
:1036900012DD7990A0E9E0FEA3E0FF12BB3C12DE50
:1036A000BB90A015EEF0A3EFF012DEC590A017EED0
:1036B000F0A3EFF02290A0E7EBF0A3EAF0E91220EC
:1036C000277803CEC313CE13D8F97803C333CE3390
:1036D000CED8F92408FFE43EFE121F0A900004121F
:1036E0002043126393E4125C8CE4FBFA79C87842BD
:1036F000125B82C004C005C006C007121F0A9000FA
:1037000004126183FDACF0121E8CD007D006D005E8
:10371000D004125B82C004C005C006C00790A0E7B9
:10372000121F0D90000A126183FDACF0E4125C914F
:10373000D003D002D001D000125A79C004C005C015
:1037400006C00790A37E121E87D007D006D005D0F2
:1037500004122031121F0A12204090A0E7121F0D00
:10376000900006126183FFAEF0E4FCFDC004C005CA
:10377000C006C007121F0A90000A126183FFAEF054
:10378000E4D003D002D001D00012620778041263A3
:1037900080C006C00790A0E7121F0D121F84D0073B
:1037A000D006126292EF2408FFE43EFEE43DFDE401
:1037B0003CFC7804126359121F0A90000612204341
:1037C000900006126183FFD390A060E09F90A05FFD
:1037D000E095F0402F90A0E7121F0D121F8490A0DB
:1037E0005F122000126207C006C00790A0E7121FF8
:1037F0000D900006121F87D007D006126292121F8A
:103800000A12204012DE7E501F90A0EAE0FBA3E0E7
:10381000FAA3E0240AF9E43AFA126158FFE5F0123B
:103820002076EE8FF01261BB121F0A12639390A3F1
:10383000290263BF90A0CAE4F0A304F0E490A0C8FA
:10384000F0A3F090A0CAE0FEA3E0FF90A0C8E0FCC7
:10385000A3E0FDC39FEC9E40030239AAED12CF12F4
:10386000FFECC454F048FE748A2FF582749C3EF538
:1038700083E493FE740193FF90A02DE0FCA3E0FD90
:10388000EF6D7002EE6C600BEFF47002EEF460030B
:1038900002399612CEF6FE748C2FF582749C12CFEC
:1038A00019129D0012CEF6FE748D2FF582749C12B3
:1038B000CF1912DC2A90A0C9E012CF12FD12CF015D
:1038C000FC748E2DF582749C12CF20748F2DF5829E
:1038D000749C12CF2712D0D912CEF6FE74902FF519
:1038E00082749C12CF1912DABE12CEF6FE74912F9A
:1038F000F582749C12CF1912E0BC12CEF6FE7492BF
:103900002FF582749C12CF1912E0C312CEF6FE740A
:10391000932FF582749C12CF1912DFE612CF0AFDA5
:10392000EAC454F048FC74942DF582749C12CF20A4
:10393000C00774952DF582749C12CF27EB12CF121D
:10394000FFEAC454F048FE74962FF582749C3EF54D
:1039500083E493FBD00712CD6012CF0AFDEAC45472
:10396000F048FC74972DF582749C12CF20C0077428
:10397000982DF582749C12CF27EB12CF12FFEAC468
:1039800054F048FE74992FF582749C3EF583E493BD
:10399000FBD00702BC0D90A0C9E004F06003023820
:1039A0004390A0C8E004F002384322122552129C32
:1039B0005590A0D71223CD7A807936129C5590A0CD
:1039C000D9122482124D17E4908106F090A0DB7486
:1039D00030F090A0DBE0FFC394A05074908107EF1B
:1039E000F0E490A0DCF012CE4B50427B017A81795A
:1039F0000C129C5590A0D11223CD7A817910129C83
:103A00005590A0CF122482D390A0D2E0940090A031
:103A1000D1E094014013D390A0D0E0940090A0CFC7
:103A2000E094014004D20F8006C20F8002C322300E
:103A30000F0C90A0DCE004F0E0C3940540A890A037
:103A4000DCE06405600A90A0DBE02410F00239D2CB
:103A500090A0DBE0D394A040012212CE4B50457BD6
:103A6000017A81790C129C55EE540790A0D512234F
:103A7000D07A817910129C5590A0D312251190A074
:103A8000CF12246190A0D4E090A0D3123B0C504BF5
:103A900090A0D112246190A0D6E090A0D5123B0C4A
:103AA00040048037C3227B017A81790E129C55EE47
:103AB000540F90A0CF1223D07A817908129C55EE32
:103AC000540790A0D1F0A3EFF090A0CFE0FEA3E0C8
:103AD00090A0D312255912B4E95007D21F123535E0
:103AE000C32290A0CFE0FEA3E0FF12DD7990A0D129
:103AF000E0FEA3E090A0D512255912C471400B90AE
:103B0000A0D1E0FEA3E0FF12BB3CD3229FFFE09ECA
:103B1000FE129C67D3EF9405EE64809480221224F9
:103B2000F9129C5590A0D6EEF0A3EFF01224A990C4
:103B3000A0D2EEF0A3EFF0A3EEF0A3EFF090A0D8A8
:103B40001263CB0000000090A0E01263CBFFFFFFE8
:103B5000FF90A0D7E024FEF090A0D6E034FFF0E480
:103B600090A0CFF01224A9129DC612457D90A0DC32
:103B70001263BF301E02C32212235590A0D8122315
:103B80007CC3126348501590A0D6E0FFA3E090A03C
:103B9000D2CFF0A3EFF012235512244A122355A3DB
:103BA00012237CD31263484016122355A31263BF1D
:103BB00090A0D6E0FFA3E090A0D4CFF0A3EFF090C8
:103BC000A0D7E004F0700690A0D6E004F090A0CF5B
:103BD000E004F0E0C39404408B90A0D2E0FEA3E0A8
:103BE000FF90A0D6EEF0A3EFF090A0D412248AFEAE
:103BF000129C67EF64014E600A90A0D6E0F0A3E04B
:103C000054FEF01224A9129DC61224A990A0D2E05D
:103C10006E7003A3E06F600912457D12234F1224DA
:103C20004A12256A129C5590A0D2EE1223D07A80B7
:103C30007932129C5590A0D4EEF0A3EFF090A0D270
:103C4000E0FEA3E0FBAA06E4F9F812235DE4FCFD24
:103C5000126207E47B40FAF9F812620712234F90D0
:103C6000A0D812237CC3126348500E90A0D0E02449
:103C7000181225787420F0800C90A0D1E024F8125E
:103C800025787410F090A0CFE0FF12D7E7D32290F0
:103C9000A376E06407600312B65990A376E024FE91
:103CA000604C147003023D31147003023DDB14704C
:103CB00003023D7C147003023DE524056003023DD0
:103CC000E890A2F5E0FF24FB601E14600A1460185F
:103CD00024066003023DE812D475EFF0129B3812FF
:103CE000D46112D8DC023DE8125306023DE812D43A
:103CF0006A6003023D9690A2F5E024FA7003023D4B
:103D0000E8240424FA5003023DE8129B3890A37380
:103D1000E0FCA3E0FDC3EF9DFFEE9CFED3EF9464B7
:103D2000EE94005003023DE890A3767403F0023D48
:103D3000E890A372E030E003023DE812C81E90A2B2
:103D4000F5E014602824FB50086022146026023D30
:103D5000E812138D12BFEB5002800A12B36C5005AB
:103D600012C6F0800F90A2F57407F080077402125B
:103D7000D455803A90A3767405F0806C90A2F5E05B
:103D8000FF24FE24FD5012601214600714604124C9
:103D900006705512D475EF8015802512DBB312DF43
:103DA0004412530612E167500E90A3767402F0128B
:103DB0009B3812D461803112DE68E433FF12DD1DBE
:103DC00090A3767401F0E4FF12B9F212E0AE80180D
:103DD00012530690A3767401F0800D12D46A600825
:103DE00012C982800312DC8A02D5C712582D12E153
:103DF00073501B12CE84501312A8C7BF710A90F0E3
:103E0000D2E020E4037F01227F08227F012212A852
:103E1000C790A0CAEFF01264613E3E113E7F123E91
:103E200098133ED7213E58313E7F323E98333ED7DD
:103E3000413E98513E98613EB57100003F1A1257BD
:103E4000D1FFBF180280181257D164386003023FB7
:103E50001D1257667F1280221257D1FFBF180C1215
:103E6000576690A0CB7402F0023F1D1257D1643800
:103E70006003023F1D1257667F3212259180109019
:103E8000819AE054E864286003023F1D125766904F
:103E9000A0CB7403F0023F1D90819AE054E06420AF
:103EA000707B124B00500C12576690A0CB7404F03C
:103EB000023F1D80651268D050639090F2E030E6BA
:103EC0005C126920D3EF940CEE9400405090819ADC
:103ED000E054C07048803890A0CAE0FF12CDD612DE
:103EE0001B569081ADE030E034E4FF12B2677F01F1
:103EF00012DD1D7F0112DC4A12B98150207F0112B0
:103F0000B26712B74512337E1257D1FFBF180E1297
:103F1000576690A0CB7405F0800312582D12C1BBD8
:103F2000EFF47002EEF4600912BD3DBEFF06BFFF64
:103F30000312582DE4FF12BBA690A0CBE0FF221283
:103F400058349080247480F090801274C0F0908176
:103F5000EAE04440F090800A7408F090F0A8747F82
:103F6000F0740FF07F147E0012D074E490F0A8F08B
:103F70009081EAE054BFF090800A7401F0908012C2
:103F800074811257BB90A37BE0FF64116005EF645E
:103F900012706890F0A9E0D3940A500890F0AAE05B
:103FA0009400405790F0A8748FF07F147E0012D0D8
:103FB0007490A37BE0B4111590F0ADE0D394004071
:103FC0000CE0940A500712D47F7F11802390A37BCA
:103FD000E06412702612583412DE317410124068F8
:103FE00054E8FFBF280F12407E400A12D47F7F1290
:103FF000122591D32212DE3C1257BC90A37BE0FF26
:1040000064136005EF6451705D90F0ABE0D3940AE7
:10401000500890F0ACE09400404C1258349080125C
:1040200074C0F090800AE04408F07418124068549C
:10403000E064207022124B00501D12407E40189008
:10404000A37BE0B4510712D47F7F51800512D47F47
:104050007F13122591D3229080127481F090800AF0
:10406000E054F71257BBC322908000F09081967401
:1040700061F07F327E0012D07490819AE02212AA01
:1040800096D3EF9464EE940022C2101257D86026A3
:10409000E04480F0908B62E04404F0E04401F0E4FE
:1040A000908B61F0908B62E05407F0E054FDF0904B
:1040B0008101E0547FF0908B57E090A0CDF0908B81
:1040C00046E090A0CCF0908333E090A0D0F09083B5
:1040D00035E090A0D1F0908336E090A0D2F09081AE
:1040E00001E090A0CFF0908102E090A0CEF090830C
:1040F00002E090A0D3F0908B5774E3F09083337478
:104100009FF09083367458F09083357430F07420AB
:10411000F0908101E054D7F0908102E04422F0E475
:10412000908641F0908B46E054E7F090F050E044E8
:1041300080F090A37BE0FFB42105E4908302F0EFD0
:10414000B44105E4908302F07F327E0012D07412F5
:1041500057D1FFBF1804D2108002C21090A0D0E047
:10416000908333F090A0D1E0908335F090A0D2E01E
:10417000908336F090A0CEE0908102F090A0CFE046
:10418000908101F090A0D3E0908302F01257D860A4
:104190000790F050E0547FF090A0CCE0908B46F078
:1041A00090A0CDE0908B57F0C2111268D51257D86D
:1041B0006006908B61743FF01257D86013908B6249
:1041C000E044F8F0E04402F0E054FBF0E054FEF08C
:1041D000A21022202B0302430CC22B90A3D8E0D3C1
:1041E000940540037405F090A3D8E0FF700A74189A
:1041F00012A317F0A3F08061EFB40109740812A3B1
:104200001774188050EFB40209742012A33B74088D
:104210008043EFB40309741012A33B74208036EF7F
:10422000B40409742812A35674108029EFB4050948
:10423000743012A3567428801CEFB4060E90A0C9E7
:104240007438F0A3E4F0A37430800AE490A0C9F0BD
:10425000A3F0A37438F0A3E4F0EFB40507E490A052
:10426000C9F0A3F012A34490A0C9E0FEA3E0FF129E
:10427000CD9B90A0C9E0540FFEA3E04E70081243FE
:104280000DE4FD128FFCE490A0CDF0A3F0C390A04C
:10429000CDE09408503312A34412430D90A0CDE01A
:1042A000FCA3E0FD2FFFEC3EFEE42DFDEC34A8FC6A
:1042B000E490A0D4F0FB1282BF90A0CEE02400F0E6
:1042C00090A0CDE03401F080C4129B7590A0CAE0AC
:1042D00090A0C912A38B7D55128D4C90A0CBE0FE0F
:1042E000A3E0FF12CD9B129B7590A0CCE090A0CBD9
:1042F00012A38BFD128D4C90A3D8E0FF04F0EFC306
:1043000094054002E4F012D61712A34422129B75C2
:1043100090A0C9E0FEA3E0FF2290A0CDEEF0A3EFB5
:10432000F0D394FFEE9403400C7F0A12DEF77F0077
:104330007E4002441990871AE020E50302441C7B6A
:10434000017A8879A0129C5590A0CFEEF0A3EFF0EF
:1043500090A0CDE0FEA3E0FFE4FCFD7BFE7AFF121F
:10436000C606EF2401FFE43E90A0D1F0A3EFF07F5A
:104370000A12DEF790A0D1E0FAA3E0FBD39400EAA2
:10438000946090871DE0400554EFF080034410F0E6
:1043900090A0CFE0FEA3E0FFD39BEE9A403690A022
:1043A000D3EEF0A3EFF012C615D39DEE9C4062123F
:1043B000444690A0D112C64790A0D4E090A0D3125A
:1043C000C62B404D90A0D4E024F8F090A0D3E03468
:1043D000FFF080D290A0CFE0FFA3E090A0D3CFF079
:1043E000A3EFF012C615C39DEE9C502512444690D3
:1043F000A0D312C64790A0D2E090A0D112C62B4005
:104400001090A0D4E02408F090A0D3E03400F08015
:10441000D290A0D1E0FEA3E0FF02D6D490A0CD12AE
:10442000C64774FF9FFF74039EFE90A0CDF0A3EFDC
:10443000F0E4FCFD7BC6FA12C60690A0CDEEF0A318
:10444000EFF012DEF72290F00A7455F012D6D42263
:1044500090A034E0FEA3E0FF12A34B90A03312A380
:104460002012A39512A35FE490A0D0F0A3F090A037
:10447000D012A38494FFEE940F5026E42FFFEE3465
:1044800030FE7B017AA079D21267C790A0D2E0708B
:104490001090A0D1E004F070D590A0D0E004F0809E
:1044A000CD90A0CC12A371C000C001C002C003A374
:1044B000E0FEA3E07803C333CE33CED8F9FFE4FCAB
:1044C000FDD003D002D001D000EB2FFFEA3E12A3B3
:1044D0003312A35F90A0D2E0FBB4FE0B90A0CC12ED
:1044E000A2FB2401024544EBB4FC0A90A0CC12A22A
:1044F000FB2402804F90A0D2E0FBB4F80A90A0CC3D
:1045000012A2FB2403803DEBB4F00A90A0CC12A2CF
:10451000FB2404802F90A0D2E0FBB4E00A90A0CC52
:1045200012A2FB2405801DEBB4C00A90A0CC12A2FD
:10453000FB2406800F90A0D2E0B4801590A0CC128E
:10454000A2FB2407FFE43EFEE43DFDE43CFC12A395
:104550005F90A0CC12A2FBFFE47B1E12A35012A31B
:104560005F12A2F2FF12629290A031EEF0A3EFF080
:1045700012A2F2FF12629290A030EBF02290A0EC17
:104580001263CB0000000090A0E81263CBFFFFFF96
:10459000FFE490A0F2F0FF12D7E712250090A0F2FE
:1045A0007404F090A0F2E0C39442400302469212D9
:1045B00024C35007E0FF04F01268A3C20F129B3817
:1045C00090A0F0EEF0A3EFF012243412000E50028F
:1045D0008019908106E020E104D20F800B129B38F5
:1045E00090A0F01223B940E0200F08D21EE4FFFE95
:1045F000FDFC2290A0F2E0FF12D7E71225007B011C
:104600007A817915129C5590A0E412258290A0E43D
:10461000122358781012638090A0E41263BF90A018
:10462000E412237CC000C001C002C0037B017A8178
:104630007913129C55E4FCFDD003D002D001D000C8
:1046400090A0E412243B90A0E812235890A0E4121A
:10465000237CC3126348500E90A0E4122358A31287
:10466000252590A39AF090A0EC12235890A0E41274
:10467000237CD3126348401090A0E412235890A0EA
:10468000EC12252590A3A1F090A0F2E02404F00202
:1046900045A390A0E812237C122519C390A0E41230
:1046A000247490A0E41223582212256A129C55907B
:1046B000A0D0EEF0EF12253125E0FEEC33A3F0A3FD
:1046C000CEF07B017A817917129CA91224F9129CF1
:1046D0005590A0D4EEF0A3EFF01224F090A0D8EE05
:1046E000F0EF122531D3EF9DEE9C5011ED2410FF19
:1046F000E43CFE90A0D4F0A3EFF0129DC6E490A09D
:10470000CFF0124D1712CE4B400302479C7B017A2B
:10471000817910129C55EE540F90A0D6F0A3EFF0C3
:10472000908119E0FF54C0C413135403FEEF543FAB
:10473000FFEE607CEEB40126EFFD90A0D5E02DF0F9
:1047400090A0D4E03400F090A0D2E0FCA3E0FDD330
:1047500090A0D5E09D90A0D4E09C4002802EEED3A6
:104760009401402090A0D5E09FFF90A0D4E0940059
:10477000FEF0A3EFF0D390A0D1E09F90A0D0E09EF8
:10478000400280081224F012D10B500890A0CF7480
:10479000FFF0801C1224F0129DC680051247C0C392
:1047A0002290A0CFE004F0E0C3942050030247021F
:1047B00090A0CFE0B4FF071247C0D21FC322D3227C
:1047C00090A0D8E0FEA3E0FF129DC62290A0D8EBF7
:1047D000F0A3EAF0A3E9F0C21090A0DC7410F0E4BA
:1047E00090A0DBF090A0DC12A5ED90A0DBE0FDC373
:1047F0009FE49E503112A625A3EEF0A3EFF0EC1239
:10480000A63712E16490A0D812A5C412A61D90A0EC
:10481000EDE0B5F009A3E0B50704D210800890A040
:10482000DBE004F080BE90A0D812A5C4900007126F
:10483000618390A0DF12A5AE90001312618390A057
:10484000E112A5AE900015126183FF90A0E312A5BE
:10485000AF900018126183FF90A0E512A5AF900001
:104860001A126183FF90A0E712A5AF90001C12619D
:1048700083FF90A0E912A5AF90001712600C90A0E2
:10488000EBF090002A12600C90A0ECF012A61D90A4
:10489000A0ED12A5AF20103590A0DCE0FD90A03671
:1048A000E0FB8DF0A4FF90A0DD12A5AF12A5EFEB09
:1048B0002401FDE433FCCFCDCFCECCCE1260A1904D
:1048C000A036EDF07B017AA0792F12DDE490A0DD17
:1048D000E0FEA3E0FF90A0DCE012A63702E16190C9
:1048E000A0D4EEF0A3EFF012DD6C50030249EF907C
:1048F000A0D4E0FFA3E090A323CFF0A3EFF07B01CF
:104900007A817966129C5590A0D6EEF0A3EFF0C3A1
:1049100090A0D5E094E890A0D4E09403501990A022
:1049200049E0FFA3E0CF1220A090A0D6E0FFA3E0D3
:1049300090A0DACF02499A90A04BE0FEA3E0121FAC
:104940008C90A0D4122000126207EF24F4FFEE3402
:1049500001FEE43DFDE43CFCE47BE87A03F9F81257
:10496000629212209F54FEFF12209F121F9EC39F2F
:10497000EC9E500890A0D8ECF0A3EDF090A0D812D7
:10498000207D90A04AE090A04912207290A0D7E02C
:104990002FFF90A0D6E03E90A0DAF0A3EFF0122017
:1049A000E9129C5590A0DAE0B5061AA3E0B5071508
:1049B0007B017A817975129C5590A0D8E06E7003C6
:1049C000A3E06F602A12A24012E1591220E990A0E0
:1049D000DAE0FCA3E0FD129CA990A0D8121F3D12C2
:1049E0009CA97F507E0012D07412A24012E15D2279
:1049F000AB0775F01DEB1255A112551990A00D12C1
:104A0000550612551190A00F1255062436F582E571
:104A1000F0340012551990A0111255062438F58271
:104A2000E5F0340012551990A013125506242EF506
:104A300082E5F034001254EB90A009EE12550724E1
:104A40003AF582E5F0340012556D90A015CDF0EDE9
:104A5000125509243CF582E5F0340012556D90A002
:104A600017CDF0A3EDF090A01AEE125507243AF5F9
:104A700082E5F0340012551990A01C125506243C12
:104A8000F582E5F0340012551990A01ECFF0A3EF87
:104A9000F090A0197420F090A02C740112550A1205
:104AA000552712551990A02D125506125553F9602D
:104AB0004E75F01DEBA412555390A0111255309075
:104AC000A0111255AB90A00912553490A009EE1216
:104AD000550712555390A01512553090A015125538
:104AE000AB90A01A12553490A01AEEF0A3EFF0E9A3
:104AF000FF7E00A312553490A01CEEF0A3EFF0222D
:104B00009081B21257C690A0CCE0FEA3E0FFD394F0
:104B10000FEE94005004EF4E7002C3221257C312DE
:104B200057FE129C5590A0CEEE1258117803CEC3BA
:104B300013CE13D8F9FF7C007D061260A1D390A09C
:104B4000CDE09F90A0CCE09E4001221257FE129C27
:104B50005512577A7B807A02F9F8D3126348500CC9
:104B600090A0CCE0B41F07A3E0B4FF02C322125808
:104B700026129C5512577AFB7A02F9F8D312634831
:104B8000500C90A0CCE0B41F07A3E0B4FF02C322F6
:104B90001257C37B017A8179B5129C55EF2401FF2E
:104BA000E43E90A0CE125811FFC394C8EE9400507A
:104BB00002C322C3EF947CEE9401501590A0CC1256
:104BC00057917B3D7A0A79717842125C1F503BC342
:104BD00022C390A0CFE094DA90A0CEE094025015CA
:104BE00090A0CC1257917B337A3379497842125C8A
:104BF0001F5017C32290A0CC1257917B3D7A0A799F
:104C0000F37841125C1F5002C322D322123DEB9075
:104C1000A0C8EFF064016003024CD412D59F400697
:104C200090A0C87406F090A302E0D394004006E080
:104C300014F0024CD412D9D012C65512CE24129BB5
:104C40003890A2F312CE36D390A2EDE09F90A2EC62
:104C5000E09E500330261B12D8C090A0C9EFF09000
:104C6000A2FFE06F604590A0C9E090A2FF124D0C3A
:104C7000803990A2FAE0FFC39406500C90A0C9EFCF
:104C8000F0E4FF12DAA8800812D4D290A0C9EFF0A5
:104C900090A0C9E0FF90A2FFE06F6009EF124D0CF9
:104CA000E4FF12B15B129B3812CE2D90A2FFE09070
:104CB0009CF193B4210512E17F401090A2FFE09097
:104CC0009CF193B4410E12E18250091268B7BF04FF
:104CD0000312DB6790A0C8E0B40802802612CF9DC3
:104CE00040247F1112DB2AD3EF9400EE940040138E
:104CF00090A0C87401F012D59F400B90A0C8740614
:104D0000F0800312DF2990A0C8E0FF22F0E0909C21
:104D1000F193FF12259122908024E0540390A0DDAE
:104D2000F0E0D39401400E90802A7401F0E490806A
:104D30002BF0024E1512256A129C5590A0DEEE1241
:104D400023D07A8079D7129C5590A0E0EE1223D020
:104D50007A807934129C5590A0E2EEF0A3EFF090A7
:104D600081B1E00490A0DDF07B017A81799B129CF7
:104D700055EE541F90A0E4F0A3EFF090A0E01225B0
:104D800088C004C005C006C00790A0DDE0FCE412A6
:104D90005C96D003D002D001D000125A79E4FBFA1D
:104DA000F97841125A79C004C005C006C00790A026
:104DB000E4122588A804A905AA06AB07D007D006E7
:104DC000D005D004125B82125CCAEF2410FFE43ECF
:104DD000AB07FAD3EB94FFEA940040047A007BFF20
:104DE00090A0DE12246190A0E1E09FFF90A0E0E09F
:104DF0009EFE90A0E212248AA3F0A3EFF090A0E41C
:104E00001224619BEE9A5002AB07E490802AF09046
:104E1000802BEBF0E490802CF090802DF0227F61CD
:104E200090A047E0C31330E006EF4480FF8004EF1A
:104E3000547FFF90A048E0B40806EF54F7FF8004C9
:104E4000EF4408FF90A046E0FEC413540730E0068C
:104E5000EF54FBFF8004EF4404FFEEC4131313541C
:104E60000130E006EF4402FF8004EF54FDFF908123
:104E700050EFF07A81795B90A061121F27129CA9F4
:104E800090A065E0FEA3E0FF90815DF07A817962F9
:104E900090A067121F5BEF2DFDEE3CFC129CA990C9
:104EA000A04B121E99129CA97A81796F121FB11220
:104EB0009CA990A04B121EB4129CA990A057121E40
:104EC000A5129CA990A05BE0FEA3E0FF908160F09A
:104ED0007A81796690A05D1220A8EF2DFDEE3CFC52
:104EE000129CA97B017A817968121F9E129CA912DB
:104EF00020E990A05DE0FEA3E0FF90A05CE02FFD24
:104F000090A05BE03EFC129CA990A049121F3D12AC
:104F10009CA97B017A8179797D407C05029CA990CE
:104F2000A0CDEFF090A322F0122049502090A00FC6
:104F3000E0FFA3E090A0CECFF0A3EFF090A00DE0B3
:104F4000FFA3E090A0D0CFF0A3EFF0801E7B017A0A
:104F5000807932129C5590A0CE121F967A807936B5
:104F6000129C5590A0D0EEF0A3EFF090A0CDE0B44D
:104F7000033390A0D0121F4C7D0A12608F90A0CEF8
:104F8000E0FCA3E0FD1260A190A0D2EEF0A3EFF050
:104F9000C39410EE9400500890A0CD7402F08005E8
:104FA000E490A0CDF090A0CDE0FFB4020C90A0D290
:104FB0007405F0A37435F0805BEF6401704B90A032
:104FC000D01220007BE87A03F9F8126207121E90D3
:104FD00090A0CEE0C313FEA3E013FFE4FCFDEB2F93
:104FE000FFEA3EFEED39FDEC38FCC006C00790A09C
:104FF000CEE0FEA3E0121F8CD007D0061262929082
:10500000A0D2EEF0A3EFF0800B90A0CDE0E490A052
:10501000D2F0A3F090A0D2E0FEA3E0FF0248DF9020
:10502000A030E0FF75F01E84E5F06003025118EF38
:10503000B41E0D90A031E07002A3E0700312CEBD4B
:105040007B017AA079CB7FFF7E3F1267C790A0CB10
:10505000E0F4600312CEBD7F007E3012CD9B90A0A5
:105060003412A38490A032E09FFF90A031E09EFE16
:1050700012A34B90A03012A320C00790A033E0FBF6
:10508000D007C3EF9BFFEE9400FEED9400FDEC947F
:105090000012A37DE4FFFEFDFC90A0CC12A371C31F
:1050A000126348601790A0CC12A2FB24FFFFEE34DD
:1050B000FFFEED34FFFDEC34FF12A37D90A0CC1277
:1050C000A2FBFF12A39512A37E7B0890A0CC12A294
:1050D000F7FF12629290A0C9EEF0A3EFF0EE540F2A
:1050E00090A0C9F0A3EFF090A0CC12A2FB5407FF50
:1050F000E4EF909C829390A0CBF0129B7590A0CA95
:10510000E02400FF90A0C9E03430FE90A0CBE0FD89
:10511000E4FB128D4C12D6172290A2EEE0640560DB
:10512000030251CC12E170502912002012E0CA9003
:1051300081AB743FF09081AC741FF090F024E04498
:1051400001F012D5EF90A2EF1251FE12CE43407C37
:10515000D32212A8C7EF6471701E1268AD1251D429
:1051600012CE434002D3221268B21251E99401EEEA
:10517000648094804056D32212DF0B1251D412CE99
:10518000434002D32212DF151251E99401EE6480EC
:1051900094804002D32212C6A350012212DAD49086
:1051A000A2F11251FE9410EE6480948040028017A8
:1051B00012DAEA90A2F812CE36129C67D3EF94046A
:1051C000EE64809480400512DDAAD32212000E50B6
:1051D0000122C32290A2FDE0FCA3E0FDC3EF9DFFEE
:1051E000EE9CFE129C67D3EF2290A300E0FCA3E0AC
:1051F000FDC3EF9DFFEE9CFE129C67D3EF22E0FC07
:10520000A3E0FDC3EF9DFFEE9CFE129C67D3EF224F
:1052100090A0C8EFF070030252DE1252FC90A0C8BA
:10522000E0FB90A01112D04D90A0C9EEF0A3EFF0DA
:1052300090A01312D04D90A0CBEEF0A3EFF090A071
:10524000C9E0FFA3E090A015CFF0A3EFF012DEC5F8
:1052500090A017EEF0A3EFF090A0CBE0FEA3E0FF4C
:1052600090A018E02FF090A017E03EF090A0CAE0C8
:1052700025E0FF90A0C9E033FEC390A012E09FF0AC
:1052800090A011E09EF0A3E054FEF012DE7E5013D9
:1052900090A0CBE0FEA3E07802C333CE33CED8F9A2
:1052A000FF800D90A0CCE025E0FF90A0CBE033FE86
:1052B000C390A014E09FF090A013E09EF090A01582
:1052C000E0FEA3E0FF12DD7990A017E0FEA3E0FF6F
:1052D00012BB3C1252EA7F0212B5E002E04A12DE33
:1052E0004750031252FC1252EA2290A011E0FEA392
:1052F000E0FFA3E0FCA3E0FD12D6642212DEE3127D
:10530000A6E412AF352212A8C790A0C8EFF064211E
:105310006008E0644160030253E3C22A908672127F
:10532000C624601030E702D22A90A0C8E054BFF033
:10533000908672F090867312C624FF602B30E602CE
:10534000D22AEF30E01A12E0D7BF011112E0EF903D
:105350008744E054606F6008129CFD8003122FD9CF
:1053600090A0C8E0908673F090867412C624FF6007
:1053700023908880E06015A3E06011EF30E0031215
:1053800053E490A0C8E030E1031253E490A0C8E0D9
:10539000908674F090867C12C624FF604630E73B0E
:1053A00012DE68500D12CBBE500812DD9E40031273
:1053B0009CFD12DE68501212CBBE400D12DD9E50D5
:1053C0000812DCB74003129CFD12DE68500D12CBB0
:1053D000BE500812DBC55003129CFD90A0C8E0909F
:1053E000867CF022908605E04402F0E054FDF07FD8
:1053F000057E0012D0742290F01CE030E01412D828
:105400009374F0F0741C12D89B74F0F0A3743AF00B
:10541000805590F01EE030E01412D89374F0F074D0
:105420001E12D89B74F0F0A37442F0803A90F0857D
:10543000E030E01512D89374F0F0A3748512D89C74
:1054400074F0F0A3748AF0801E90F087E030E015CD
:1054500012D89374F0F0A3748712D89C74F0F0A360
:105460007492F08002C32212D885543C90A0CAF0F6
:10547000448112605B90A0CE12D888540390A0C9DA
:10548000F08045129B3890A0D1E0FCA3E0FDC3EF73
:105490009DFFEE9CFEC3EF94F4EE9401502F90F02C
:1054A0000A7455F090A0CE12D8885403FF90A0C97A
:1054B000E06F6005EFF01254CF12D88530E0C49051
:1054C000A0CAE0448112605B1254CF80B6D322128E
:1054D0009B3890A0D1EEF0A3EFF02290A0C8E07529
:1054E000F01DA42430F582E5F03400F583E493FE4A
:1054F000740193FF2290A0C8E075F01DA42427F545
:1055000082E5F0340022CFF0EFA3F075F01DEBA49C
:10551000222434F582E5F03400F583E493FF74012E
:10552000932275F01DEDA42441F582E5F0340022AC
:10553000FAFF7E00E0FCA3E0FD02608F90A0D0E0C7
:10554000F8A3E0F9A3E0FAA3E0FB2290A0C8E0757D
:10555000F01D222426F582E5F03400F583E4932241
:1055600075F01DA42429F582E5F0340022F583E4CA
:1055700093FD740193227B017AA0790222FC90A012
:10558000D00263BFE0FCA3E0FDA3E0FEA3E0FF22A6
:10559000F583740193F422A42434F582E5F03400F9
:1055A00022A42432F582E5F0340022EEF0A3EFF0DD
:1055B000EAFF7E0022E490A0D8F0A3F012E1499027
:1055C000A0DBEFF090A0DD7401F0A374FFF0A3F076
:1055D000E490A0DCF012E14990A0DAEFF0A3E06FD4
:1055E0006005E490A0DDF090A0DDE0B4010F90A094
:1055F000DCE0D39403400690A0DB02568890A0DE46
:10560000E0FFB4FF0A90A0DAE090A0DEF0803490D2
:10561000A0DAE0FE6F602C90A0DFE0FFB4FF04EEA4
:10562000F0802090A0DAE0FE6F601890A0DFE0FF2D
:1056300090A0DEE02FFFEE2F75F0038404FF90A012
:10564000DBF02290A0DAE0FF90A0D9E02FF090A04C
:10565000D8E03400F07F0112B5E090A0DCE004F067
:10566000E0C3941450030255D590A0DCE0FDC313B1
:10567000FF90A0D9E02FFF90A0D8E03400FE7C007E
:105680001260A190A0DBEFF0E004F0E0FF2290A513
:1056900067EFF0302106E070030257561268B7BF7B
:1056A000050312690790A567E0701012690C50039A
:1056B0000257561269115003025756E49082E0F0E7
:1056C000FF1269169082B674FFF0908B577483F0C6
:1056D0009081EAE054BFF09080127481F090800ACB
:1056E0007401F012DE3C12D6AF1268FD12DF019099
:1056F0008B467418F0908B5A7404F0E4908B55F03C
:10570000908B567404F0908B547422F09081F5E0E5
:1057100054BFF09081F6E054F8F0E49081F7F090F7
:105720008B577403F0C2111268D5908B61743FF0EF
:10573000908B62E044F8F0E04402F0E054FBF0E0CB
:1057400054FEF090F050E0546FF0125757F58B1262
:105750005757F58DD221227FC07EC67D2D7C001249
:10576000D68AEFF404229081AB743FF09081AC7440
:105770001FF090F024E04401F02290A0CCEEF0A3C2
:10578000EFF090A0CCE0FEA3E0FFE4FCFD2290A3AC
:105790007EE0FCA3E0FDE4025C9190F056F0908383
:1057A000337407F090833474F1F09083367448F0CA
:1057B000908330740DF07F027E0022F0908B57743E
:1057C00083F0229081B1E0FF90A0CCE4F0A3EFF051
:1057D0002290819AE054F822908101E0540F640DE8
:1057E00022E0FEA3E0FBAA06E4F9F8227B407A1F40
:1057F000F9F8C3026348EE541FF0A3EFF0227B01D7
:105800007A81799B22FFE43EFEE43DFDE43CFCE42A
:1058100022F0A3EFF090A0CEE0FEA3E0227BE07A9E
:1058200001F8D30263487B017A81799D2290A0CB55
:105830007401F022908B57748BF02290A0D8EBF07B
:10584000A3EAF0A3E9F0C21090A0DC7410F0E49099
:10585000A0DBF090A0DC12A5ED90A0DBE0FDC39FE3
:10586000E49E502E12A625ECFD7C007B017AA079E7
:10587000DD12E16412A5C112A61D90A0EBE0B5F007
:1058800009A3E0B50704D210800890A0DBE004F083
:1058900080C130106B90A0DDE0FEA3E0FF12A5C137
:1058A000900007EE8FF01261DA90A0DFE0FFA3E036
:1058B00090001312A60090A0E1E0FFA3E090001575
:1058C00012A60090A0E3E0FFA3E090001812A6004B
:1058D00090A0E5E0FFA3E090001A12A60090A0E7D8
:1058E000E0FFA3E090001C12A60090A0E9E0900069
:1058F0001712606D90A0EAE090002A12606DD3222A
:10590000C32290A0CBEFF0A3EDF0A3740AF012D362
:10591000A5C209908280E054C07005E05430600256
:10592000C32220003890A0CBE024EF601424F16063
:105930001A1460212411702590A0CCE012DA9D8009
:105940001C90A0CCE0908284F0801290A0CCE090DB
:105950008285F0800890A0CCE0908286F07F017E66
:105960000012D074300B0AC20B90A0CDE014F0806E
:1059700005E490A0CDF090A0CDE07092A200B322FB
:1059800022025D36E86480F8E933E8336011046090
:10599000F0ED33EC337009E8FCE9FDEAFEEBFF22A1
:1059A0000460DED3EB9FEA9EE99DE8C2E78CF0C27B
:1059B000F795F0400CE8CCF8E9CDF9EACEFAEBCF58
:1059C000FB125D0185D0F05804700320D5B3E804C4
:1059D00070075002B2D5025D4092D5EC0460F7E446
:1059E000CCC0E0C398F8603B94186008400DD0E04C
:1059F000FB025D18E4FBFAC9FC8028E830E406E409
:105A0000C9FBE4CAFCE830E305E4C9CACBFCE854AE
:105A1000076010F8C3E913F9EA13FAEB13FBEC1370
:105A2000FCD8F130F52FC3E49CFCEF9BFFEE9AFE0F
:105A3000ED99FDD0E0FBEF4E4D4C701222DB0302DE
:105A40005D3DEC2CFCEF33FFEE33FEED33FDED302E
:105A5000E7EB025D18EF2BFFEE3AFEED39FDD0E0EB
:105A6000FB50130BBB0003025D40ED13FDEE13FE74
:105A7000EF13FFEC13FC025D18EC4D6011E8497068
:105A800017ED33EC3304600DE4FCFFFEFD22E93337
:105A9000E8330470F8025D36125D0158046009E4D1
:105AA000CC24815006285009025D40284003025D45
:105AB0003DC0E0EB4A7044B98006D0E0FB025D2CAB
:105AC000EF4E701CBD8008EBFFEAFEE9FD80EBE9BC
:105AD0008DF0A4FEE5F0025B62E9CDF9EAFEEBFF92
