:020000020000FC
:100000000283E002726F111213417102832D7E038D
:100010007F13220276C2EE30E707C3E49FFFE49E1F
:10002000FE22220287C000013B02BC0F60020320B7
:1000300001C10280015E0280015E002200380C0CCA
:1000400003010000017B03530F4003034001BD0285
:1000500080015E0280015E005100390C0C03040037
:1000600000013B02BC0F6002032001C1028001902D
:1000700002800190002200200C0C03020000017B92
:1000800003530F4003034001BD0280019002800131
:1000900090005200260C0C03050000013B02580F93
:1000A00060020320020D028001E0028001E00022D4
:1000B000001E0C0C03070000015E029B0F400303AF
:1000C00060020D028001E0028001E0005100240C7A
:1000D0000C03090000017B02D80F2803034002082B
:1000E000028001E0028001E0007200190C0C030A9A
:1000F0000000017702EE0F4003034801F402800183
:10010000E0028001E0006A000D0C0C030B0000010E
:10011000B103520F3803034001FD028001E0028069
:1001200001E0004200160C0C030C000001350240F7
:100130000F200A03300219028001F4028001F4004A
:100140004200030C0C030D0000013B02BD0F6C02CA
:10015000038401C102D0019002D001900028002048
:100160000C0C03030000017B03520F480203A8019B
:10017000BE02D0019002D00190005C00270C0C035D
:1001800006000001F102E90F40030480029B0340D6
:1001900002700340027000D0001A0C0C030E000025
:1001A000016002330F480204000271032002580369
:1001B000200258007100130C0C030F0000017B0299
:1001C0005B0F8004042002740320025803200258AD
:1001D000004900140C0C0310000001E102D20F785A
:1001E000060410029A03200258032002580031002E
:1001F000140C0C0311000001D502EE0F5003042073
:1002000002710320025803200258009100120C0CC6
:1002100003120000021903530F400304180277036E
:1002200020025803200258008900180C0C03130008
:1002300000013602580F700804400205035001E027
:10024000035001E0006100140C0C03140000012AAB
:1002500002550F5005042001F4035001E003500142
:10026000E0005A00090C0C03150000015E02BC0FEF
:100270005803043001F4035001E0035001E0006131
:10028000000D0C0C03160000016902D00F58030486
:100290004001F5035001E0035001E00069000E0C3D
:1002A0000C03170000017902EC0F5005044001F81F
:1002B000035001E0035001E0006A000D0C0C03182C
:1002C0000000016702570F48070390025702D0024F
:1002D0004002D002400051000A0C0C03190000013A
:1002E0006303660FB00204F00198040003000400E9
:1002F0000300002900110C0C031A010001E402584C
:100300000F880605400326040003000400030000D4
:1003100091001A0C0C031B0000023502BD0F880669
:100320000530032604000300040003000081001AC6
:100330000C0C031C0000024102D00F700305500397
:100340002104000300040003000097001A0C0C03B2
:100350001D0000025802EE0F600305200320040078
:1003600003000400030000A000190C0C031E000091
:10037000026302F80F600305500323040003000426
:10038000000300009D001C0C0C0368000002AF037A
:10039000520F6003056003280400030004000300FB
:1003A00000BF00210C0C031F000001C102580F7098
:1003B0000605D002EC048002D0048002D00099002F
:1003C000100C0C03210000021C02580F600305C82A
:1003D0000384048003600480036000A000190C0CF7
:1003E00003690000027F02BC0F600305C80390048C
:1003F0008003600480036000B700290C0C03230015
:100400000002A302EE0F8003064003840480036011
:100410000480036000EF001D0C0C032400000303A4
:10042000034F0F78040610038E04800360048003DA
:100430006000B600240C0C0325000002AF02EF0F91
:10044000800305B003930480036604800366008084
:1004500000240C0C03260000026A02940F8004059D
:10046000E003A9048003840480038400B0001C0C12
:100470000C0327000002CD02F90F600805C003AF8E
:10048000048003840480038400BF001E0C0C032836
:10049000000001C202580F2805067202EE05000294
:1004A000D0050002D000CC00110C0C032200000289
:1004B0003502EC0F800506A002F3050002D005000E
:1004C00002D000C000180C0C032A000001DA025808
:1004D0000F200705A0031605000300050003000018
:1004E0004000090C0C032B000001DE02570F8007AF
:1004F0000680031E050003000500030000B1001183
:100500000C0C032C0000023502BD0F800706A0036F
:1005100026050003000500030000C500190C0C03AC
:100520006A0000024102D10F800706A003200500E7
:1005300003000500030000C5001A0C0C036B00004B
:10054000025B02ED0F800706A003250500030005EE
:1005500000030000C000180C0C032F000002AE03C3
:10056000500F880706B003290500030005000300AB
:1005700000C8001C0C0C0320000001ED02570F20E6
:100580000605A003370500032005000320004100F5
:100590000B0C0C0330000001F102560F8006069090
:1005A000033F050003200500032000B900150C0CD3
:1005B00003310000020802710F480306A003410541
:1005C0000003200500032000C1001A0C0C033200B8
:1005D00000025902D00F880306B003420500032031
:1005E0000500032000C8001B0C0C0333000002753B
:1005F00002EE0F800606A003460500032005000357
:100600002000C0001A0C0C0334000002CC03510F70
:10061000880606B0034B050003200500032000C830
:10062000001F0C0C03350000025802580F7003071E
:100630000803E8050003C0050003C0012700210CE2
:100640000C0336000002EE02EE0F9003069003E862
:10065000050003C0050003C000E000240C0C036E7D
:100660000000035B03520FA00306C003F305000361
:10067000C0050003C000CD002C0C0C0337000002A5
:100680008002580F70030698042A05000400050034
:10069000040000E700230C0C0338000002CD02A088
:1006A0000F70030660042B05000400050004000021
:1006B000CF001E0C0C036C000002ED02BB0FA00467
:1006C00006A00430050004000500040000CE002749
:1006D0000C0C0339000002E802BC0F7005068E0402
:1006E00028050004000500040000C6001F0C0C03D0
:1006F0003A0000030B02D00F880506C0043A05003B
:1007000004000500040000CE00310C0C033B000087
:10071000032002EE0F64140698042A050004000565
:1007200000040000E600230C0C033C0000032C0234
:10073000FA0F40080680042A0500040005000400A2
:100740000110001D0C0C033D0000039003520FA08C
:100750000306C00430050004000500040000CD00BD
:10076000290C0C033E000001DD02580F7006070043
:10077000031B055003000550030000F0000F0C0C94
:10078000032D000001DD02560F8F030700031E0535
:100790005603000556030000C600150C0C032E007E
:1007A00000028702580F2004061804380578041A3E
:1007B0000578041A003F00140C0C033F0000028D62
:1007C00002580F9004074804410578041A0578047C
:1007D0001A00D8001D0C0C03410000033702ED0F76
:1007E00090040768044B0578041A0578041A00E79A
:1007F00000270C0C0343000003AB03520F980407BF
:100800007804510578041A0578041A00EF002D0CBD
:100810000C03450000022B02570F20060640039EE2
:1008200005A0038405A003840040000E0C0C0346C1
:100830000000022F02570F9806077003A605A003B9
:100840008405A0038400D800160C0C0348000002A5
:10085000C202EE0F9806079003AE05A0038405A020
:10086000038400E8001E0C0C03290000022B025830
:100870000F200506E0039E06400384064003840023
:100880003F000F0C0C03470000026902570F2006BF
:1008900006E00405064003E8064003E8003F0011B7
:1008A0000C0C03490000026E02570FA80608500402
:1008B0000E064003E8064003E800F7001A0C0C039C
:1008C0004A0000031002EC0FA80608700417064047
:1008D00003E8064003E8010500230C0C034B00006D
:1008E00002E402570F200406E004D3064004B006D9
:1008F0004004B0003E001A0C0C034C000002EE0253
:10090000580FC004087004E2064004B0064004B06A
:10091000011D002B0C0C034E0000032D028A0FC09A
:1009200003087004E2064004B0064004B0011C0055
:100930002B0C0C034F0000036B02BC0FC0030870AC
:1009400004E2064004B0064004B0011C002B0C0C6D
:100950000350000003AA02EE0FC003087004E20671
:100960004004B0064004B0011C002B0C0C035100E5
:1009700000028702570F2006073004380690041A39
:100980000690041A003F00120C0C03400000028D78
:1009900002580FB00608C004410690041A069004DD
:1009A0001A0107001B0C0C03420000033702ED0F75
:1009B000B00608E0044B0690041A0690041A0117CA
:1009C00000250C0C03440000031B02570FA8070866
:1009D00070052F0640050006400500010500220CA9
:1009E0000C03520000029A02570F200508200457FA
:1009F0000780043807800438004000130C0C0353B0
:100A0000000002A002580FC8050A10046007800405
:100A100038078004380137001D0C0C035400000215
:100A2000A302580F2C050898046507800438078036
:100A30000438008200210C0C03570000026601F408
:100A40000F2006082004CD078004B0078004B00002
:100A50003E00110C0C0355000002E402580F200662
:100A6000082004D3078004B0078004B0003D0017BD
:100A70000C0C034D000002EA02570FC8060A2004BE
:100A8000DD078004B0078004B0013E00210C0C0398
:100A9000560000013B02580F3E09035A020D02D0D6
:100AA00001E002D001E0002E001B0C0C0308000046
:100AB000013901F40F40050360027102D0024002C7
:100AC000D00240003600240C0C03580000016802DC
:100AD000580F40050390025802D0024002D0024055
:100AE0000063000F0C0C036D0000017701F40F2868
:100AF0000507BC02EE050002D0050002D000CD00C3
:100B0000110C0C03590000023301F40F2C050A509C
:100B100004650780043807800438008500230C0C26
:100B2000035A0000009D02580F3E02035A010602BC
:100B3000D001E002D001E0002C000C0C0C035B01A2
:100B400000009D02580F7C0206B4010605A001E0DA
:100B500005A001E00058000C0C0C035C0100009D96
:100B600002580FF8020D6801060B4001E00B40012E
:100B7000E000B0000C0C0C035D0100015202580FA4
:100B80002C02089802320780043807800438008558
:100B9000000C0C0C035E0100009D01F40F3F0103EB
:100BA00060013802D0024002D00240003800100C30
:100BB0000C035F0100009D01F40F7E0106C00138A7
:100BC00005A0024005A00240007000100C0C03605C
:100BD0000100009D01F40FFC010D8001380B400263
:100BE000400B40024000E000100C0C0361010001CA
:100BF0004202030FA816090002710780043807801B
:100C000004380084000C0C0C03620100011901F48B
:100C10000F2C020A50023207800438078004380083
:100C200084000C0C0C0363010002BD02570F20036B
:100C300008A004A10800048008000480003E0016FB
:100C40000C0C0364000002CC02580FD8030AC00445
:100C5000AB0800048008000480015200200C0C0343
:100C6000650000017902580F80050698027405009E
:100C7000025805000258005100140C0C03660000D5
:100C8000017502570F8806052002700400025804FF
:100C90000002580090000B0C0C03670000013901A2
:100CA000F40FA80509000271078004380780043892
:100CB00000B800390C0C036F010002AF025801307C
:100CC0000508980479073A040C073A040C00C000A0
:100CD000330C0C036F0200FFFFFFFFFFFFFFFFFF5E
:100CE000FFFFFFFFFFFFFFFFFFFFFFFFFFFFFFFF14
:100CF000FFFFFF01800001800801800A01800F01D1
:100D00008020018021018023018024018025018031
:100D1000260180380181960180120180720181E6EE
:100D20001000F000818100800000102000010110FF
:100D300000F0008181008000801021000001180077
:100D4000F8008101408000801021C010511000F097
:100D50000083010882000000900000011000F000F4
:100D600081810081000010200001011000F000814D
:100D7000810081008010210000011800F80081012D
:100D8000408100801021C010511000F00083010844
:100D900086000000900000011803F8008101C08067
:100DA00000801021C010511803F8008101C081009B
:100DB000801021C010511000F0008301088700004E
:100DC000009000000124C8EB3E9CF10443872C22D4
:100DD0000DDA6DF94C25CA0403A9636D9FA37162F6
:100DE0000EB4FB29BAB4FBD9DB0C9ED35A0ADD7CC6
:100DF0005A9E9F88150B341320BBFC2C3624C160EF
:100E0000CFC2565580115D2A61D08CEFF120E7AC3E
:100E10005DD4C3D411758D333CA9952C4D13145159
:100E2000A548EB5A6899C6BEF04AA74D64307722B0
:100E300052A423BD96AAAA3E44B88FEA236FE7B412
:100E4000EFE7661B3CB03E836D5CBEA495880D0B3E
:100E5000A4FA9602B5C4E5D89AAB7FF76EAA90952E
:100E600073C58202873FD0C4FABF5DFC5D5518246C
:100E7000DE63A7127225666EB46E9F185DC136C719
:100E8000BAD05634CE62906C7264317118731E8D74
:100E9000DF13FB66ACB2A31AE7B359BD97B14CC9D7
:100EA00052934FAA633FF0863581C1114989602A68
:100EB000AB96B7D25868BA862FC97EE81D770F3631
:100EC00020FCCC3EDB3398EF82CC5174D53A08E459
:100ED000BBA3276AFF596BBC098AD45C0031873EEB
:100EE00020386800010203040500908154E090A0BE
:100EF000DBF0908150E090A0DAF0908188E090A043
:100F0000DD12200EE4908154F07B017A8179711218
:100F10008F8290A0DEEEF0A3EFF090A0DE121EFA1A
:100F2000128FC490A0DAE04420908150F07B017AC7
:100F3000817984128AF990A0E6EEF0EF121F2B124D
:100F40001FCBC004C005C006C00790A0E6121E83D8
:100F5000D007D006D005D0041257D790A0DE60236A
:100F60004021121F30121FCBC004C005C006C007AD
:100F700090A0E6121F30D003D002D001D00012554D
:100F80003C8027121F307BCD7ACC79CC783D12562D
:100F900031C004C005C006C00790A0E6121F30D0C3
:100FA00003D002D001D0001255401220B91220ED1A
:100FB000128AF9EE540F90A0F4F0A3EF122021FF53
:100FC00090A0F4E0FCA3E0FDC39FEC9E5003021050
:100FD000621220E3ED9FEC9E400302106290A35F3B
:100FE000121E75FFE4125844C004C005C006C007B5
:100FF00090A0F0121F97125849D003D002D001D010
:1010000000125631C004C005C006C00790A0DE1211
:101010001E83D007D006D005D00412573AC004C0B2
:1010200005C006C007121F94121E89D007D006D033
:1010300005D004122053121E75FFC004C005C0065F
:10104000C00790A0F8121E75FBAA06A905A804D037
:1010500007D006D005D004C3EF1220AD121F6512D1
:10106000B5289081867401F09081887406F07F50D5
:101070007E0012CA80128FF45003021361E490A024
:10108000F4F0A3F090A0E8125F830000000090A0AD
:10109000EC125F8300000000E490A0DCF0908188F7
:1010A0007406F07F0112AD331220ED128AF990A080
:1010B000F5E02FF090A0F4E03EF012D7F590A0E814
:1010C000121ED05018C000C001C002C00312A17788
:1010D000D003D002D001D000121FD58019C000C0AB
:1010E00001C002C00312208E128878D003D002D033
:1010F00001D00012209590A0E8125F77908188744B
:1011000002F090A0EC121ED0C000C001C002C003CB
:1011100012208E128878D003D002D001D000122085
:101120009590A0EC125F7790A0DCE004F0E0C3940F
:1011300004500302109D90A0F5E02402FF90A0F45B
:10114000E03400FE7C007D04125CAEEEF0A3EFF014
:10115000121E72121F6B90A0E8125F7790A0EC1223
:101160001E75121F6B90A0EC125F7790A0DEE0FE60
:10117000A3E0121FF290A0EC121E75FF125E4A90BF
:10118000A0E2121E5BFF125E4A90A0E4121E5BFFFB
:10119000125E4A90A0E0EEF0EF121F2B121FCBC0A0
:1011A00004C005C006C00790A0E2121E83D007D07D
:1011B00006D005D00412553C1220B990A0F0121FA1
:1011C00097125849C004C005C006C00790A0E0129D
:1011D0001F30D003D002D001D000125631C004C05D
:1011E00005C006C00790A0DE121E83D007D006D02F
:1011F00005D00412573A12588290A0E5E02FFF90D4
:10120000A0E4E03EAB07FA7D09121EDC40030212A7
:101210007A121F457D07125C471D121EEB40030228
:10122000127A121F457D05125C470D121EEB40031A
:1012300002127A7D03121EDC4002803E121F45120C
:101240001EE940028034C3E49FFFE49EFE121EEEBE
:10125000400590A0F68024121F457D03125C477D57
:1012600006125CAEC3E49FFFE49EFE121EEE400237
:101270008008121F457D06125CAEA3EEF0A3EFF0CE
:1012800090A0E412204290A0F7E09FFF90A0F6E02B
:101290009E90A0F2F0A3EFF090A35F121E75FFE402
:1012A000125844C004C005C006C00790A0F2121F27
:1012B00097125849D003D002D001D000125631C045
:1012C00004C005C006C00790A0E0121E83D007D05E
:1012D00006D005D00412573AC004C005C006C007A6
:1012E000121F94121E89D007D006D005D0041220F8
:1012F00053121ED090A0F8121E75FF121FD5121F98
:1013000065121F457D02125CAEED4C604890A35FF4
:10131000121E75FFE4125844C004C005C006C00781
:10132000121F94121E89D007D006D005D004125780
:101330003AC004C005C006C007122063125849D045
:1013400003D002D001D000121F5F7B017A81795E49
:10135000122063800690A0F4121EA1128FC412B551
:101360002890A0DBE0908154F0E4908186F090A07A
:10137000DAE0908150F07B017A81796412201712B3
:101380008FC490A0DD121FBE2212D3B57F0F12D9D9
:10139000C212DA51EF6405700302160374FF90A0C5
:1013A000BFF0A3F090A0C5125F83FFFFFFFF129074
:1013B000ED90A0BCEFF0C20FE490A0B9F01293AC96
:1013C0001294477003E493F470030215C712D7F523
:1013D000E433FF90A0B9E0FD75F01D1293DDF583B5
:1013E00074019354016F7001E460030215BE75F03F
:1013F0001DED12944E1293A290A009E0FCA3E0FD13
:10140000D39FEC9E402E129392C3ED9FFFEC9EFE65
:10141000120016D390A0C0E09F90A0BFE09E4014A1
:1014200012939212177F90A0BFEEF0A3EFF090A05E
:10143000B9E0A3F01293AC1293A212175D90A0B979
:10144000E0FD75F01DA4243EF582E5F03400F5833F
:10145000E493FBD3EF9B7480F86E9840030215BEB3
:10146000ED1294171293A212176E129402A4243F45
:10147000F582E5F03400F583E493FDD3EF9D7480AD
:10148000F86E9840030215BE12DA51BF021B129487
:1014900002A4242BF582E5F03400F583E493FF9059
:1014A000A004E05F70030215BE90A009E0FFA3E076
:1014B00090A0BDCFF0A3EFF012D7F5500D90A0BED5
:1014C000E025E0F090A0BDE033F090A0B9E0FF751A
:1014D000F01D12944EF583E493FC740193FDD390B8
:1014E000A0BEE09D90A0BDE09C50030215BED20FAF
:1014F000EF1294171293A212176EC006C007129330
:10150000AC1293A212175DD0E02FFFD0E03EFE3365
:1015100095E0FD1294341293F3C000C001C002C0E4
:101520000312939212177FEF7802C333CE33CED8D3
:10153000F9FFEE3395E0FDFCD003D002D001D000DE
:10154000EB2FFFEA3EFEE93DFDE83C129434129495
:1015500002A4242DF582E5F03400F583E493FF9096
:10156000A0BCE0C39FFFE49400FE120016EE33958A
:10157000E0FDFCC004C005C006C007E47F64FEFDBA
:10158000FC1293F3125DBFD003D002D001D000EF64
:101590002BFFEE3AFEED39FDEC3812943490A0C5E5
:1015A00012943B1293F3C3125F00501290A0C11229
:1015B000943BA3125F7790A0B9E090A0BBF090A0FD
:1015C000B9E004F00213BD300F1590A0BBE0FF128C
:1015D000499312942D12946C500302175C801E9054
:1015E000A0BAE0FF12499390A02BE0FF74FFF0A394
:1015F000EFF012942D12946C500302175C12942D8C
:1016000002488012BF5590A0BAEEF0A3EFF012D7B7
:10161000F5500D90A0BBE025E0F090A0BAE033F0CB
:1016200012BF0990A00BEEF0A3EFF090A0BAE0FF7C
:10163000A3E090A00DCFF0A3EFF090A00BE0FFA3EC
:10164000E090A00FCFF0A3EFF090A00DE0FFA3E09B
:1016500090A011CFF0A3EFF0E4A3F0A3F0A304F067
:10166000A374E0F090A013E0FFA3E090A01ACFF0E5
:10167000A3EFF090A015E0FFA3E090A01CCFF0A393
:10168000EFF090A02B74FFF0A3E4F090A0B9F090DD
:10169000A0B9E0FF1293B01294477003E493F47082
:1016A0000302175C75F01DEFA42436F582E5F034D3
:1016B000001293A2C390A00CE090A00B121790D33D
:1016C000EF9405EE64809480400302175312940255
:1016D000A42438F582E5F034001293A2C390A00E42
:1016E000E090A00D121790D3EF9406EE64809480E2
:1016F00050611293AC1293A2C390A001E090A0009D
:10170000121799504E12940212941A1293A2C39077
:10171000A003E090A002121799503890A0B9E0FF02
:1017200075F01D12945812942490A00BCDF0A3EDE7
:10173000F075F01DEFA41293C890A00DCFF0A3EFA9
:10174000F01294021293DD1293D090A02BCFF0A34D
:10175000EFF02290A0B9E004F002168F22C390A00F
:1017600001E09FFF90A000E09EFE12001622C390B1
:10177000A003E09FFF90A002E09EFE12001622C38D
:1017800090A00AE09FFF90A009E09EFE12001622A2
:101790009FFFE09EFE120016229FFFE09EFE1200B9
:1017A00016C3EF940AEE64809480229081EDE0905D
:1017B000A0D5F09081EDE04401F0E4FCFD90815073
:1017C000E04420121FF97B017A807936128F8290D3
:1017D000A0C5121F837A807932128F8290A0C7EE43
:1017E000F0A3EFF0D3E0940090A0C7E09404401081
:1017F00090A0C5E094055008124DC012D0BFC3227E
:1018000012A20F90A0C3EEF0A3EFF012D7F5500490
:10181000D2108002C21090A048E0FFA3E090A0D3B5
:10182000CFF0EF1220207803CEC313CE13D8F9786F
:1018300003C333CE33CED8F92408FFE43E90A0CDC5
:10184000F0A3EFF0121FB5C394F0EC940F40030225
:1018500018E2E41258491220A2C004C005C006C014
:101860000790A0D3121F30D003D002D001D00012B5
:101870002001C004C005C006C00790A393121E75C6
:10188000FFE4125844121E8CD007D006D005D004B5
:1018900012573AC004C005C006C007121E80D00708
:1018A000D006D005D004121EBC121F5F30100F905E
:1018B000A35F121E75FF7801125F38121F6590A09A
:1018C0004A121E75FF90A35F121ED0D3125F005004
:1018D0001190A0CEE02408F090A0CDE03400F002FA
:1018E00018441220E390A0CEE09F90A0CDE09E404F
:1018F0000CA3E024F8F090A0CDE034FFF090A04ECF
:10190000121E75FF90A35F121ED0D3125F004042DB
:1019100090A04E121E75FF90A0C9125F777F407E87
:10192000C17DFC7C1090A35F121ED0D3125F0040DB
:101930000A90A0C9125F8310FCC14090A0DD740121
:10194000F0A374A0F0A374C9F07B017AA079BD1252
:101950003AFE90A0D3121E95128FC4121EAD128FA4
:10196000C4121EAD128FC490A0CD121F301220A23F
:10197000C004C005C006C00790A0D3121F30D0031A
:10198000D002D001D000122001C004C005C006C0A2
:101990000790A393121E75FFE4125844121E8CD0B8
:1019A00007D006D005D00412573AC004C005C006BF
:1019B000C007121E80D007D006D005D004121EBC6E
:1019C000121F5F30100F90A35F121E75FF78011277
:1019D0005F38121F6512B52812CC6550057F0212C0
:1019E000AD337F507E0012CA80128FF45003021B69
:1019F0002630101A12CC655054908020E054FBF031
:101A00007F0112AD33908020E04404F0803F12202B
:101A1000ED128AF9EE540F90A0BBF0A3EFF090A066
:101A2000CD12204290A0BCE09FFF90A0BBE09EFEA4
:101A3000120016C3EF9405EE64809480500F90A0BE
:101A4000BBE0FFA3E090A0CDCFF0A3EFF090A35FA9
:101A5000121E75FFE412584479207841122008C004
:101A600004C005C006C00790A0CD121E83D007D0C9
:101A700006D005D00412573AC004C005C006C007FE
:101A800090A37E121E83D007D006D005D00412206A
:101A90002A90A0CFEEF0FCA3EFF0FD7B017A8179D4
:101AA0005B128FC47A817962121F9E128FC490A03C
:101AB000D312204290A049E090A04812207290A03A
:101AC00064E0FCA3E0FD90A063E02DFD90A062E047
:101AD0003CCD2FFFED3EFE90A0BBF0FCA3EFF0FD50
:101AE0007B017A81796F128FC47B017A81795E12D2
:101AF0001FB5128FC412CC65402C90A048E0FEA305
:101B0000E0FF90A0D3E06E7003A3E06F60189081B7
:101B100050E0FF90A0BBE4F0A3EFF090A0BBA3E0E7
:101B200054DF908150F090A048121EFA128FC41218
:101B3000A84C1220F4128FF44005120EEA8006120F
:101B40004DC012D0BF1261C590A0D5E09081EDF0DC
:101B5000D3227BFF7A8E798312B5A790F024E054CC
:101B6000FEF0908306E090A0C1F0908310E090A07A
:101B7000C2F0908311E090A0C3F0908336E090A073
:101B8000C4F0908336E054DFF0908630E030E72FE9
:101B9000121E539083397416F09081ADE090833A11
:101BA00030E00574A0F080037460F0908E79E493C7
:101BB00090833EF0908E7AE49390833F021E2A90A9
:101BC0008330740DF0908339F090833A7460F01292
:101BD0001E539081ADE020E003021E0390819AE045
:101BE00054F864186003021E039083117422F0906D
:101BF00083107413F0E490A0BDF090A0BDE0FFC38B
:101C000094034003021E03EF908E6E9390A0CAF0DF
:101C1000908330F0E490A0BEF090A0BEE0FF25E0FD
:101C20002471F582E4348EF583E49390A0CBF0EF39
:101C300025E02472F582E4348EF583E49390A0CC01
:101C4000F090A0CBE0908339F090A0CCE090833A64
:101C5000F0E490A0BFF090A0BFE0FF25E02479F56C
:101C600082E4348EF583E49390A0CDF0EF25E02458
:101C70007AF582E4348EF583E49390A0CEF090A0C0
:101C8000CDE0FF90833EF090A0CE12B5C1F0E4907D
:101C9000A0CFF074FFA3F0A3F0E490A0C0F090A058
:101CA000C0E0FFC394034003021D7074D22F12B52D
:101CB00099E4F0908306EFF0908309E04401F090FE
:101CC00083107413F0128E8E90A0C8EEF0A3EFF084
:101CD0007F017E0012CA80908310E020E312128EF2
:101CE0008E90A0C812B5B4C3EF941EEE940040E0ED
:101CF0009081ADE020E01112B58B12B5D190A0BF5C
:101D0000F090A0BEF0021D67908308E05407705168
:101D100090A0C504F0A37483F0A37417F0E4FF90BF
:101D2000A0C5E0FBA3E0FAA3E0F9125BABFD90A035
:101D3000D1E02DF090A0D0E03400F090A0C5A3E455
:101D400075F001125CFAA9F0FA125BAB700C12B5D7
:101D500093E004F090A0CFE004F00FEFB405C08052
:101D60000612B58B12B5D190A0C0E004F0021C9E03
:101D700090A0DAE0FF90A0CFE0D39F401790A0D2D0
:101D8000E0D39400400EA3E0D394004007A3E0D337
:101D90009400502390A0DBE0FEA3E0FFC390A0D10D
:101DA000E09F90A0D0E09E501190A0DDE06008A3DD
:101DB000E06004A3E0700312B5A190A0D2E0C39448
:101DC00001401DA3E094014017A3E09401401112CB
:101DD000B5A190A0BF74EEF090A0BEF090A0BDF0B1
:101DE00090A0BF12B5DE5003021C5690A0BEE004C6
:101DF000F0E0C394045003021C1990A0BDE004F06D
:101E0000021BFA90A0D6E0908339F090A0D7E09022
:101E1000833AF090A0D5E0908330F090A0D8E0FF16
:101E200090833EF090A0D912B5C1F07F017E0012E0
:101E3000CA8090A0C1E0908306F090A0C2E0908399
:101E400010F090A0C3E0908311F090A0C4E09083C4
:101E500036F0227F017E0012CA8022AF03EAF0A38F
:101E6000EFF090A0F4E0FEA3E0FBAA06EA3395E0D1
:101E7000F9F890A0E8E0FCA3E0FDA3E0FEA3E022D7
:101E800090A0C7E0FCA3E0FDE4125849A804A9050E
:101E9000AA06AB07227B017A817964E0FCA3E0FD0E
:101EA000227B017A81795EE0FCA3E0FD2290A0D341
:101EB0007B017A817971E0FCA3E0FD2212573A9010
:101EC000A0D6125F777F007E1B7D377C4D90A0D619
:101ED000E0F8A3E0F9A3E0FAA3E0FB2290A0F4E08D
:101EE000FEA3E0FF7C00125C477D06125CAED3EBE4
:101EF0009FEE6480F8EA648098227B017A8179649D
:101F0000E0FCA3E0FD2290A0DDE0FBA3E0FAA3E06B
:101F1000F922EE54F090A0DAF0A3E4F07A8179523D
:101F200090A0DA7B01E0FCA3E0FD22A3F090A0DE0C
:101F3000E0FCA3E0FDE40258497B017A817975E079
:101F4000FCA3E0FD2290A0F4E0FEA3E0FF7C0022D1
:101F50007A80792E90A0DE7B01E0FCA3E0FD2212C6
:101F6000563112588290A35F025F7724027B04FFF0
:101F7000E43EFEE43DFDE43CFCE4FAF9F8025E4A8E
:101F800090A0DEEEF0A3EFF07B012290A046E0FCF3
:101F9000A3E0FD2290A0F4E0FCA3E0FDEC227B0195
:101FA00090A064E0FEA3E0FF90A063E02FFD90A06E
:101FB00062E03EFC2290A0CDE0FCA3E0FD22E09098
:101FC0008188F0908371E0547FF0227466783FFB43
:101FD000FAF9025631EB2FFFEA3EFEE93DFDE83CFF
:101FE000FC22AC06AD077B017A80793022125D3B82
:101FF000AEF0FBAA06E4F9F822F090816E7407F0C7
:102000002212563179807845E4FBFA025631F0907D
:102010008371E04480F02290A048E0FCA3E0FD2220
:10202000A3F090A052E0FEA3E02212573AE4FBFA9C
:10203000F9783F12554002588290000AEE8FF00264
:102040005D92E0FEA3E0FFC322908024E05403C32E
:1020500094022212573A12588290A0F8125F779099
:10206000A35F2290A0F5E024FFFD90A0F4E034FFF0
:10207000FC229FFFE09EC313FEEF13FF2290000A95
:10208000125D3BFDACF0227B017A8179DC227B0181
:102090007A81798922EB2FFFEA3EFEE93DFDE83C9B
:1020A000FC227BCD7ACC79CC78BD0255409BFFEEEB
:1020B0009AFEED99FDEC98FC2212588290A0F0EE69
:1020C000F0A3EFF0229081517401F0FB7A817952F4
:1020D000227B017A817973E022908101E0FE908079
:1020E00065E02290A056E0FEA3E0FFD3227B017AB8
:1020F0008179822212D7F540030222EA908154E0CE
:1021000090A0DCF0908150E090A0DBF0908188E01E
:1021100090A0DD12200EE4908154F09080F5E090C4
:10212000A0DAF012D9E212204940030221CF121F97
:10213000FA12D83290A0DEEEF0A3EFF0E41222FF04
:10214000128AF9C006C007122087128AF9AC06ADC0
:1021500007D007D0061222EB403274FF1222FF1282
:102160008AF9C006C007122087128AF9AC06AD07AB
:10217000D007D0061222EB40137F017E0012D94B0C
:102180007F057E0012B1937F0812AD3390A0DEE090
:10219000FEA3E0FF12B1937F0812AD337B017A8179
:1021A00079DE128AF9C006C007122087128AF9ACBC
:1021B00006AD07D007D0061223179401EE64809471
:1021C0008050030222CC90816E7447F00222CC90A2
:1021D0008024E05403FFBF0306121FFA0222CC1230
:1021E0001FFA121FE6128AF9C006C0077B017A8027
:1021F000792E128AF9AC06AD07D007D00612231744
:102200009400EE648094804029908199E020E02938
:10221000E04401F0121FE6128F82121F807A80794B
:102220002E128F82121FE2128FC4121F50128FC4FF
:102230008007908199E054FEF0122324128AF990CD
:10224000A0E0121F837A8179DE128AF990A0E2124F
:102250001F837A8179DE128AF9C006C007122087AF
:10226000128AF9AC06AD07D007D006C3ED9FFFEC8C
:102270009EFE120016D3EF9401EE64809480404CD1
:1022800090816EE04440F0122324128AF9C390A09A
:10229000E1E090A0E012233050167B017A8179DED4
:1022A000128AF9C390A0E3E090A0E2122330401C10
:1022B000121FE6128F82121F807A80792E128F826F
:1022C000121FE2128FC4121F50128FC490A0DAE0C6
:1022D0009080F5F090A0DCE0908154F090A0DBE0DD
:1022E000908150F090A0DD121FBE22C3ED9FFFEC45
:1022F0009EFE120016D3EF9401EE6480948022FFBC
:10230000FE12D94B7F057E0012B1937F0812AD33C8
:102310007B017A8179DE22C3ED9FFFEC9EFE1200E5
:1023200016D3EF227F0812AD337B017A8179DC224C
:102330009FFFE09EFE120016D3EF9405EE6480949A
:10234000802290A0CC125F7790A0CCE0FCA3E0FDAF
:10235000A3E0FEA3E0FF22E4FEFDFC90A0DBE0F89A
:10236000A3E0F9A3E0FAA3E0FB125DBF90A0D3E0E5
:10237000F8A3E0F9A3E0FAA3E0FB22E49080F8F0F0
:1023800090A0C8E075F003A40490A0C5F090A0CB85
:102390007401F0A37480F0A37400F090A0C5E0FF76
:1023A00090A0CCE48FF0025CE490A0D1E0FCA3E02C
:1023B000FDC3EF9DFFEE9CFEC3EF9464EE940022FC
:1023C000EE5407F0A3EFF07B0122FBE0FFC374FFA4
:1023D0009FFFE49400FE7C007D90125C477DFF121D
:1023E0005C59EF24602290A0CAE0FFE4FCFDFEEB04
:1023F0002FFFEE3AFEED39FDEC38FC90A0D3025FE2
:102400007774F09BFEC3EF9EF090A0C574FFF0229E
:10241000FF90A0CBE0FBA3E0FAA3E0F922E0FCA34D
:10242000E0FDC39FEC9E2290F00A7455F022EB2F42
:10243000FFEA3EFEED39FDEC38FC025F7790A0C864
:10244000125F7790A38FE090A0C0F090A392E090ED
:10245000A0C1F022E0FEA3E0FFC322E0FEA3E0FF64
:102460007C007D0A025C599BFFEE9AFEED99FDEC23
:1024700098FC025F77EE540FF0A3EFF022E0FCA38C
:10248000E0FDC3EF9DFFEE9C222DFDE03CCDC39F00
:10249000FFED9EFE90A0DDF0A3EFF02290A0C6E03D
:1024A000FEA3E0FF22FFE0FCA3E0FD2290A0BDE040
:1024B00090806AF090A0BEE090811BF02290A390E3
:1024C000E0C394642290A0D5025F7790A0D3740AF1
:1024D000F022E4F0908008E05407FF22C390A0DED1
:1024E000E09DFF90A0DDE09CFE2290A0C4E0FEA352
:1024F000E0FF227B017A8079D7229081067442F036
:1025000022FDE43EFCEBC39DE49C22EE540FF0A3BD
:10251000EFF022A3E0FCA3E0FDA3E0FEA3E0221283
:102520005F7790A0E2E024FC543F22A3F090A0C08B
:10253000E0FCA3E0FD229080F9F07B017A8079FC39
:102540002290A0D5E09F90A0D4E09E227B017A80CB
:10255000793222E0FEA3E0FFED9FEC9E227B017A20
:1025600080793622FFE4F0A3EFF022543F90A0BF21
:10257000F090A39122E4FCFD025F77E0FCA3E0FD74
:10258000E402584990A0BDEFF090A37BF012DAEA84
:10259000500302273212D85012D96F9081A7E090D1
:1025A000A0BFF0E49081A7F07F0AFE12CA8090A03D
:1025B000BFE09081A7F07F0112D69512D721908BB2
:1025C00057E054F3F090A0BDE012601925F11125F9
:1025D000F812260013260921261A31262332262C2A
:1025E00033263541264651264F6126577100002675
:1025F0008412AE8EF002268412AE8E04F00226847F
:102600001227337402F002268412AEE57442F0748D
:102610000212AEB27403F002268412AE8E7404F07D
:1026200002268412AE8E7405F002268412273374BB
:1026300006F002268412AEE57442F0740112AEB2C6
:102640007407F00226841227737408F0022684129D
:1026500027737409F0802D12AEEA744AF090F05698
:102660007401F0E49080D7F09080D87402F09080EC
:10267000D1E054BFF0E49080D9F09081E70412AE2D
:10268000CC740AF07F0FE4FEEEC39F503CEE75F071
:1026900003A424F3F582E4340CF583E493FB740182
:1026A00093FA740293F990A0BEE075F00FA4242071
:1026B000F582E4340DF583E5822EF582E43583F569
:1026C00083E493125C130E80BF7F507E0012CA8099
:1026D00090A0BDE0B4210512DAF6400C90A0BDE058
:1026E000B4411412DAFD500F1261B9500A7F147E02
:1026F0000012CA801261BF90A0BDE09081A8B471A1
:10270000197428F0908B19E04404F09090D1E044C3
:1027100004F09083FBE04480F0227424F0908B1945
:10272000E054FBF09090D1E054FBF09083FBE05438
:102730007FF0229081EAE04420F09081997442F089
:10274000908B57E04408F0908021E04440F07F02F5
:102750007E0012CA80908021E054BFF09086B5E0E0
:1027600054BFF09086B2E0547FF0E4908AEFF0908E
:10277000A0BE229081EAE04420F09081997442F05A
:10278000908B57E04408F0908021E04440F07F02B5
:102790007E0012CA80908021E054BFF09086B5E0A0
:1027A00054BFF09086B2E0547FF0E4908AEFF0904E
:1027B000A0BE2290A0BDEFF0A3EDF0E490A0CAF07F
:1027C00012AE1B7F007E1B7D377C4B12AE497E0410
:1027D00012AE36C3125F00400B90A0C7740AF0A37C
:1027E000740480147E0112AE36C3125F0090A0C73D
:1027F000400C7408F0A37401F0A3E4F0800A7404A0
:10280000F0A3E4F0A37410F090A0C8E0FCA3E0FDF6
:10281000E412584912AE2D7F007E1B7D377C4B128F
:10282000573AC004C005C006C00712AE1BD007D07F
:1028300006D005D00412AE4990A0C7E0C3940F5053
:102840001DE47FFF7E0312AE38125F004010780156
:1028500012AE5E12AE5890A0C7E004F080DA90A0ED
:10286000BDE024FE600F1460111460132403701B7C
:10287000908449800D90844F800890845580039007
:10288000845BE054C090A0CAF08006E490A0CAF037
:1028900022780412AE5EEF5430FFAB0790A0C3A3C2
:1028A000A3A3E0FCA3E0FE90A0CAE04E4BF090A0F2
:1028B000BDE024FE60191460251460312403703AD1
:1028C00090A0CAE0908449F090844AECF0802B906C
:1028D000A0CAE090844FF0908450ECF0801C90A04F
:1028E000CAE0908455F0908456ECF0800D90A0CA18
:1028F000E090845BF090845CECF090A0BEE024FE5D
:10290000B4120040030229C090291675F003A4C533
:102910008325F0C5837302294C02294E02295302F4
:10292000295502295A02295C02296902296E0229C5
:102930007302297802297D02298202298F022994B3
:102940000229A60229A10229AB0229A18020908C8C
:1029500084805B801E908C83802B801C908C84E014
:10296000543FF0E04480F08057908C808017908C2A
:10297000828024908C83801F908C82803B908C81FD
:102980008015908C82E054FCF0E04401F08031909E
:102990008C81801A908C80E0543FF0E04440F080BD
:1029A0001F908C808012908C808003908C80E054EB
:1029B000CFF0E04410F08008E054F3F0E04404F07D
:1029C000E490A0BEF02212DA9990A0CEEFF012DAD5
:1029D0009F90A0CFEFF012DAA590A0D0EFF09080FA
:1029E000FA74F8F012254C128F8290A0DB12257534
:1029F000E490A0C8F090A0C8E0FFC3940340030295
:102A00002BB1EF122384122411125BAB90A0C7F0FC
:102A100090A0C7E0FDD394075003022AC412237B81
:102A2000122411ED122BB3122427128FF45004D26A
:102A30001880139080F8E020E704D20F8008128EEF
:102A40008E1223A940E1200F02D218301803022B66
:102A500018E490A0C6F090A0D7125F830000000099
:102A6000E490A0C5F090A0C5E0FFC394085045EFE6
:102A7000122536128F82E4FCFD1223FB90A0D312A4
:102A8000234B7808125F381223FB9080FBE090A064
:102A9000CAF012236C1223E67F03122357D3125F6E
:102AA00000400890A0C674FFF0800990A0C5E00423
:102AB000F0022A6590A0C6E0700A90A0C7E024F852
:102AC000F0022A1090A0C7E07005D218022B18E47B
:102AD00090A0C9F090A0C9E0FDC394104003022B60
:102AE0007F12237B90A0C7E0C39D122410EF122B0E
:102AF000B3122427128FF45004D21880139080F858
:102B0000E020E704D20F8008128E8E1223A940E144
:102B1000200F02D21830181A90A0CEE0FF12DA75FA
:102B200090A0CFE0FF12DA7B90A0D0E0FF12DA8114
:102B3000C322E490A0C6F090A0D7125F83000000EB
:102B4000007407122536128F82E4FCFD1223FB90DD
:102B5000A0D312234B7808125F381223FB9080FB1E
:102B6000E090A0CAF012236C1223E67F0A122357CA
:102B7000D3125F00500990A0C9E004F0022AD4905B
:102B8000A0C8E075F003A40490A0C5F090A0C9E02F
:102B9000FF90A0C7E0C39F90A0C612238C90A0C650
:102BA000E0122410EF125C1390A0C8E004F0022998
:102BB000F5D322125C1390A0C8E0F40475F008A4C9
:102BC000249090A0C5F09080F8F0C20F128E8E90E5
:102BD000A0D1EEF0A3EFF02290A0BFEFF090A0C93B
:102BE000125F830000000090A0CD125F8300000000
:102BF0000090A0D1125F830000000090A0D9125F66
:102C000083FFFFFFFF9080D9E0543F90A0C0F012F7
:102C100024FA90A0C17401F090A0BFE0FF90A0C181
:102C2000E0C39F4003022DC01224BD5007E0FF0403
:102C3000F012615FE490A0C4F0128E8E90A0DDEEE1
:102C4000F0A3EFF0122427128FF45002802090811D
:102C500006E020E10890A0C47401F0800B128E8E73
:102C600090A0DD1223AC40DC90A0C4E07004D21828
:102C7000C32290A0C1E0FF90A0C0E02F122DCA1285
:102C800024FA7B017A817915128F82E4FCFD1224EB
:102C9000C590A0D512234B7810125F381224C5902E
:102CA000A0D512236FC000C001C002C0037B017A0F
:102CB000817913128F82E4FCFDD003D002D001D0C1
:102CC0000090A0D512242E90A0C4E014543F90A0F0
:102CD000C3F090A0C912234BA3125F7790A0C51236
:102CE000234BA3125F7790A0D512234B90A0C5125F
:102CF0005F7790A0C912234B7801125F11C004C006
:102D000005C006C00790A0C512234B7802125F11C0
:102D1000D003D002D001D000EF2BFFEE3AFEED3908
:102D2000FDEC38FCC004C005C006C00790A0CD1261
:102D3000234B7802125F11D003D002D001D000EBF8
:102D40002FFFEA3EFEE93DFDE83CFC1224C590A0C1
:102D5000C1E0C394045003022DAB90A0D112234BC9
:102D6000A312236FD3125F0090A0D1E0400812237A
:102D700070122513800912234CA312236FC3EF9006
:102D8000A0D112246790A0D912234B90A0D1122376
:102D90006FC3125F00501490A0C3E090A0C2F090E7
:102DA000A0D112234B90A0D9125F7790A0D5122307
:102DB0004B90A0D1125F7790A0C1E004F0022C18D4
:102DC00090A0C2E014122DCAD322543FFF90A0C499
:102DD000F012D1A52212DAAB90A0D0EFF012DAB146
:102DE00090A0D1EFF012DAB790A0D2EFF0E490A06B
:102DF000CDF0A3F0A3F0FF12DA87E4FF12DA8DE43E
:102E0000FF12DA939081BE1224D2BF03079081BDD6
:102E100074808004E49081BDF09081BFF09081BB0C
:102E20007480F09081BC7403F01224CBE490A0C7AE
:102E3000F0A3F0A3F0A3F0A3F0A3F0128E8E90A065
:102E4000C5EEF0A3EFF01224277F027E0012CA80A5
:102E5000128FF450061224CB022F5F12DAAB90A02F
:102E6000D4EFF090A0CD122FA440031224CB90A059
:102E7000D4E090A0CDF012DAB190A0D4EFF090A001
:102E8000CE122FA440031224CB90A0D4E090A0CE69
:102E9000F012DAB790A0D4EFF090A0CFE0C39FFF7C
:102EA000E49400FE120016D3EF9403EE6480948045
:102EB00040031224CB90A0D4E090A0CFF090A0D3F8
:102EC000E090A0CDB40A20E090A0C712256490A0A5
:102ED000CEE090A0C912256490A0CFE0FF90A0CBD7
:102EE000E4F0A3EFF08033E0FF90A0C8E02FF09073
:102EF000A0C7E03400F090A0CEE0FF90A0CAE02F81
:102F0000F090A0C9E03400F090A0CFE0FF90A0CCFA
:102F1000E02FF090A0CBE03400F090A0D3E014F0CC
:102F2000702190A0C712245B90A0CDEFF090A0C9B3
:102F300012245B90A0CEEFF090A0CB12245B90A067
:102F4000CFEFF090A0D3E06016128E8E90A0C51245
:102F5000247DFEC3EF942CEE94015003022E46E430
:102F60009081BBF09081BCF090A0D3E0601A90A05B
:102F7000D0E0FF12DA8790A0D1E0FF12DA8D90A0A6
:102F8000D2E0FF12DA93C3221224D490A0CDE0BF86
:102F90000305122FB980072404122FB92404FF124D
:102FA000DA93D322E0C39FFFE49400FE120016D30D
:102FB000EF9403EE6480948022FF12DA8790A0CE13
:102FC000E02404FF12DA8D90A0CFE022129FA69099
:102FD000A0C9EFF064216008E0644160030230BAE8
:102FE000908744E0546090A3A3F090A3A2E0FDB4C6
:102FF000100A12ADB9E412ADB1F0806DED640F703E
:103000001F12D30350051296BE804A12ADB99087A5
:1030100034E030E1051296BE800312D124E48049E9
:1030200090811BE04420F090A3A2E0FD12ADA874B3
:1030300019F0ED126019305500305502305503304B
:10304000550530550630550830550A30550B30556A
:103050000D0000306890864B7480F0E490864CF050
:1030600090864D7480F0800DE490864BF090864CF5
:10307000F090864DF0908734E030E13690A3A3E0E5
:10308000B42007908055E04420F0908748E0540F2A
:10309000FF908608E0540FFEEFB40106EE4450FEA8
:1030A0008008EFB40304EE44F0FEAF06908608EE0D
:1030B000F022908608E0540FF02290A0C9E0FF644F
:1030C000516008EF646160030231A27B017A80796C
:1030D00036128F8290A0CAEEF0A3EFF07B017A80C7
:1030E0007932128F8290A0CCEEF0A3EFF090A0CABC
:1030F000E0FEA3E0FFBE070FBF800CA3E0640470F6
:1031000004A3E064386014E4B50718EEB405149025
:10311000A0CCE0B4020DA3E0B4D0089080217424C8
:10312000F080069080217401F07F147E0012CA8026
:1031300090A3A2E0FDB4100912ADB9E412ADB1F054
:1031400022ED640F704E12ADB99080537419F0E403
:10315000908055F0908054F090A0CAE0FEA3E0FF6C
:10316000BE070FBF800CA3E064047004A3E06438C2
:103170006014E4B50717EEB4051390A0CCE0B402D8
:103180000CA3E0B4D0079086017431F02290860140
:103190007401F02212ADB990A3A2E012ADA8741987
:1031A000F02290A0C9E0B4710302A59612ADB91245
:1031B000D1242212DA9990A0CAEFF012DA9F90A0DF
:1031C000CBEFF012DAA590A0CCEFF012DA9990A034
:1031D000C7EFF012DA9F90A0C8EFF012DAA590A026
:1031E000C9EFF0E490A0C6F0E490A0C5F0128E8E76
:1031F00090A0CDEEF0A3EFF0908106746EF0122453
:1032000027128FF45004D218801A908106E020E132
:103210000890A0C57401F0800B128E8E90A0CD1284
:1032200023AC40DA90A0C5E07002D2183018051225
:103230003358C322E490A0C5F0908113E090A0C75A
:103240001223CAFFE43EAD07122504500302335196
:10325000EBC394F0500C90A0C7E0FF940840031219
:103260002401EBD394F8401190A0C7E094F85009E2
:10327000EB2408FFE02F122408908114E090A0C8EE
:103280001223CA1225015003023351EBC394F050AC
:103290000C90A0C8E0FF94084003122401EBD394E3
:1032A000F8401190A0C8E094F85009EB2408FFE022
:1032B0002F122408908115E0FB90A0C91223CB1295
:1032C00025015003023351EBC394F0500C90A0C978
:1032D000E0FF94084003122401EBD394F8401390CC
:1032E000A0C9E094F8500BAF03EB2408FFE02F12C5
:1032F000240890A0C5E0703290A0C7E0FFC39408F6
:10330000404FEFD394F8504990A0C8E0FFC3940811
:10331000403FEFD394F8503990A0C9E0FFC3940820
:10332000402FEFD394F85029D32290A0C7E0FF128A
:10333000DA7590A0C8E0FF12DA7B90A0C9E0FF1216
:10334000DA8190A0C6E004F0E0C39480500302311B
:10335000E8123358D218C32290A0CAE0FF12DA75DF
:1033600090A0CBE0FF12DA7B90A0CCE0FF12DA81D4
:1033700022129FA690A3A174FFF0EF64216008EFD2
:10338000644160030234F0908196E04480F0E054A0
:10339000F3F09086B5E04440F012CC65400612C1CF
:1033A000E540182212C38140129086B5E054BFF068
:1033B000E49086B0F07F32FE0234ED908196E044D6
:1033C00004F012C5AE90A3A1F0E024F07003023423
:1033D000D124D06007244060030234F0908196E04D
:1033E000547FF01234F130E00312C5A212C57912F5
:1033F0008FC490A0C3E0FAA3E0FBFF9086D4F090C6
:1034000086DCEFF090A0BFE0FEA3E0FFC390A0BE7B
:10341000E09FFF90A0BDE09EFE7C007D03125C4714
:1034200090A0BFE0FCA3E0FDC39FFFEC9EFEEF7801
:1034300002CEC313CE13D8F9FF90A0C1EEF0A3EFD4
:10344000F090A0C1E0FEA3E07802C333CE33CED823
:10345000F9FFC3ED9FFFEC9ECFC39BCF9AC313FE32
:10346000EF13FF90A0C3EEF0A3EFF09086DBF07BAC
:10347000017A8679D590A0C1E0FCA3E0FD128FC44B
:103480007B017A8679D790A0C2E025E0FF90A0C1A9
:10349000E033FE9086DBE07C002FFDEC3EFC128FDB
:1034A000C490A0C1E0FEA3E0FF7C007D03125C4756
:1034B0009086DBE02FFFEC3EFE9086DCE02FFDECFB
:1034C0003EFC7B017A8679D9128FC47F327E0080E0
:1034D0001C1234F130E00312C5A212C579128FC458
:1034E00090A0C3A3E09086D4F07F327E0012CA8001
:1034F0002212D48190A0BDEEF0A3EFF012D88290FA
:10350000A0BFEEF0A3EFF090A0BFE0FEA3E0FFC3EA
:1035100090A0BEE09FFD90A0BDE09E90A0C3F0A350
:10352000EDF0C3EF9DFFEF2212254C128F82EE5477
:103530000790A0D51223C37A807936128F82EE5479
:103540000F90A0D71223C37A80792E128F82EE5467
:103550000790A0D91223C37A807934128F82EE5457
:103560000F90A0DB1223C37A81790C128F82EE5464
:103570000790A0D31223C37A817910128F82EE5460
:103580000F90A0D11223C37A817908128F82EE5452
:103590000790A0CF1223C37A81790E128F8290A058
:1035A000CD12250B90A0D512245490A0D4E09F906A
:1035B000A0D3E09E504512A20F90A0CF12241D5020
:1035C0003A90A0D9122553402390A0D4E090A0D3E4
:1035D00012248990A0D512241D50201224DC90A022
:1035E000DAE02FF090A0D9E03EF0800F90A0CFE07D
:1035F000FFA3E090A0D9CFF0A3EFF090A0D71224C2
:103600005490A0D2E09F90A0D1E09E504512DA20C5
:1036100090A0CD12241D503A90A0DB1225534023D8
:1036200090A0D2E090A0D112248990A0D712241D9E
:1036300050201224DC90A0DCE02FF090A0DBE03ED4
:10364000F0800F90A0CDE0FFA3E090A0DBCFF0A32F
:10365000EFF090A022E0FEA3E0FF90A0DB12241D7B
:103660005002800F90A024E0FEA3E0FFD3ED9FEC7A
:103670009E400890A0DBEEF0A3EFF090A0DBE0FE10
:10368000A3E0FF12D6E490A0D9E0FEA3E0FF12B1C0
:103690009312D82890A013EEF0A3EFF012D8329036
:1036A000A015EEF0A3EFF02290A0BBE4F0A304F08D
:1036B000E490A0B9F0A3F090A0BBE0FEA3E0FF90DF
:1036C000A0B9E0FCA3E0FDC39FEC9E400302381EBE
:1036D000ED12C81AFFECC454F048FE74A52FF58211
:1036E000748F3EF583E493FE740193FF90A02BE06A
:1036F000FCA3E0FDEF6D7002EE6C600BEFF4700266
:10370000EEF4600302380A12C7FEFE74A72FF5829A
:10371000748F12C82112953312C7FEFE74A82FF5BC
:1037200082748F12C82112D5C190A0BAE012C81AB3
:10373000FD12C809FC74A92DF582748F12C8287473
:10374000AA2DF582748F12C82F12CAB312C7FEFEBB
:1037500074AB2FF582748F12C82112D45512C7FE94
:10376000FE74AC2FF582748F12C82112DA3C12C796
:10377000FEFE74AD2FF582748F12C82112DA431247
:10378000C7FEFE74AE2FF582748F12C82112D9665F
:1037900012C812FDEAC454F048FC74AF2DF58274CF
:1037A0008F12C828C00774B02DF582748F12C82FED
:1037B000EB12C81AFFEAC454F048FE74B12FF58228
:1037C000748F3EF583E493FBD00712C2B912C8127E
:1037D000FDEAC454F048FC74B22DF582748F12C80F
:1037E00028C00774B32DF582748F12C82FEB12C84E
:1037F0001AFFEAC454F048FE74B42FF582748F3E69
:10380000F583E493FBD00702B33290A0BAE004F052
:1038100060030236B790A0B9E004F00236B7221276
:10382000254C128F8290A0C71223C07A807936125D
:103830008F8290A0C9122475124CB9E4908106F0D1
:1038400090A0CB7430F090A0CBE0FFC394A0507454
:10385000908107EFF0E490A0CCF012C71A50427BA1
:10386000017A81790C128F8290A0C11223C07A81D3
:103870007910128F8290A0BF122475D390A0C2E05D
:10388000940090A0C1E094014013D390A0C0E094B4
:103890000090A0BFE094014004D20F8006C20F80C8
:1038A00002C322300F0C90A0CCE004F0E0C39405DA
:1038B00040A890A0CCE06405600A90A0CBE0241062
:1038C000F002384690A0CBE0D394A040012212C76A
:1038D0001A50457B017A81790C128F82EE54079041
:1038E000A0C51223C37A817910128F8290A0C312CF
:1038F000250B90A0BF12245490A0C4E090A0C31246
:103900003983504B90A0C112245490A0C6E090A0DF
:10391000C512398340048037C3227B017A81790E36
:10392000128F82EE540F90A0BF1223C37A817908C0
:10393000128F82EE540790A0C1F0A3EFF090A0BFC9
:10394000E0FEA3E090A0C31224A512B1FD5007D25F
:1039500019123528C32290A0BFE0FEA3E0FF12D6C3
:10396000E490A0C1E0FEA3E0FF90A0C5E0FCA3E0CE
:10397000FD12BFA1400B90A0C1E0FEA3E0FF12B179
:1039800093D3229FFFE09EFE120016D3EF9405EE24
:1039900064809480221224F3128F8290A0C6EEF0ED
:1039A000A3EFF012249C90A0C2EEF0A3EFF0A3EEE0
:1039B000F0A3EFF090A0C8125F830000000090A079
:1039C000D0125F83FFFFFFFF90A0C7E024FEF090BE
:1039D000A0C6E034FFF0E490A0BFF012249C129542
:1039E000F91243F390A0CC125F77301802C3221271
:1039F000234890A0C812236FC3125F00501590A0F7
:103A0000C6E0FFA3E090A0C2CFF0A3EFF0122348DE
:103A100012243D122348A312236FD3125F004016D5
:103A2000122348A3125F7790A0C6E0FFA3E090A006
:103A3000C4CFF0A3EFF090A0C7E004F0700690A010
:103A4000C6E004F090A0BFE004F0E0C39404408B13
:103A500090A0C2E0FEA3E0FF90A0C6EEF0A3EFF0BE
:103A600090A0C412247DFE120016EF64014E600A7D
:103A700090A0C6E0F0A3E054FEF012249C1295F949
:103A800012249C90A0C2E06E7003A3E06F60091244
:103A900043F312234212243D12255D128F8290A01F
:103AA000C2EE1223C37A807932128F8290A0C4EEC4
:103AB000F0A3EFF090A0C2E0FEA3E0A31224A512B1
:103AC0006045E47B40FAF9F8125DBF12234290A0F2
:103AD000C812236FC3125F00500E90A0C0E02418DC
:103AE00012256B7420F0800C90A0C1E024F8122500
:103AF0006B7410F090A0BFE0FF12D1A5D32290A06C
:103B0000DAEBF0A3EAF0E91220207803CEC313CE5B
:103B100013D8F97803C333CE33CED8F92408FFE4A1
:103B20003EFE121F0690000412203C125F4BE4126E
:103B30005844E4FBFA79C8784212573AC004C005E9
:103B4000C006C007121F06900004122080121E88B3
:103B5000D007D006D005D00412573AC004C005C023
:103B600006C00790A0DA121F0912207DE4125849FE
:103B7000D003D002D001D000125631C004C005C01D
:103B800006C00790A37C121E83D007D006D005D0B4
:103B90000412202A121F0612203990A0DA121F09DF
:103BA000900006125D3BFFAEF0121F0612207D1240
:103BB00060457804125F38C006C00790A0DA121F73
:103BC0000990000A121FEDD007D006125E4AEF24BA
:103BD00008FFE43EFEE43DFDE43CFC7804125F1186
:103BE000121F0690000612203C900006125D3BFF5B
:103BF000D390A05DE09F90A05CE095F0403190A054
:103C0000DA121F0990000A125D3BFFAEF090A05C33
:103C1000E0FCA3E0FD126045C006C007900006125C
:103C20001FEDD007D006125E4A121F06122039126D
:103C3000D7F5501F90A0DDE0FBA3E0FAA3E0240A33
:103C4000F9E43AFA125D10FFE5F0122076EE8FF0FB
:103C5000125D73121F06125F4B90A35F025F779095
:103C6000A37AE06407600312ABD290A37AE024FE4B
:103C7000604C147003023D01147003023DA51470E2
:103C800003023D4C147003023DAF24056003023D66
:103C9000B290A313E0FF24FB601E14600A146018A6
:103CA00024066003023DB212CE73EFF0128E8E1224
:103CB000CE5F12D25F023DB21252B0023DB212CEBE
:103CC000686003023D6690A313E024FA7003023D8E
:103CD000B2240424FA5003023DB2128E8E90A377D0
:103CE000E0FCA3E0FDC3EF9DFFEE9CFED3EF9464E8
:103CF000EE94005003023DB290A37A7403F0023DAB
:103D0000B290A376E030E003023DB212C10E90A360
:103D100013E014602824FB50086022146026023D42
:103D2000B212138912B70F5002800A12AA57500517
:103D300012BEBC800F90A3137407F08007740212A8
:103D4000CE53803490A37A7405F0806690A313E07C
:103D5000FF24FE24FD5012601214600714603B24FF
:103D600006704F12CE73EF800F801F1252B012DA1E
:103D7000DE500E90A37A7402F0128E8E12CE5F8007
:103D80003112D7DFE433FF12D69590A37A7401F095
:103D9000E4FF12B12912DA2E80181252B090A37AE1
:103DA0007401F0800D12CE68600812C3C380031244
:103DB000D61102CF22129C5F12DAEA501B12CCF00D
:103DC0005013129FA6BF710A90F0D2E020E4037F47
:103DD00001227F08227F0122129FA690A0BBEFF054
:103DE0001260193E08113E49123E62133E9B213E6D
:103DF00022313E49323E62333E9B413E62513E6239
:103E0000613E7E7100003EDE129C04FFBF180280FE
:103E100018129C0464386003023EE1129BC27F12B8
:103E20008022129C04FFBF180C129BC290A0BC748D
:103E300002F0023EE1129C0464386003023EE1128B
:103E40009BC27F32122584801090819AE054E864EE
:103E5000286003023EE1129BC290A0BC7403F002F2
:103E60003EE190819AE054E064207075124AA250BD
:103E70000B129BC290A0BC7404F08065806090908F
:103E8000F2E030E65C126201D3EF940CEE94004055
:103E90005090819AE054C07048803890A0BBE0FFF9
:103EA00012C6DF121B529081ADE030E034E4FF1205
:103EB000A8D17F0112D6957F0112D5E112AF7150C2
:103EC000207F0112A8D112ACBE123371129C04FFE4
:103ED000BF180E129BC290A0BC7405F08003129C08
:103EE0005F12B93BEFF47002EEF4600912B461BEE8
:103EF000FF06BFFF03129C5FE4FF12B2CB90A0BC91
:103F0000E0FF22129C669080247480F090801274EE
:103F1000C0F09081EAE04440F090800A7408F0908C
:103F2000F0A8747FF0740FF07F147E0012CA80E452
:103F300090F0A8F09081EAE054BFF090800A7401FC
:103F4000F09080127481129C2890A37BE0FF641192
:103F50006005EF6412706890F0A9E0D3940A5008ED
:103F600090F0AAE09400405790F0A8748FF07F146E
:103F70007E0012CA8090A37BE0B4111590F0ADE0F2
:103F8000D39400400CE0940A500712CE7D7F11803C
:103F90002390A37BE064127026129C6612D7A8744B
:103FA0001012402C54E8FFBF280F124042400A1262
:103FB000CE7D7F12122584D32212D7B3129C299072
:103FC000A37BE0FF64136005EF6451705D90F0AB7C
:103FD000E0D3940A500890F0ACE09400404C129C5E
:103FE0006690801274C0F090800AE04408F0741863
:103FF00012402C54E064207022124AA2501D12403C
:1040000042401890A37BE0B4510712CE7D7F5180CF
:104010000512CE7D7F13122584D3229080127481E5
:10402000F090800AE054F7129C28C322908000F0A0
:104030009081967461F07F327E0012CA8090819ADE
:10404000E02212A20FD3EF9464EE94002220250305
:10405000024186C22590A3A8E0D3940540037405CD
:10406000F090A3A8E0FF700A7418129F2BF0A3F041
:104070008061EFB401097408129F2B74188050EF0F
:10408000B402097420129F4F74088043EFB40309EF
:104090007410129F4F74208036EFB40409742812F4
:1040A0009F5F74108029EFB405097430129F5F740C
:1040B00028801CEFB4060E90A0BA7438F0A3E4F088
:1040C000A37430800AE490A0BAF0A3F0A37438F08F
:1040D000A3E4F0EFB40507E490A0BAF0A3F0129FB8
:1040E0005890A0BAE0FEA3E0FF12C6A490A0BAE0E8
:1040F000540FFEA3E04E7008124187E4FD12847A4B
:10410000E490A0BEF0A3F0C390A0BEE094085033AA
:10411000129F5812418790A0BEE0FCA3E0FD2FFF44
:10412000EC3EFEE42DFDEC34A8FCE490A0C5F0FBD1
:10413000127A5390A0BFE02400F090A0BEE03401BA
:10414000F080C4128ECB90A0BBE090A0BA129F9CCE
:104150007D551281B590A0BCE0FEA3E0FF12C6A47D
:10416000128ECB90A0BDE090A0BC129F9CFD12814E
:10417000B590A3A8E0FF04F0EFC394054002E4F07B
:1041800012CF99129F5822128ECB90A0BAE0FEA3B4
:10419000E0FF2290A032E0FEA3E0FF7C007D3C1215
:1041A000604590A031129F34129F8E125E4A129F7A
:1041B00068E490A0BFF0A3F090A0BF129F9594FF79
:1041C000EE940F5026E42FFFEE3430FE7B017AA0F0
:1041D00079C1128C2690A0C1E0701090A0C0E004BC
:1041E000F070D590A0BFE004F080CD90A0BB129FEE
:1041F0007AC000C001C002C003A3E0FEA3E07803C0
:10420000C333CE33CED8F9FFE4FCFDD003D002D0C7
:1042100001D000EB2FFFEA3E129F47129F6890A04B
:10422000C1E0FBB4FE0B90A0BB129F0F2401024221
:104230008EEBB4FC0A90A0BB129F0F2402804F901B
:10424000A0C1E0FBB4F80A90A0BB129F0F2403802A
:104250003DEBB4F00A90A0BB129F0F2404802F9076
:10426000A0C1E0FBB4E00A90A0BB129F0F24058020
:104270001DEBB4C00A90A0BB129F0F2406800F90C4
:10428000A0C1E0B4801590A0BB129F0F2407FFE4EB
:104290003EFEE43DFDE43CFC129F6890A0BB129FF3
:1042A0000F129F8D125DBF129F68129F06FF125E54
:1042B0004A90A02FEEF0A3EFF0129F06FF125E4A85
:1042C00090A02EEBF022C210908101E04480F0908B
:1042D0008B62E04404F0E04401F0E4908B61F090E4
:1042E0008B62E05407F0E054FDF0908101E0547FD0
:1042F000F0908B57E090A0BEF0908B46E090A0BD70
:10430000F0908333E090A0C1F0908335E090A0C29C
:10431000F0908336E090A0C3F0908101E090A0C0BF
:10432000F0908102E090A0BFF0908302E090A0C4E2
:10433000F0908B57E04402F0908333749FF09083A9
:10434000367458F09083357430F07420F090810109
:10435000E054D7F0908102E04422F0E4908641F0EE
:10436000908B46F090F050E04480F090A37BE0B456
:104370004105E4908302F07F327E0012CA80129CD5
:1043800004FFBF1804D2108002C21090A0C1E090B8
:104390008333F090A0C2E0908335F090A0C3E0900A
:1043A0008336F090A0BFE0908102F090A0C0E09032
:1043B0008101F090A0C4E0908302F090F050E054AE
:1043C0007FF090A0BDE0908B46F090A0BEE0908B77
:1043D00057F0C21112619B908B61743FF0908B6219
:1043E000E044F8F0E04402F0E054FBF0E054FEF06A
:1043F000A2102290A0DC125F830000000090A0D8E1
:10440000125F83FFFFFFFFE490A0E2F0FF12D1A54F
:104410001224FA90A0E27404F090A0E2E0C3944267
:1044200040030245081224BD5007E0FF04F012616A
:104430005FC20F128E8E90A0E0EEF0A3EFF0122478
:1044400027128FF450028019908106E020E104D2F7
:104450000F800B128E8E90A0E01223AC40E0200F54
:1044600008D218E4FFFEFDFC2290A0E2E0FF12D18A
:10447000A51224FA7B017A817915128F8290A0D43B
:1044800012257590A0D412234B7810125F3890A09B
:10449000D4125F7790A0D412236FC000C001C00275
:1044A000C0037B017A817913128F82E4FCFDD00373
:1044B000D002D001D00090A0D412242E90A0D81207
:1044C000234B90A0D412236FC3125F00500E90A014
:1044D000D412234BA312251F90A38FF090A0DC12BF
:1044E000234B90A0D412236FD3125F00401090A0F2
:1044F000D412234B90A0DC12251F90A392F090A021
:10450000E2E02404F002441990A0D812236F12258F
:1045100013C390A0D412246790A0D412234B2290EE
:10452000A34CEEF0A3EFF0D394FFEE9403400C7F86
:104530000A12D8647F007E8002461790871AE02016
:10454000E50302461A7B017A8879A0128F8290A334
:104550004EEEF0A3EFF090A34C7CFF7DFE12BC95D5
:10456000EF2401FFE43E90A350F0A3EFF07F0A1286
:10457000D86490A350E0FAA3E0FBD39400EA9460DF
:1045800090871DE0400554EFF080034410F090A3A5
:104590004EE0FEA3E0FFD39BEE9A403690A352EE8E
:1045A000F0A3EFF012BCA7D39DEE9C406212463EF2
:1045B00090A35012BCD990A353E090A35212BCBD5B
:1045C000404D90A353E024F8F090A352E034FFF064
:1045D00080D290A34EE0FFA3E090A352CFF0A3EFD0
:1045E000F012BCA7C39DEE9C502512463E90A352EC
:1045F00012BCD990A351E090A35012BCBD401090C2
:10460000A353E02408F090A352E03400F080D2904D
:10461000A350E0FEA3E0FF02D05590A34C12BCD9FA
:1046200074FF9FF074039E90A34CF07C007DC61233
:10463000BC9590A34CEEF0A3EFF012D8642290F05A
:104640000A7455F012D0552212255D128F8290A067
:10465000C0EEF0EF12252B25E0FEEC33A3F0A3CE45
:10466000F07B017A817917128FC41224F3128F82A2
:1046700090A0C4EEF0A3EFF01224EA90A0C8EEF0F0
:10468000EF12252BD3EF9DEE9C5011ED2410FFE48B
:104690003CFE90A0C4F0A3EFF01295F9E490A0BF07
:1046A000F0124CB912C71A400302473B7B017A81D2
:1046B0007910128F82EE540F90A0C6F0A3EFF09005
:1046C0008119E0FF54C0C413135403FEEF543FFF9D
:1046D000EE607CEEB40126EFFD90A0C5E02DF090D9
:1046E000A0C4E03400F090A0C2E0FCA3E0FDD390B1
:1046F000A0C5E09D90A0C4E09C4002802EEED39423
:1047000001402090A0C5E09FFF90A0C4E09400FE6F
:10471000F0A3EFF0D390A0C1E09F90A0C0E09E4036
:104720000280081224EA12CF72500890A0BF74FFD2
:10473000F0801C1224EA1295F9800512475FC3220B
:1047400090A0BFE004F0E0C3942050030246A19083
:10475000A0BFE0B4FF0712475FD219C322D3229053
:10476000A0C8E0FEA3E0FF1295F92290A0C4EEF0ED
:10477000A3EFF012D6D7500302487F90A0C4E0FF09
:10478000A3E090A35DCFF0A3EFF07B017A8179667F
:10479000128F8290A0C6EEF0A3EFF090A0C412207A
:1047A0004294E8EE9403502090A046E0FDA3E090F0
:1047B000A0C8CDF0A3EDF090A0C6E0FDA3E090A0CE
:1047C000CACDF0A3EDF08064122017126045EF24EB
:1047D000F4FFEE3401FEE43DFDE43CFCE47BE87ACA
:1047E00003F9F8125E4A90A0C8EEF0A3EFF054FE71
:1047F000FF90A0C8EEF0A3EFF0121F8BC39FEC9EBA
:10480000500890A0C8ECF0A3EDF090A0C812204290
:1048100090A047E090A04612207290A0C7E02FFF22
:1048200090A0C6E03E90A0CAF0A3EFF07B017A8191
:104830007973128F8290A0CAE0B5061AA3E0B5077B
:10484000157B017A817975128F8290A0C8E06E7015
:1048500003A3E06F6029129A6512DAD390A0CA12FE
:1048600020D1FCA3E0FD128FC490A0C8121F391202
:104870008FC47F507E0012CA80129A6512DAD72246
:1048800090A0C9EBF0A3EAF0A3E9F0C21090A0CD8C
:104890007410F0E490A0CCF090A0CD12A41690A0DB
:1048A000CCE0FDC39FE49E503112A44EA3EEF0A3D2
:1048B000EFF0EC12A46012DADB90A0C912A3F81298
:1048C000A44690A0DEE0B5F009A3E0B50704D2103D
:1048D000800890A0CCE004F080BE90A0C912A3F89C
:1048E000900007125D3B90A0D012A3D49000131249
:1048F0005D3B90A0D212A3D4900015125D3BFF90B7
:10490000A0D412A3D5900018125D3BFF90A0D61240
:10491000A3D590001A125D3BFF90A0D812A3D590AA
:10492000001C125D3BFF90A0DA12A3D59000171275
:104930005BC490A0DCF090002A125BC490A0DDF074
:1049400012A44690A0DE12A3D520103590A0CDE091
:10495000FD90A034E0FB8DF0A4FF90A0CE12A3D573
:1049600012A418EB2401FDE433FCCFCDCFCECCCE86
:10497000125C5990A034EDF07B017AA0792D12D70A
:104980007C90A0CEE0FEA3E0FF90A0CDE012A4605A
:10499000025536AB0775F01DEB1294581293D09068
:1049A000A00B1293BD1293C890A00D1293BD243694
:1049B000F582E5F034001293D090A00F1293BD243D
:1049C00038F582E5F034001293D090A0111293BD17
:1049D000242EF582E5F034001293A290A007EE1287
:1049E00093BE243AF582E5F0340012942490A0138B
:1049F000CDF0ED1293C0243CF582E5F03400129422
:104A00002490A015CDF0A3EDF090A018EE1293BE67
:104A1000243AF582E5F034001293D090A01A129354
:104A2000BD243CF582E5F034001293D090A01CCF59
:104A3000F0A3EFF090A0177420F0E490A02A129356
:104A4000C11293DE1293D090A02B1293BD12940A40
:104A5000F9604E75F01DEBA412940A90A00F12930A
:104A6000E790A00F12946290A0071293EB90A0071A
:104A7000EE1293BE12940A90A0131293E790A01323
:104A800012946290A0181293EB90A018EEF0A3EF8E
:104A9000F0E9FF7E00A31293EB90A01AEEF0A3EFD3
:104AA000F0229081B2129BF990A0BDE0FEA3E0FF3E
:104AB000D3940FEE94005004EF4E7002C322129B69
:104AC000F6129C30128F8290A0BFEE129C437803A6
:104AD000CEC313CE13D8F9FF7C007D06125C59D3E8
:104AE00090A0BEE09F90A0BDE09E400122129C30AD
:104AF000128F82129BD67B807A02F9F8D3125F0064
:104B0000500C90A0BDE0B41F07A3E0B4FF02C32285
:104B1000129C58128F82129BD6FB7A02F9F8D3129C
:104B20005F00500C90A0BDE0B41F07A3E0B4FF02EB
:104B3000C322129BF67B017A8179B5128F82EF2412
:104B400001FFE43E90A0BF129C43FFC394C8EE94C3
:104B5000005002C322C3EF947CEE9401501590A044
:104B6000BD129BED7B3D7A0A797178421257D7507E
:104B70003BC322C390A0C0E094DA90A0BFE09402AF
:104B8000501590A0BD129BED7B337A337949784262
:104B90001257D75017C32290A0BD129BED7B3D7AD0
:104BA0000A79F378411257D75002C322D322123D1B
:104BB000B590A0B9EFF064016003024C7612D1E524
:104BC000400690A0B97406F090A31CE0D394004076
:104BD00006E014F0024C7612D35112BD8612C00DBD
:104BE000128E8E90A31112C01FD390A30BE09F9042
:104BF000A30AE09E500330211B12D4FF90A0BAEF0D
:104C0000F090A319E06F604590A0BAE090A319124C
:104C10004CAE803990A316E0FFC39405500C90A0D1
:104C2000BAEFF0E4FF12D43F800812D3CD90A0BABF
:104C3000EFF090A0BAE0FF90A319E06F6009EF12C7
:104C40004CAEE4FF12AFE2128E8E12C01690A31982
:104C5000E090000693B4210512DAF6401090A319F3
:104C6000E090000693B4410E12DAFD50091261770C
:104C7000BF040312D52790A0B9E0B4080280261221
:104C8000D00B40247F1112D4D6D3EF9400EE9400C1
:104C9000401390A0B97401F012D1E5400B90A0B977
:104CA0007406F0800312DA6390A0B9E0FF22F0E00E
:104CB00090000693FF12258422908024E0540390F4
:104CC000A0CDF0E0D39401400E90802A7401F0E46E
:104CD00090802BF0024DB712255D128F8290A0CEEE
:104CE000EE1223C37A8079D7128F8290A0D0EE1271
:104CF00023C37A807934128F8290A0D2EEF0A3EF92
:104D0000F09081B1E00490A0CDF07B017A81799B95
:104D1000128F82EE541F90A0D4F0A3EFF090A0D099
:104D200012257BC004C005C006C00790A0CDE0FCE2
:104D3000E412584ED003D002D001D000125631E414
:104D4000FBFAF97841125631C004C005C006C0070D
:104D500090A0D412257BA804A905AA06AB07D0070A
:104D6000D006D005D00412573A125882EF2410FF13
:104D7000E43EAB07FAD3EB94FFEA940040047A00D8
:104D80007BFF90A0CE12245490A0D1E09FFF90A072
:104D9000D0E09EFE90A0D212247DA3F0A3EFF0906D
:104DA000A0D41224549BEE9A5002AB07E490802AC0
:104DB000F090802BEBF0E490802CF090802DF0228E
:104DC0007F6190A044E0C31330E006EF4480FF8091
:104DD00004EF547FFF90A045E0B40806EF54F7FFBE
:104DE0008004EF4408FF90A043E0FEC41354073052
:104DF000E006EF54FBFF8004EF4404FFEEC41313FE
:104E000013540130E006EF4402FF8004EF54FDFF2D
:104E1000908150EFF07A81795B90A05E121F23128F
:104E20008FC490A062E0FEA3E0FF90815DF07A81E4
:104E3000796290A064121F57EF2DFDEE3CFC128F9B
:104E4000C490A048121E95128FC47A81796F121FE8
:104E50009E128FC490A048121EB0128FC490A0540E
:104E6000121EA1128FC490A058E0FEA3E0FF908113
:104E700060F07B017A81796690A05AE0FCA3E0FDA6
:104E8000EF2DFDEE3CFC128FC47B017A8179681214
:104E90001F8B128FC490A05A1220D1FEA3E0FF9066
:104EA000A059E02FFD90A058E03EFC128FC490A0C6
:104EB00046121F39128FC47B017A8179797D987CE3
:104EC00008028FC490A02EE0FF75F01E84E5F0600C
:104ED00003024FC3EFB41E0D90A02FE07002A3E0B9
:104EE000700312C7C57B017AA079BC7FFF7E3F1299
:104EF0008C2690A0BCE0F4600312C7C57F007E3012
:104F000012C6A490A032129F9590A030E09FFF900F
:104F1000A02FE09EFE7C007D3C12604590A02E12EA
:104F20009F34C00790A031E0FBD007C3EF9BFFEE9A
:104F30009400FEED9400FDEC9400129F86E4FFFEC9
:104F4000FDFC90A0BD129F7AC3125F00601790A075
:104F5000BD129F0F24FFFFEE34FFFEED34FFFDEC8A
:104F600034FF129F8690A0BD129F0F129F8D125E7C
:104F70004A129F877B0890A0BD129F0BFF125E4ACA
:104F800090A0BAEEF0A3EFF0EE540F90A0BAF0A309
:104F9000EFF090A0BD129F0F5407FFE4EF908F9D9C
:104FA0009390A0BCF0128ECB90A0BBE02400FF90A9
:104FB000A0BAE03430FE90A0BCE0FDE4FB1281B565
:104FC00012CF992290A0BDEFF090A35CF01220497F
:104FD000502090A00DE0FFA3E090A0BECFF0A3EF83
:104FE000F090A00BE0FFA3E090A0C0CFF0A3EFF003
:104FF000801E7B017A807932128F8290A0BE121FB0
:10500000837A807936128F8290A0C0EEF0A3EFF001
:1050100090A0BDE0B4033390A0C0121F487D0A12D7
:105020005C4790A0BEE0FCA3E0FD125C5990A0C2DA
:10503000EEF0A3EFF0C39410EE9400500890A0BDE2
:105040007402F08005E490A0BDF090A0BDE0FFB434
:10505000020C90A0C27405F0A37435F0805AEFB42E
:10506000014B90A0C0E0FEA3E0FF7C037DE812604E
:1050700045121E8C90A0BEE0C313FEA3E013FFE414
:10508000FCFDEB2FFFEA3EFEED39FDEC38FCC006DF
:10509000C00790A0BEE0FEA3E0121FF2D007D0062A
:1050A000125E4A90A0C2EEF0A3EFF0800B90A0BD7C
:1050B000E0E490A0C2F0A3F090A0C2E0FEA3E0FF65
:1050C00002476B90A30CE06405600302517612DA8C
:1050D000E75029128FF712DA4A9081AB743FF090B3
:1050E00081AC741FF090F024E04401F012CF4A909C
:1050F000A30D1251A812C02C407CD322129FA6EF00
:105100006471701E12616B12517E12C02C4002D36A
:10511000221261711251939401EE64809480405682
:10512000D32212D87812517E12C02C4002D3221200
:10513000D8821251939401EE648094804002D3226D
:1051400012BE6F50012212D46B90A30F1251A8947B
:1051500010EE648094804002801712D48190A314D2
:1051600012C01F120016D3EF9404EE6480948040A6
:105170000512D721D322128FF4500122C32290A30B
:1051800017E0FCA3E0FDC3EF9DFFEE9CFE120016AE
:10519000D3EF2290A31AE0FCA3E0FDC3EF9DFFEE46
:1051A0009CFE120016D3EF22E0FCA3E0FDC3EF9DAE
:1051B000FFEE9CFE120016D3EF2290A0BBEFF07022
:1051C000030252881252A690A0BBE0FB90A00F12DF
:1051D000CA2590A0BCEEF0A3EFF090A01112CA2552
:1051E00090A0BEEEF0A3EFF090A0BCE0FFA3E09093
:1051F000A013CFF0A3EFF012D83290A015EEF0A3D9
:10520000EFF090A0BEE0FEA3E0FF90A016E02FF02C
:1052100090A015E03EF090A0BDE025E0FF90A0BC7E
:10522000E033FEC390A010E09FF090A00FE09EF04E
:10523000A3E054FEF012D7F5501390A0BEE0FEA3F9
:10524000E07802C333CE33CED8F9FF800D90A0BFF3
:10525000E025E0FF90A0BEE033FEC390A012E09FE7
:10526000F090A011E09EF090A013E0FEA3E0FF12EA
:10527000D6E490A015E0FEA3E0FF12B19312529481
:105280007F0212AD3302D9CA12D7BE50031252A602
:105290001252942290A00FE0FEA3E0FFA3E0FCA333
:1052A000E0FD12CFC02212D850129E6412A6B02286
:1052B000129FA690A0B9EFF064216008E0644160FD
:1052C0000302538DC22490867212BCB6601030E780
:1052D00002D22490A0B9E054BFF0908672F090867C
:1052E0007312BCB6FF602B30E602D224EF30E01A16
:1052F00012DA57BF011112DA69908744E054606FE7
:105300006008128FFA8003122FCC90A0B9E090862B
:1053100073F090867412BCB6FF6023908880E060C2
:1053200015A3E06011EF30E00312538E90A0B9E0B6
:1053300030E10312538E90A0B9E0908674F090860D
:105340007C12BCB6FF604630E73B12D7DF500D122F
:10535000C53D500812D7154003128FFA12D7DF50FF
:105360001212C53D400D12D715500812D62F40031A
:10537000128FFA12D7DF500D12C53D500812D54CCE
:105380005003128FFA90A0B9E090867CF0229086AC
:1053900005E04402F0E054FDF07F057E0012CA8073
:1053A0002290A0BD748BF0A37431F0E4A3F012C27C
:1053B000559404501012C9AF12C22C700312C25C73
:1053C00012C26380E97E8590A0BD7485F0A37480CD
:1053D000F0E4A3F012C255940B501012C91012C27F
:1053E0002C700312C25C12C26380E97E8B90A0BD58
:1053F000748BF0A37480F0E4A3F012C255941050A3
:105400001012CA4C12C22C700312C25C12C263800A
:10541000E97E8590A0BD7485F0A374F0F0E4A3F05C
:1054200012C255940B501012C94512C22C700312AF
:10543000C25C12C26380E97E8B90A0BD748BF0A326
:105440007490F0E4A3F012C2559403501012C97A7C
:1054500012C22C700312C25C12C26380E9908B5E90
:105460007482F012C07D12D2417A8579087D0012D3
:10547000C26A128E4C7A85790E7D0412C26A128E2F
:105480004C7B017A8579147F007E007D067C0002CA
:105490008E4C90A0BBEFF078BC7CA07A6E79E87F50
:1054A0001D12A42990A0BBE0B4012278D97CA07A77
:1054B0006F79057F1F12A42978F87CA07D017BFFFE
:1054C0007A6F79247E007F16125B85803C7B017A9F
:1054D000A079F812D771906F2BE49390A0FFF09011
:1054E0006F3212A45990A106CFF0A3EFF0906F3461
:1054F00012A45990A108CFF0A3EFF0906F3612A438
:105500005990A10ACFF0A3EFF012C0C690A100E419
:10551000F0A3EFF07B017AA079BC12D75090A0BB2A
:10552000E0B401097B017AA079D912D7667B017AB0
:10553000A079F802D77C02B0500258EEE86480F8F7
:10554000E933E83360110460F0ED33EC337009E8BF
:10555000FCE9FDEAFEEBFF220460DED3EB9FEA9E4E
:10556000E99DE8C2E78CF0C2F795F0400CE8CCF872
:10557000E9CDF9EACEFAEBCFFB1258B985D0F05855
:1055800004700320D5B3E80470075002B2D5025866
:10559000F892D5EC0460F7E4CCC0E0C398F8603B27
:1055A00094186008400DD0E0FB0258D0E4FBFAC923
:1055B000FC8028E830E406E4C9FBE4CAFCE830E3F8
:1055C00005E4C9CACBFCE854076010F8C3E913F935
:1055D000EA13FAEB13FBEC13FCD8F130F52FC3E41C
:1055E0009CFCEF9BFFEE9AFEED99FDD0E0FBEF4EA9
:1055F0004D4C701222DB030258F5EC2CFCEF33FF0C
:10560000EE33FEED33FDED30E7EB0258D0EF2BFF2C
:10561000EE3AFEED39FDD0E0FB50130BBB00030268
:1056200058F8ED13FDEE13FEEF13FFEC13FC0258D8
:10563000D0EC4D6011E8497017ED33EC3304600D88
:10564000E4FCFFFEFD22E933E8330470F80258EE73
:105650001258B958046009E4CC2481500628500936
:105660000258F82840030258F5C0E0EB4A7044B9EC
:105670008006D0E0FB0258E4EF4E701CBD8008EBC2
:10568000FFEAFEE9FD80EBE98DF0A4FEE5F00257AC
:105690001AE9CDF9EAFEEBFFEF89F0A4FCE5F0CEC4
:1056A00089F0A42EFFE435F0CD89F0A42DFEE43579
:1056B000F08067EF4E7005BD80D780C3EF8BF0A4FC
:1056C000ACF0EE8BF0A42CFCE435F0F8EF8AF0A4FB
:1056D0002CE5F038FCE433CB8DF0A42CFCE5F03B5A
:1056E000F8EE8AF0A42CFCE5F038F8E433CF89F02A
:1056F000A42CFCE5F038CF3400CE89F0A42FFFE5D0
:10570000F03EFEE433C98DF0A42EFEE5F039CD8ADB
:10571000F0A42FFFE5F03EFEE43DFD33D0E0FB506A
:10572000070BBB000F0258F8EC2CFCEF33FFEE33F5
:10573000FEED33FD0258D00258F8EC5D046005E838
:10574000590470030258EE1258B9580460F6EC4838
:1057500060F2EC7004FDFEFF22C860DB2481C850BB
:1057600009C398600250060258F59850CAF582E9BC
:10577000294B4A7005AB820258E475F0007C1A7818
:1057800080C3EF9BEE9AED99400DC3EF9BFFEE9A1D
:10579000FEED99FDE842F0DC23ACF0D0E0FFD0E074
:1057A000FED0E0FDAB8220E7101BEB60BAEC2CFCD6
:1057B000EF33FFEE33FEED33FD0258D0E803F8304F
:1057C000E705C0F075F000EF2FFFEE33FEED33FD7F
:1057D00040B830E7C280AA74F8CC6480CCC864803A
:1057E000C8F582046043C3EB9FF5F0EA9E42F0E9FE
:1057F0009D42F0E89C45F060305018E5825FFFE57F
:1058000082F42B5582FB50210ABA001D09B90019F8
:10581000088016E5825BFBE582F42F5582FF500974
:105820000EBE00050DBD00010CC3EB9FF5F0EA9E16
:1058300042F0E99D42F0E89C45F06007CC4820E743
:1058400001B3EC2275F020800E75F010800575F024
:10585000087D007E007F003392D530D503125EDCD8
:10586000EC334010EF33FFEE33FEED33FDEC33FC51
:10587000D5F0ED22E5F0247EA2D513CC92E7CDCE73
:10588000FF22EDD2E7CD33EC3392D524814006E4FC
:10589000FFFEFDFC22FCE4CFCECDCC24E050117401
:1058A000FF80EDC3CC13CCCD13CDCE13CECF13CF11
:1058B0000470F030D5DE025EDCE9D2E7C933E833AC
:1058C000F892D5EDD2E7CD33EC33FC5002B2D522BD
:1058D000EC30E7100FBF000C0EBE00080DBD000439
:1058E0000BEB6014A2D5EB13FCED92E7FD2274FFE5
:1058F000FCFDFEFF22E480F8A2D574FF13FC7D803E
:10590000E480EFF920E73624F950037907E4F42422
:1059100002FBE582158270021583DBF6E024FB5062
:105920001BE96014E4F0E582158270021583E0043F
:10593000F0B40A08E4F0D9EE7401F00A22C2D522CC
:10594000ED33EC3392D5FA602AB4FF33EDC2E77B36
:10595000FF60067A597965E4227A59796E20D50478
:105960007A597969224E614E002B494E46002D49E5
:105970004E4600E47A08F0A3DAFC7B00740722C0EC
:1059800083C082ECC0E0EDC0E0EEC0E0EFC0E0EA32
:1059900075F010A4CAABF075F04DA42BFBE435F004
:1059A000FCEA2410FAEB34C5FBEC34D9FCEDC2E779
:1059B000FF75F056A4F42411C5F0F434C58FF0A49B
:1059C0002AE5F03BE43CF020E714125A75D0E0FFE2
:1059D000D0E0FED0E0FDD0E0FC12573A8014F40491
:1059E000125A75D0E0FFD0E0FED0E0FDD0E0FC120E
:1059F0005631D082D083E0FAEDD2E7CD33EC3324B8
:105A000082FBE4C3CF33CFCE33CECD33CD33DBF304
:105A10007B0775F00A846004F0A31B0AE5F0F0A38D
:105A20008FF0740AA4FFACF08EF0740AA42CFEACC4
:105A3000F050010C8DF0740AA42CFDE435F0F0A3B5
:105A4000DBDE7407223F8000004120000042C800D6
:105A500000447A0000461C400047C35000497424AB
:105A6000004B1896804CBEBC205A0E1BCA6753C20E
:105A70001C749DC5AEFB60065407601C2323125A9C
:105A8000A3EB54386009125A8F125A9E125631EC09
:105A9000F8EDF9EEFAEFCB22EB125A9E80F1543872
:105AA00003241C905A45FE93FC0EEE93FD0EEE93DC
:105AB0000ECE93FF22E709F608DFFA8046E709F2E7
:105AC00008DFFA803E88828C83E709F0A3DFFA8042
:105AD00032E309F608DFFA8078E309F208DFFA809A
